{
  "contractName": "EthealDeposit",
  "abi": [
    {
      "constant": true,
      "inputs": [
        {
          "name": "",
          "type": "address"
        },
        {
          "name": "",
          "type": "uint256"
        }
      ],
      "name": "addressTransactions",
      "outputs": [
        {
          "name": "",
          "type": "uint256"
        }
      ],
      "payable": false,
      "stateMutability": "view",
      "type": "function"
    },
    {
      "constant": false,
      "inputs": [
        {
          "name": "_sale",
          "type": "address"
        }
      ],
      "name": "setSale",
      "outputs": [],
      "payable": false,
      "stateMutability": "nonpayable",
      "type": "function"
    },
    {
      "constant": false,
      "inputs": [
        {
          "name": "_investor",
          "type": "address"
        },
        {
          "name": "_whitelistSign",
          "type": "bytes"
        }
      ],
      "name": "forwardInvestorTransaction",
      "outputs": [],
      "payable": false,
      "stateMutability": "nonpayable",
      "type": "function"
    },
    {
      "constant": true,
      "inputs": [],
      "name": "sale",
      "outputs": [
        {
          "name": "",
          "type": "address"
        }
      ],
      "payable": false,
      "stateMutability": "view",
      "type": "function"
    },
    {
      "constant": false,
      "inputs": [
        {
          "name": "_whitelist",
          "type": "address"
        }
      ],
      "name": "setWhitelist",
      "outputs": [],
      "payable": false,
      "stateMutability": "nonpayable",
      "type": "function"
    },
    {
      "constant": true,
      "inputs": [],
      "name": "owner",
      "outputs": [
        {
          "name": "",
          "type": "address"
        }
      ],
      "payable": false,
      "stateMutability": "view",
      "type": "function"
    },
    {
      "constant": false,
      "inputs": [
        {
          "name": "_ids",
          "type": "uint256[]"
        }
      ],
      "name": "forwardManyTransaction",
      "outputs": [],
      "payable": false,
      "stateMutability": "nonpayable",
      "type": "function"
    },
    {
      "constant": true,
      "inputs": [],
      "name": "whitelist",
      "outputs": [
        {
          "name": "",
          "type": "address"
        }
      ],
      "payable": false,
      "stateMutability": "view",
      "type": "function"
    },
    {
      "constant": true,
      "inputs": [
        {
          "name": "",
          "type": "uint256"
        }
      ],
      "name": "transactions",
      "outputs": [
        {
          "name": "amount",
          "type": "uint256"
        },
        {
          "name": "beneficiary",
          "type": "address"
        },
        {
          "name": "time",
          "type": "uint64"
        },
        {
          "name": "cleared",
          "type": "bool"
        }
      ],
      "payable": false,
      "stateMutability": "view",
      "type": "function"
    },
    {
      "constant": true,
      "inputs": [
        {
          "name": "from",
          "type": "uint256"
        },
        {
          "name": "to",
          "type": "uint256"
        },
        {
          "name": "_cleared",
          "type": "bool"
        },
        {
          "name": "_nonCleared",
          "type": "bool"
        }
      ],
      "name": "getTransactionIds",
      "outputs": [
        {
          "name": "ids",
          "type": "uint256[]"
        }
      ],
      "payable": false,
      "stateMutability": "view",
      "type": "function"
    },
    {
      "constant": false,
      "inputs": [
        {
          "name": "_ids",
          "type": "uint256[]"
        }
      ],
      "name": "refundManyTransaction",
      "outputs": [],
      "payable": false,
      "stateMutability": "nonpayable",
      "type": "function"
    },
    {
      "constant": true,
      "inputs": [],
      "name": "transactionCount",
      "outputs": [
        {
          "name": "",
          "type": "uint256"
        }
      ],
      "payable": false,
      "stateMutability": "view",
      "type": "function"
    },
    {
      "constant": false,
      "inputs": [
        {
          "name": "_id",
          "type": "uint256"
        },
        {
          "name": "_whitelistSign",
          "type": "bytes"
        }
      ],
      "name": "forwardTransaction",
      "outputs": [],
      "payable": false,
      "stateMutability": "nonpayable",
      "type": "function"
    },
    {
      "constant": false,
      "inputs": [
        {
          "name": "_investor",
          "type": "address"
        },
        {
          "name": "_whitelistSign",
          "type": "bytes"
        }
      ],
      "name": "deposit",
      "outputs": [
        {
          "name": "",
          "type": "uint256"
        }
      ],
      "payable": true,
      "stateMutability": "payable",
      "type": "function"
    },
    {
      "constant": false,
      "inputs": [
        {
          "name": "_id",
          "type": "uint256"
        }
      ],
      "name": "refundTransaction",
      "outputs": [],
      "payable": false,
      "stateMutability": "nonpayable",
      "type": "function"
    },
    {
      "constant": true,
      "inputs": [],
      "name": "pendingCount",
      "outputs": [
        {
          "name": "",
          "type": "uint256"
        }
      ],
      "payable": false,
      "stateMutability": "view",
      "type": "function"
    },
    {
      "constant": false,
      "inputs": [
        {
          "name": "_token",
          "type": "address"
        },
        {
          "name": "_claimer",
          "type": "address"
        }
      ],
      "name": "extractTokens",
      "outputs": [],
      "payable": false,
      "stateMutability": "nonpayable",
      "type": "function"
    },
    {
      "constant": false,
      "inputs": [
        {
          "name": "newOwner",
          "type": "address"
        }
      ],
      "name": "transferOwnership",
      "outputs": [],
      "payable": false,
      "stateMutability": "nonpayable",
      "type": "function"
    },
    {
      "constant": false,
      "inputs": [
        {
          "name": "_investor",
          "type": "address"
        }
      ],
      "name": "refundInvestor",
      "outputs": [],
      "payable": false,
      "stateMutability": "nonpayable",
      "type": "function"
    },
    {
      "inputs": [
        {
          "name": "_sale",
          "type": "address"
        },
        {
          "name": "_whitelist",
          "type": "address"
        }
      ],
      "payable": false,
      "stateMutability": "nonpayable",
      "type": "constructor"
    },
    {
      "payable": true,
      "stateMutability": "payable",
      "type": "fallback"
    },
    {
      "anonymous": false,
      "inputs": [
        {
          "indexed": true,
          "name": "beneficiary",
          "type": "address"
        },
        {
          "indexed": false,
          "name": "weiAmount",
          "type": "uint256"
        }
      ],
      "name": "Deposited",
      "type": "event"
    },
    {
      "anonymous": false,
      "inputs": [
        {
          "indexed": true,
          "name": "beneficiary",
          "type": "address"
        },
        {
          "indexed": false,
          "name": "weiAmount",
          "type": "uint256"
        },
        {
          "indexed": false,
          "name": "id",
          "type": "uint256"
        }
      ],
      "name": "Refunded",
      "type": "event"
    },
    {
      "anonymous": false,
      "inputs": [
        {
          "indexed": true,
          "name": "beneficiary",
          "type": "address"
        },
        {
          "indexed": false,
          "name": "weiAmount",
          "type": "uint256"
        },
        {
          "indexed": false,
          "name": "id",
          "type": "uint256"
        }
      ],
      "name": "Forwarded",
      "type": "event"
    },
    {
      "anonymous": false,
      "inputs": [
        {
          "indexed": true,
          "name": "_token",
          "type": "address"
        },
        {
          "indexed": true,
          "name": "_claimer",
          "type": "address"
        },
        {
          "indexed": false,
          "name": "_amount",
          "type": "uint256"
        }
      ],
      "name": "ExtractedTokens",
      "type": "event"
    },
    {
      "anonymous": false,
      "inputs": [
        {
          "indexed": true,
          "name": "previousOwner",
          "type": "address"
        },
        {
          "indexed": true,
          "name": "newOwner",
          "type": "address"
        }
      ],
      "name": "OwnershipTransferred",
      "type": "event"
    }
  ],
  "bytecode": "0x6060604052341561000f57600080fd5b604051604080611e66833981016040528080519190602001805160008054600160a060020a03191633600160a060020a039081169190911790915590925083161515905061005c57600080fd5b60058054600160a060020a03938416600160a060020a03199182161790915560068054929093169116179055611dcf806100976000396000f3006060604052600436106100ed5763ffffffff60e060020a60003504166327dfddbc811461010857806336af50fd1461013c57806369f40ebc1461015d5780636ad1fe02146101bc578063854cff2f146101eb5780638da5cb5b1461020a578063937097881461021d57806393e59dc11461026c5780639ace38c21461027f578063a8abe69a146102d3578063b2f1fe9914610349578063b77bf60014610398578063bfce477f146103ab578063cf2c52cb14610401578063d4e678b814610455578063ea70b4af1461046b578063ed6b2d7d1461047e578063f2fde38b146104a3578063ff53c5a3146104c2575b610105336020604051908101604052600081526104e1565b50005b341561011357600080fd5b61012a600160a060020a0360043516602435610824565b60405190815260200160405180910390f35b341561014757600080fd5b61015b600160a060020a0360043516610852565b005b341561016857600080fd5b61015b60048035600160a060020a03169060446024803590810190830135806020601f8201819004810201604051908101604052818152929190602084018383808284375094965061089c95505050505050565b34156101c757600080fd5b6101cf610c63565b604051600160a060020a03909116815260200160405180910390f35b34156101f657600080fd5b61015b600160a060020a0360043516610c72565b341561021557600080fd5b6101cf610cbc565b341561022857600080fd5b61015b6004602481358181019083013580602081810201604051908101604052809392919081815260200183836020028082843750949650610ccb95505050505050565b341561027757600080fd5b6101cf610f99565b341561028a57600080fd5b610295600435610fa8565b604051938452600160a060020a03909216602084015267ffffffffffffffff1660408084019190915290151560608301526080909101905180910390f35b34156102de57600080fd5b6102f660043560243560443515156064351515610ff9565b60405160208082528190810183818151815260200191508051906020019060200280838360005b8381101561033557808201518382015260200161031d565b505050509050019250505060405180910390f35b341561035457600080fd5b61015b600460248135818101908301358060208181020160405190810160405280939291908181526020018383602002808284375094965061114095505050505050565b34156103a357600080fd5b61012a6111ff565b34156103b657600080fd5b61015b600480359060446024803590810190830135806020601f8201819004810201604051908101604052818152929190602084018383808284375094965061120595505050505050565b61012a60048035600160a060020a03169060446024803590810190830135806020601f820181900481020160405190810160405281815292919060208401838380828437509496506104e195505050505050565b341561046057600080fd5b61015b6004356112b6565b341561047657600080fd5b61012a611351565b341561048957600080fd5b61015b600160a060020a0360043581169060243516611357565b34156104ae57600080fd5b61015b600160a060020a036004351661140d565b34156104cd57600080fd5b61015b600160a060020a03600435166114a8565b6006546000908190600160a060020a031615156104fd57600080fd5b600554600160a060020a0316158015906105775750600554600160a060020a031663ecb70fb76000604051602001526040518163ffffffff1660e060020a028152600401602060405180830381600087803b151561055a57600080fd5b6102c65a03f1151561056b57600080fd5b50505060405180519050155b151561058257600080fd5b600160a060020a038416151561059757600080fd5b600034116105a457600080fd5b6105ae8434611596565b600654909150600160a060020a0316633af32abf8560006040516020015260405160e060020a63ffffffff8416028152600160a060020a039091166004820152602401602060405180830381600087803b151561060a57600080fd5b6102c65a03f1151561061b57600080fd5b50505060405180519050806107165750600654600160a060020a031663a30bdea485856000604051602001526040518363ffffffff1660e060020a0281526004018083600160a060020a0316600160a060020a0316815260200180602001828103825283818151815260200191508051906020019080838360005b838110156106ae578082015183820152602001610696565b50505050905090810190601f1680156106db5780820380516001836020036101000a031916815260200191505b509350505050602060405180830381600087803b15156106fa57600080fd5b6102c65a03f1151561070b57600080fd5b505050604051805190505b8061080857506005546107a2903490600160a060020a03166316934fc48760006040516020015260405160e060020a63ffffffff8416028152600160a060020a039091166004820152602401602060405180830381600087803b151561077b57600080fd5b6102c65a03f1151561078c57600080fd5b505050604051805191905063ffffffff61172e16565b600554600160a060020a031663b5dadb176000604051602001526040518163ffffffff1660e060020a028152600401602060405180830381600087803b15156107ea57600080fd5b6102c65a03f115156107fb57600080fd5b5050506040518051905010155b1561081957610817818461173d565b505b8091505b5092915050565b60046020528160005260406000208181548110151561083f57fe5b6000918252602090912001549150829050565b60005433600160a060020a0390811691161461086d57600080fd5b6005805473ffffffffffffffffffffffffffffffffffffffff1916600160a060020a0392909216919091179055565b600654600090819081908190600160a060020a031615156108bc57600080fd5b600554600160a060020a0316158015906109365750600554600160a060020a031663ecb70fb76000604051602001526040518163ffffffff1660e060020a028152600401602060405180830381600087803b151561091957600080fd5b6102c65a03f1151561092a57600080fd5b50505060405180519050155b151561094157600080fd5b600654600160a060020a0316633af32abf8760006040516020015260405160e060020a63ffffffff8416028152600160a060020a039091166004820152602401602060405180830381600087803b151561099a57600080fd5b6102c65a03f115156109ab57600080fd5b5050506040518051905080610aa65750600654600160a060020a031663a30bdea487876000604051602001526040518363ffffffff1660e060020a0281526004018083600160a060020a0316600160a060020a0316815260200180602001828103825283818151815260200191508051906020019080838360005b83811015610a3e578082015183820152602001610a26565b50505050905090810190601f168015610a6b5780820380516001836020036101000a031916815260200191505b509350505050602060405180830381600087803b1515610a8a57600080fd5b6102c65a03f11515610a9b57600080fd5b505050604051805190505b600554909450600160a060020a03166316934fc48760006040516020015260405160e060020a63ffffffff8416028152600160a060020a039091166004820152602401602060405180830381600087803b1515610b0257600080fd5b6102c65a03f11515610b1357600080fd5b5050506040518051600554909450600160a060020a0316905063b5dadb176000604051602001526040518163ffffffff1660e060020a028152600401602060405180830381600087803b1515610b6857600080fd5b6102c65a03f11515610b7957600080fd5b5050506040518051925060009150505b600160a060020a038616600090815260046020526040902054811015610c5b57600160a060020a03861660009081526004602052604081208054610c0392600392909185908110610bd657fe5b9060005260206000209001548152602001908152602001600020600001548461172e90919063ffffffff16565b92508380610c115750828210155b15610c5357600160a060020a03861660009081526004602052604090208054610c51919083908110610c3f57fe5b9060005260206000209001548661173d565b505b600101610b89565b505050505050565b600554600160a060020a031681565b60005433600160a060020a03908116911614610c8d57600080fd5b6006805473ffffffffffffffffffffffffffffffffffffffff1916600160a060020a0392909216919091179055565b600054600160a060020a031681565b6006546000908190600160a060020a03161515610ce757600080fd5b600554600160a060020a031615801590610d615750600554600160a060020a031663ecb70fb76000604051602001526040518163ffffffff1660e060020a028152600401602060405180830381600087803b1515610d4457600080fd5b6102c65a03f11515610d5557600080fd5b50505060405180519050155b1515610d6c57600080fd5b600554600160a060020a031663b5dadb176000604051602001526040518163ffffffff1660e060020a028152600401602060405180830381600087803b1515610db457600080fd5b6102c65a03f11515610dc557600080fd5b5050506040518051925060009150505b8251811015610f9457600654600160a060020a0316633af32abf60036000868581518110610dff57fe5b90602001906020020151815260208101919091526040908101600090812060010154600160a060020a031691516020015260405160e060020a63ffffffff8416028152600160a060020a039091166004820152602401602060405180830381600087803b1515610e6e57600080fd5b6102c65a03f11515610e7f57600080fd5b5050506040518051905080610f585750610f5460036000858481518110610ea257fe5b90602001906020020151815260208101919091526040016000908120546005549091600160a060020a03909116906316934fc490600390888781518110610ee557fe5b90602001906020020151815260208101919091526040908101600090812060010154600160a060020a031691516020015260405160e060020a63ffffffff8416028152600160a060020a039091166004820152602401602060405180830381600087803b151561077b57600080fd5b8210155b15610f8c57610f8a838281518110610f6c57fe5b9060200190602002015160206040519081016040526000815261173d565b505b600101610dd5565b505050565b600654600160a060020a031681565b60036020526000908152604090208054600190910154600160a060020a0381169074010000000000000000000000000000000000000000810467ffffffffffffffff169060e060020a900460ff1684565b611001611d51565b60008061100c611d51565b60009250600091506001546040518059106110245750595b90808252806020026020018201604052509050600092505b6001548310156110c55785801561106b575060008381526003602052604090206001015460e060020a900460ff165b806110975750848015611097575060008381526003602052604090206001015460e060020a900460ff16155b156110ba57828183815181106110a957fe5b602090810290910101526001909101905b60019092019161103c565b816040518059106110d35750595b908082528060200260200182016040525093508792505b8683111580156110f957508183105b156111355780838151811061110a57fe5b9060200190602002015184848151811061112057fe5b602090810290910101526001909201916110ea565b505050949350505050565b600554600090600160a060020a0316158015906111bc5750600554600160a060020a031663ecb70fb76000604051602001526040518163ffffffff1660e060020a028152600401602060405180830381600087803b15156111a057600080fd5b6102c65a03f115156111b157600080fd5b505050604051805190505b15156111c757600080fd5b5060005b81518110156111fb576111f28282815181106111e357fe5b906020019060200201516119bc565b506001016111cb565b5050565b60015481565b600654600160a060020a0316151561121c57600080fd5b600554600160a060020a0316158015906112965750600554600160a060020a031663ecb70fb76000604051602001526040518163ffffffff1660e060020a028152600401602060405180830381600087803b151561127957600080fd5b6102c65a03f1151561128a57600080fd5b50505060405180519050155b15156112a157600080fd5b6112ab828261173d565b15156111fb57600080fd5b600554600160a060020a03161580159061132f5750600554600160a060020a031663ecb70fb76000604051602001526040518163ffffffff1660e060020a028152600401602060405180830381600087803b151561131357600080fd5b6102c65a03f1151561132457600080fd5b505050604051805190505b151561133a57600080fd5b611343816119bc565b151561134e57600080fd5b50565b60025481565b60005433600160a060020a0390811691161461137257600080fd5b600554600160a060020a0316158015906113eb5750600554600160a060020a031663ecb70fb76000604051602001526040518163ffffffff1660e060020a028152600401602060405180830381600087803b15156113cf57600080fd5b6102c65a03f115156113e057600080fd5b505050604051805190505b15156113f657600080fd5b6002541561140357600080fd5b6111fb8282611ae7565b60005433600160a060020a0390811691161461142857600080fd5b600160a060020a038116151561143d57600080fd5b600054600160a060020a0380831691167f8be0079c531659141344cd1fd0a4f28419497f9722a3daafe3b4186f6b6457e060405160405180910390a36000805473ffffffffffffffffffffffffffffffffffffffff1916600160a060020a0392909216919091179055565b600554600090600160a060020a0316158015906115245750600554600160a060020a031663ecb70fb76000604051602001526040518163ffffffff1660e060020a028152600401602060405180830381600087803b151561150857600080fd5b6102c65a03f1151561151957600080fd5b505050604051805190505b151561152f57600080fd5b5060005b600160a060020a0382166000908152600460205260409020548110156111fb57600160a060020a0382166000908152600460205260409020805461158d91908390811061157c57fe5b9060005260206000209001546119bc565b50600101611533565b60015460009060806040519081016040908152848252600160a060020a03861660208084019190915267ffffffffffffffff42168284015260006060840181905284815260039091522081518155602082015160018201805473ffffffffffffffffffffffffffffffffffffffff1916600160a060020a039290921691909117905560408201518160010160146101000a81548167ffffffffffffffff021916908367ffffffffffffffff16021790555060608201516001918201805491151560e060020a027cff0000000000000000000000000000000000000000000000000000000019909216919091179055600160a060020a038616600090815260046020526040902080549092509081016116ae8382611d63565b506000918252602090912001819055600180546116d09163ffffffff61172e16565b60019081556002546116e79163ffffffff61172e16565b600255600160a060020a0384167f2da466a7b24304f47e87fa2e1e5a81b9831ce54fec19055ce277ca2f39ba42c48460405190815260200160405180910390a29392505050565b60008282018381101561081957fe5b6000611747611d51565b600154841061175557600080fd5b60008481526003602052604090206001015460e060020a900460ff161561177f576000915061081d565b61178a836060611c94565b6005546000868152600360205260409081902054929350600160a060020a039091169190517f6465706f73697445746828616464726573732c75696e743235362c627974657381527f29000000000000000000000000000000000000000000000000000000000000006020820152602101604051908190039020600087815260036020526040908190206001015460e060020a9092049291600160a060020a038116917401000000000000000000000000000000000000000090910467ffffffffffffffff16908690518563ffffffff1660e060020a0281526004018084600160a060020a0316600160a060020a03168152602001838152602001828051906020019080838360005b838110156118ab578082015183820152602001611893565b50505050905090810190601f1680156118d85780820380516001836020036101000a031916815260200191505b50935050505060006040518083038185886187965a03f193505050501515611903576000915061081d565b6000848152600360205260409020600190810180547cff00000000000000000000000000000000000000000000000000000000191660e060020a1790556002546119529163ffffffff611d2816565b6002556000848152600360205260409081902060018101549054600160a060020a03909116917f508d484c7d38f63a9dd5d0f185c94934490afb203eac6a4384c60dc612962b88919087905191825260208201526040908101905180910390a25060019392505050565b60015460009082106119cd57600080fd5b60008281526003602052604090206001015460e060020a900460ff16156119f657506000611ae2565b600082815260036020526040908190206001810180547cff00000000000000000000000000000000000000000000000000000000191660e060020a17908190559054600160a060020a039091169181156108fc02919051600060405180830381858888f193505050501515611a6a57600080fd5b600254611a7e90600163ffffffff611d2816565b6002556000828152600360205260409081902060018101549054600160a060020a03909116917f2dc8e290002f06fc0085bbca9dfb8b415cf4d1178950c72ff9ee8f4d8878ee66919085905191825260208201526040908101905180910390a25060015b919050565b60008054819033600160a060020a03908116911614611b0557600080fd5b600160a060020a0384161515611b575782600160a060020a03166108fc30600160a060020a0316319081150290604051600060405180830381858888f193505050501515611b5257600080fd5b611c8e565b83915081600160a060020a03166370a082313060006040516020015260405160e060020a63ffffffff8416028152600160a060020a039091166004820152602401602060405180830381600087803b1515611bb157600080fd5b6102c65a03f11515611bc257600080fd5b5050506040518051915050600160a060020a03821663a9059cbb848360006040516020015260405160e060020a63ffffffff8516028152600160a060020a0390921660048301526024820152604401602060405180830381600087803b1515611c2a57600080fd5b6102c65a03f11515611c3b57600080fd5b505050604051805190505082600160a060020a031684600160a060020a03167f21e9b296e283cad208b551b3c383bb74e34086eb5691fee8392dcce6794521c28360405190815260200160405180910390a35b50505050565b611c9c611d51565b600080600085519250611cb683604063ffffffff61172e16565b9150611cda6020611cce85601f63ffffffff61172e16565b9063ffffffff611d3a16565b905060405182815285602082015283604082015260005b82811015611d15578060010160200288015160206003830102830152600101611cf1565b5091820160200160405250949350505050565b600082821115611d3457fe5b50900390565b6000808284811515611d4857fe5b04949350505050565b60206040519081016040526000815290565b815481835581811511610f9457600083815260209020610f94918101908301611da091905b80821115611d9c5760008155600101611d88565b5090565b905600a165627a7a72305820a57d0c1b93ea352d78c098a619a1c9bbacadd33b7adf317856cc1460a8bcf4c90029",
  "source": "pragma solidity ^0.4.18;\n\n// File: contracts/ECRecovery.sol\n\n/**\n * @title Eliptic curve signature operations\n *\n * @dev Based on https://gist.github.com/axic/5b33912c6f61ae6fd96d6c4a47afde6d\n */\n\nlibrary ECRecovery {\n\n  /**\n   * @dev Recover signer address from a message by using his signature\n   * @param hash bytes32 message, the hash is the signed message. What is recovered is the signer address.\n   * @param sig bytes signature, the signature is generated using web3.eth.sign()\n   */\n  function recover(bytes32 hash, bytes sig) public pure returns (address) {\n    bytes32 r;\n    bytes32 s;\n    uint8 v;\n\n    //Check the signature length\n    if (sig.length != 65) {\n      return (address(0));\n    }\n\n    // Divide the signature in r, s and v variables\n    assembly {\n      r := mload(add(sig, 32))\n      s := mload(add(sig, 64))\n      v := byte(0, mload(add(sig, 96)))\n    }\n\n    // Version of signature should be 27 or 28, but 0 and 1 are also possible versions\n    if (v < 27) {\n      v += 27;\n    }\n\n    // If the version is correct return the signer address\n    if (v != 27 && v != 28) {\n      return (address(0));\n    } else {\n      return ecrecover(hash, v, r, s);\n    }\n  }\n\n}\n\n// File: contracts/Ownable.sol\n\n/**\n * @title Ownable\n * @dev The Ownable contract has an owner address, and provides basic authorization control\n * functions, this simplifies the implementation of \"user permissions\".\n */\ncontract Ownable {\n  address public owner;\n\n\n  event OwnershipTransferred(address indexed previousOwner, address indexed newOwner);\n\n\n  /**\n   * @dev The Ownable constructor sets the original `owner` of the contract to the sender\n   * account.\n   */\n  function Ownable() {\n    owner = msg.sender;\n  }\n\n\n  /**\n   * @dev Throws if called by any account other than the owner.\n   */\n  modifier onlyOwner() {\n    require(msg.sender == owner);\n    _;\n  }\n\n\n  /**\n   * @dev Allows the current owner to transfer control of the contract to a newOwner.\n   * @param newOwner The address to transfer ownership to.\n   */\n  function transferOwnership(address newOwner) onlyOwner public {\n    require(newOwner != address(0));\n    OwnershipTransferred(owner, newOwner);\n    owner = newOwner;\n  }\n\n}\n\n// File: contracts/EthealWhitelist.sol\n\n/**\n * @title EthealWhitelist\n * @author thesved\n * @notice EthealWhitelist contract which handles KYC\n */\ncontract EthealWhitelist is Ownable {\n    using ECRecovery for bytes32;\n\n    // signer address for offchain whitelist signing\n    address public signer;\n\n    // storing whitelisted addresses\n    mapping(address => bool) public isWhitelisted;\n\n    event WhitelistSet(address indexed _address, bool _state);\n\n    ////////////////\n    // Constructor\n    ////////////////\n    function EthealWhitelist(address _signer) {\n        require(_signer != address(0));\n\n        signer = _signer;\n    }\n\n    /// @notice set signing address after deployment\n    function setSigner(address _signer) public onlyOwner {\n        require(_signer != address(0));\n\n        signer = _signer;\n    }\n\n    ////////////////\n    // Whitelisting: only owner\n    ////////////////\n\n    ///@notice Set whitelist state for an address.\n    function setWhitelist(address _addr, bool _state) public onlyOwner {\n        require(_addr != address(0));\n        isWhitelisted[_addr] = _state;\n        WhitelistSet(_addr, _state);\n    }\n\n    ///@notice Set whitelist state for multiple addresses\n    function setManyWhitelist(address[] _addr, bool _state) public onlyOwner {\n        for (uint256 i = 0; i < _addr.length; i++) {\n            setWhitelist(_addr[i], _state);\n        }\n    }\n\n    /// @notice offchain whitelist check\n    function isOffchainWhitelisted(address _addr, bytes _sig) public view returns (bool) {\n        bytes32 hash = keccak256(\"\\x19Ethereum Signed Message:\\n20\",_addr);\n        return hash.recover(_sig) == signer;\n    }\n}\n\n// File: contracts/ERC20.sol\n\n/**\n * @title ERC20\n * @dev ERC20 interface\n */\ncontract ERC20 {\n    function balanceOf(address who) public constant returns (uint256);\n    function transfer(address to, uint256 value) public returns (bool);\n    function allowance(address owner, address spender) public constant returns (uint256);\n    function transferFrom(address from, address to, uint256 value) public returns (bool);\n    function approve(address spender, uint256 value) public returns (bool);\n    event Transfer(address indexed from, address indexed to, uint256 value);\n    event Approval(address indexed owner, address indexed spender, uint256 value);\n}\n\n// File: contracts/HasNoTokens.sol\n\n/**\n * @title claim accidentally sent tokens\n */\ncontract HasNoTokens is Ownable {\n    event ExtractedTokens(address indexed _token, address indexed _claimer, uint _amount);\n\n    /// @notice This method can be used to extract mistakenly\n    ///  sent tokens to this contract.\n    /// @param _token The address of the token contract that you want to recover\n    ///  set to 0 in case you want to extract ether.\n    /// @param _claimer Address that tokens will be send to\n    function extractTokens(address _token, address _claimer) onlyOwner public {\n        if (_token == 0x0) {\n            _claimer.transfer(this.balance);\n            return;\n        }\n\n        ERC20 token = ERC20(_token);\n        uint balance = token.balanceOf(this);\n        token.transfer(_claimer, balance);\n        ExtractedTokens(_token, _claimer, balance);\n    }\n}\n\n// File: contracts/SafeMath.sol\n\n/**\n * @title SafeMath\n * @dev Math operations with safety checks that throw on error\n */\nlibrary SafeMath {\n  function mul(uint256 a, uint256 b) internal pure returns (uint256) {\n    uint256 c = a * b;\n    assert(a == 0 || c / a == b);\n    return c;\n  }\n\n  function div(uint256 a, uint256 b) internal pure returns (uint256) {\n    // assert(b > 0); // Solidity automatically throws when dividing by 0\n    uint256 c = a / b;\n    // assert(a == b * c + a % b); // There is no case in which this doesn't hold\n    return c;\n  }\n\n  function sub(uint256 a, uint256 b) internal pure returns (uint256) {\n    assert(b <= a);\n    return a - b;\n  }\n\n  function add(uint256 a, uint256 b) internal pure returns (uint256) {\n    uint256 c = a + b;\n    assert(c >= a);\n    return c;\n  }\n}\n\n// File: contracts/iEthealSale.sol\n\n/// @dev Crowdsale interface for Etheal Normal Sale, functions needed from outside.\ncontract iEthealSale {\n    uint256 public whitelistThreshold;\n    mapping (address => uint256) public stakes;\n    function setPromoBonus(address _investor) public;\n    function buyTokens(address _beneficiary) public payable;\n    function depositEth(address _beneficiary, uint256 _time, bytes _whitelistSign) public payable;\n    function depositOffchain(address _beneficiary, uint256 _amount, uint256 _time) public;\n    function hasEnded() public constant returns (bool);\n}\n\n// File: contracts/EthealDeposit.sol\n\n/**\n * @title EthealDeposit\n * @author thesved\n * @dev This contract is used for storing funds while doing Whitelist\n */\ncontract EthealDeposit is Ownable, HasNoTokens {\n    using SafeMath for uint256;\n\n    // storing deposits: make sure they fit in 2 x 32 byte\n    struct Deposit {\n        uint256 amount;         // 32 byte\n        address beneficiary;    // 20 byte\n        uint64 time;            // 8 byte\n        bool cleared;           // 1 bit\n    }\n    uint256 public transactionCount;\n    uint256 public pendingCount;\n    mapping (uint256 => Deposit) public transactions;    // store transactions\n    mapping (address => uint256[]) public addressTransactions;  // store transaction ids for addresses\n    \n    // sale contract to which we forward funds\n    iEthealSale public sale;\n    EthealWhitelist public whitelist;\n\n    event Deposited(address indexed beneficiary, uint256 weiAmount);\n    event Refunded(address indexed beneficiary, uint256 weiAmount, uint256 id);\n    event Forwarded(address indexed beneficiary, uint256 weiAmount, uint256 id);\n\n    ////////////////\n    // Constructor\n    ////////////////\n\n    /// @notice Etheal deposit constructor\n    /// @param _sale address of sale contract\n    /// @param _whitelist address of whitelist contract\n    function EthealDeposit(address _sale, address _whitelist) {\n        require(_sale != address(0));\n        sale = iEthealSale(_sale);\n        whitelist = EthealWhitelist(_whitelist);\n    }\n\n    /// @notice Set sale contract address\n    function setSale(address _sale) public onlyOwner {\n        sale = iEthealSale(_sale);\n    }\n\n    /// @notice Set whitelist contract address\n    function setWhitelist(address _whitelist) public onlyOwner {\n        whitelist = EthealWhitelist(_whitelist);\n    }\n\n    /// @dev Override HasNoTokens#extractTokens to not be able to extract tokens until saleEnd and everyone got their funds back\n    function extractTokens(address _token, address _claimer) public onlyOwner saleEnded {\n        require(pendingCount == 0);\n\n        super.extractTokens(_token, _claimer);\n    }\n\n\n    ////////////////\n    // Deposit, forward, refund\n    ////////////////\n\n    modifier whitelistSet() {\n        require(address(whitelist) != address(0));\n        _;\n    }\n\n    modifier saleNotEnded() {\n        require(address(sale) != address(0) && !sale.hasEnded());\n        _;\n    }\n\n    modifier saleEnded() {\n        require(address(sale) != address(0) && sale.hasEnded());\n        _;\n    }\n\n    /// @notice payable fallback calls the deposit function\n    function() public payable {\n        deposit(msg.sender, \"\");\n    }\n\n    /// @notice depositing for investor, return transaction Id\n    /// @param _investor address of investor\n    /// @param _whitelistSign offchain whitelist signiture for address, optional\n    function deposit(address _investor, bytes _whitelistSign) public payable whitelistSet saleNotEnded returns (uint256) {\n        require(_investor != address(0));\n        require(msg.value > 0);\n\n        uint256 transactionId = addTransaction(_investor, msg.value);\n\n        // forward transaction automatically if whitelist is okay, so the transaction doesnt revert\n        if (whitelist.isWhitelisted(_investor) \n            || whitelist.isOffchainWhitelisted(_investor, _whitelistSign) \n            || sale.whitelistThreshold() >= sale.stakes(_investor).add(msg.value)\n        ) {\n            forwardTransactionInternal(transactionId, _whitelistSign);\n        }\n\n        return transactionId;\n    }\n\n    /// @notice forwarding a transaction\n    function forwardTransaction(uint256 _id, bytes _whitelistSign) public whitelistSet saleNotEnded {\n        require(forwardTransactionInternal(_id, _whitelistSign));\n    }\n\n    /// @notice forwarding multiple transactions: check whitelist\n    function forwardManyTransaction(uint256[] _ids) public whitelistSet saleNotEnded {\n        uint256 _threshold = sale.whitelistThreshold();\n\n        for (uint256 i=0; i<_ids.length; i++) {\n            // only forward if it is within threshold or whitelisted, so the transaction doesnt revert\n            if ( whitelist.isWhitelisted(transactions[_ids[i]].beneficiary) \n                || _threshold >= sale.stakes(transactions[_ids[i]].beneficiary).add(transactions[_ids[i]].amount )\n            ) {\n                forwardTransactionInternal(_ids[i],\"\");\n            }\n        }\n    }\n\n    /// @notice forwarding transactions for an investor\n    function forwardInvestorTransaction(address _investor, bytes _whitelistSign) public whitelistSet saleNotEnded {\n        bool _whitelisted = whitelist.isWhitelisted(_investor) || whitelist.isOffchainWhitelisted(_investor, _whitelistSign);\n        uint256 _amount = sale.stakes(_investor);\n        uint256 _threshold = sale.whitelistThreshold();\n\n        for (uint256 i=0; i<addressTransactions[_investor].length; i++) {\n            _amount = _amount.add(transactions[ addressTransactions[_investor][i] ].amount);\n            // only forward if it is within threshold or whitelisted, so the transaction doesnt revert\n            if (_whitelisted || _threshold >= _amount) {\n                forwardTransactionInternal(addressTransactions[_investor][i], _whitelistSign);\n            }\n        }\n    }\n\n    /// @notice refunding a transaction\n    function refundTransaction(uint256 _id) public saleEnded {\n        require(refundTransactionInternal(_id));\n    }\n\n    /// @notice refunding multiple transactions\n    function refundManyTransaction(uint256[] _ids) public saleEnded {\n        for (uint256 i=0; i<_ids.length; i++) {\n            refundTransactionInternal(_ids[i]);\n        }\n    }\n\n    /// @notice refunding an investor\n    function refundInvestor(address _investor) public saleEnded {\n        for (uint256 i=0; i<addressTransactions[_investor].length; i++) {\n            refundTransactionInternal(addressTransactions[_investor][i]);\n        }\n    }\n\n\n    ////////////////\n    // Internal functions\n    ////////////////\n\n    /// @notice add transaction and returns its id\n    function addTransaction(address _investor, uint256 _amount) internal returns (uint256) {\n        uint256 transactionId = transactionCount;\n\n        // save transaction\n        transactions[transactionId] = Deposit({\n            amount: _amount,\n            beneficiary: _investor,\n            time: uint64(now),\n            cleared : false\n        });\n\n        // save transactionId for investor address\n        addressTransactions[_investor].push(transactionId);\n\n        transactionCount = transactionCount.add(1);\n        pendingCount = pendingCount.add(1);\n        Deposited(_investor,_amount);\n\n        return transactionId;\n    }\n\n    /// @notice Forwarding a transaction, internal function, doesn't check sale status for speed up mass actions.\n    /// @return whether forward was successful or not\n    function forwardTransactionInternal(uint256 _id, bytes memory _whitelistSign) internal returns (bool) {\n        require(_id < transactionCount);\n\n        // if already cleared then return false\n        if (transactions[_id].cleared) {\n            return false;\n        }\n\n        // fixing bytes data to argument call data: data -> {data position}{data length}data\n        bytes memory _whitelistCall = bytesToArgument(_whitelistSign, 96);\n\n        // forwarding transaction to sale contract\n        if (! sale.call.value(transactions[_id].amount)(bytes4(keccak256('depositEth(address,uint256,bytes)')), transactions[_id].beneficiary, uint256(transactions[_id].time), _whitelistCall) ) {\n            return false;\n        }\n        transactions[_id].cleared = true;\n\n        pendingCount = pendingCount.sub(1);\n        Forwarded(transactions[_id].beneficiary, transactions[_id].amount, _id);\n\n        return true;\n    }\n\n    /// @dev Fixing low level call for providing signature information: create proper padding for bytes information\n    function bytesToArgument(bytes memory _sign, uint256 _position) internal pure returns (bytes memory c) {\n        uint256 signLength = _sign.length;\n        uint256 totalLength = signLength.add(64);\n        uint256 loopMax = signLength.add(31).div(32);\n        assembly {\n            let m := mload(0x40)\n            mstore(m, totalLength)          // store the total length\n            mstore(add(m,32), _position)    // where does the data start\n            mstore(add(m,64), signLength)   // store the length of signature\n            for {  let i := 0 } lt(i, loopMax) { i := add(1, i) } { mstore(add(m, mul(32, add(3, i))), mload(add(_sign, mul(32, add(1, i))))) }\n            mstore(0x40, add(m, add(32, totalLength)))\n            c := m\n        }\n    }\n\n    /// @notice Send back non-cleared transactions after sale is over, not checking status for speeding up mass actions\n    function refundTransactionInternal(uint256 _id) internal returns (bool) {\n        require(_id < transactionCount);\n\n        // if already cleared then return false\n        if (transactions[_id].cleared) {\n            return false;\n        }\n\n        // sending back funds\n        transactions[_id].cleared = true;\n        transactions[_id].beneficiary.transfer(transactions[_id].amount);\n\n        pendingCount = pendingCount.sub(1);\n        Refunded(transactions[_id].beneficiary, transactions[_id].amount, _id);\n\n        return true;\n    }\n\n\n    ////////////////\n    // External functions\n    ////////////////\n\n    /// @notice gives back transaction ids based on filtering\n    function getTransactionIds(uint256 from, uint256 to, bool _cleared, bool _nonCleared) view external returns (uint256[] ids) {\n        uint256 i = 0;\n        uint256 results = 0;\n        uint256[] memory _ids = new uint256[](transactionCount);\n\n        // search in contributors\n        for (i = 0; i < transactionCount; i++) {\n            if (_cleared && transactions[i].cleared || _nonCleared && !transactions[i].cleared) {\n                _ids[results] = i;\n                results++;\n            }\n        }\n\n        ids = new uint256[](results);\n        for (i = from; i <= to && i < results; i++) {\n            ids[i] = _ids[i];\n        }\n\n        return ids;\n    }\n}\n",
  "sourcePath": "/Users/tikonoff/projects/etheal-contracts/contracts/flattened/FlattenedEthealDeposit.sol",
  "compiler": {
    "name": "solc",
    "version": "0.4.19+commit.c4cbbb05.Emscripten.clang"
  },
  "schemaVersion": "1.0.1",
  "updatedAt": "2018-03-13T01:01:24.806Z"
}