{
  "contractName": "EthealPromoToken",
  "abi": [
    {
      "constant": true,
      "inputs": [],
      "name": "name",
      "outputs": [
        {
          "name": "",
          "type": "string"
        }
      ],
      "payable": false,
      "stateMutability": "view",
      "type": "function"
    },
    {
      "constant": false,
      "inputs": [
        {
          "name": "_spender",
          "type": "address"
        },
        {
          "name": "_amount",
          "type": "uint256"
        }
      ],
      "name": "approve",
      "outputs": [
        {
          "name": "success",
          "type": "bool"
        }
      ],
      "payable": false,
      "stateMutability": "nonpayable",
      "type": "function"
    },
    {
      "constant": true,
      "inputs": [],
      "name": "creationBlock",
      "outputs": [
        {
          "name": "",
          "type": "uint256"
        }
      ],
      "payable": false,
      "stateMutability": "view",
      "type": "function"
    },
    {
      "constant": true,
      "inputs": [],
      "name": "totalSupply",
      "outputs": [
        {
          "name": "",
          "type": "uint256"
        }
      ],
      "payable": false,
      "stateMutability": "view",
      "type": "function"
    },
    {
      "constant": false,
      "inputs": [
        {
          "name": "_from",
          "type": "address"
        },
        {
          "name": "_to",
          "type": "address"
        },
        {
          "name": "_amount",
          "type": "uint256"
        }
      ],
      "name": "transferFrom",
      "outputs": [
        {
          "name": "success",
          "type": "bool"
        }
      ],
      "payable": false,
      "stateMutability": "nonpayable",
      "type": "function"
    },
    {
      "constant": true,
      "inputs": [],
      "name": "decimals",
      "outputs": [
        {
          "name": "",
          "type": "uint8"
        }
      ],
      "payable": false,
      "stateMutability": "view",
      "type": "function"
    },
    {
      "constant": false,
      "inputs": [
        {
          "name": "_newController",
          "type": "address"
        }
      ],
      "name": "changeController",
      "outputs": [],
      "payable": false,
      "stateMutability": "nonpayable",
      "type": "function"
    },
    {
      "constant": true,
      "inputs": [
        {
          "name": "_owner",
          "type": "address"
        },
        {
          "name": "_blockNumber",
          "type": "uint256"
        }
      ],
      "name": "balanceOfAt",
      "outputs": [
        {
          "name": "",
          "type": "uint256"
        }
      ],
      "payable": false,
      "stateMutability": "view",
      "type": "function"
    },
    {
      "constant": true,
      "inputs": [],
      "name": "version",
      "outputs": [
        {
          "name": "",
          "type": "string"
        }
      ],
      "payable": false,
      "stateMutability": "view",
      "type": "function"
    },
    {
      "constant": false,
      "inputs": [
        {
          "name": "_cloneTokenName",
          "type": "string"
        },
        {
          "name": "_cloneDecimalUnits",
          "type": "uint8"
        },
        {
          "name": "_cloneTokenSymbol",
          "type": "string"
        },
        {
          "name": "_snapshotBlock",
          "type": "uint256"
        },
        {
          "name": "_transfersEnabled",
          "type": "bool"
        }
      ],
      "name": "createCloneToken",
      "outputs": [
        {
          "name": "",
          "type": "address"
        }
      ],
      "payable": false,
      "stateMutability": "nonpayable",
      "type": "function"
    },
    {
      "constant": true,
      "inputs": [
        {
          "name": "_owner",
          "type": "address"
        }
      ],
      "name": "balanceOf",
      "outputs": [
        {
          "name": "balance",
          "type": "uint256"
        }
      ],
      "payable": false,
      "stateMutability": "view",
      "type": "function"
    },
    {
      "constant": true,
      "inputs": [],
      "name": "parentToken",
      "outputs": [
        {
          "name": "",
          "type": "address"
        }
      ],
      "payable": false,
      "stateMutability": "view",
      "type": "function"
    },
    {
      "constant": false,
      "inputs": [
        {
          "name": "_owner",
          "type": "address"
        },
        {
          "name": "_amount",
          "type": "uint256"
        }
      ],
      "name": "generateTokens",
      "outputs": [
        {
          "name": "",
          "type": "bool"
        }
      ],
      "payable": false,
      "stateMutability": "nonpayable",
      "type": "function"
    },
    {
      "constant": true,
      "inputs": [],
      "name": "symbol",
      "outputs": [
        {
          "name": "",
          "type": "string"
        }
      ],
      "payable": false,
      "stateMutability": "view",
      "type": "function"
    },
    {
      "constant": true,
      "inputs": [
        {
          "name": "_blockNumber",
          "type": "uint256"
        }
      ],
      "name": "totalSupplyAt",
      "outputs": [
        {
          "name": "",
          "type": "uint256"
        }
      ],
      "payable": false,
      "stateMutability": "view",
      "type": "function"
    },
    {
      "constant": false,
      "inputs": [
        {
          "name": "_to",
          "type": "address"
        },
        {
          "name": "_amount",
          "type": "uint256"
        }
      ],
      "name": "transfer",
      "outputs": [
        {
          "name": "success",
          "type": "bool"
        }
      ],
      "payable": false,
      "stateMutability": "nonpayable",
      "type": "function"
    },
    {
      "constant": true,
      "inputs": [],
      "name": "transfersEnabled",
      "outputs": [
        {
          "name": "",
          "type": "bool"
        }
      ],
      "payable": false,
      "stateMutability": "view",
      "type": "function"
    },
    {
      "constant": true,
      "inputs": [],
      "name": "parentSnapShotBlock",
      "outputs": [
        {
          "name": "",
          "type": "uint256"
        }
      ],
      "payable": false,
      "stateMutability": "view",
      "type": "function"
    },
    {
      "constant": false,
      "inputs": [
        {
          "name": "_spender",
          "type": "address"
        },
        {
          "name": "_amount",
          "type": "uint256"
        },
        {
          "name": "_extraData",
          "type": "bytes"
        }
      ],
      "name": "approveAndCall",
      "outputs": [
        {
          "name": "success",
          "type": "bool"
        }
      ],
      "payable": false,
      "stateMutability": "nonpayable",
      "type": "function"
    },
    {
      "constant": false,
      "inputs": [
        {
          "name": "_owner",
          "type": "address"
        },
        {
          "name": "_amount",
          "type": "uint256"
        }
      ],
      "name": "destroyTokens",
      "outputs": [
        {
          "name": "",
          "type": "bool"
        }
      ],
      "payable": false,
      "stateMutability": "nonpayable",
      "type": "function"
    },
    {
      "constant": true,
      "inputs": [
        {
          "name": "_owner",
          "type": "address"
        },
        {
          "name": "_spender",
          "type": "address"
        }
      ],
      "name": "allowance",
      "outputs": [
        {
          "name": "remaining",
          "type": "uint256"
        }
      ],
      "payable": false,
      "stateMutability": "view",
      "type": "function"
    },
    {
      "constant": false,
      "inputs": [
        {
          "name": "_token",
          "type": "address"
        }
      ],
      "name": "claimTokens",
      "outputs": [],
      "payable": false,
      "stateMutability": "nonpayable",
      "type": "function"
    },
    {
      "constant": true,
      "inputs": [],
      "name": "tokenFactory",
      "outputs": [
        {
          "name": "",
          "type": "address"
        }
      ],
      "payable": false,
      "stateMutability": "view",
      "type": "function"
    },
    {
      "constant": false,
      "inputs": [
        {
          "name": "_transfersEnabled",
          "type": "bool"
        }
      ],
      "name": "enableTransfers",
      "outputs": [],
      "payable": false,
      "stateMutability": "nonpayable",
      "type": "function"
    },
    {
      "constant": true,
      "inputs": [],
      "name": "controller",
      "outputs": [
        {
          "name": "",
          "type": "address"
        }
      ],
      "payable": false,
      "stateMutability": "view",
      "type": "function"
    },
    {
      "inputs": [
        {
          "name": "_controller",
          "type": "address"
        },
        {
          "name": "_tokenFactory",
          "type": "address"
        }
      ],
      "payable": false,
      "stateMutability": "nonpayable",
      "type": "constructor"
    },
    {
      "payable": true,
      "stateMutability": "payable",
      "type": "fallback"
    },
    {
      "anonymous": false,
      "inputs": [
        {
          "indexed": true,
          "name": "_token",
          "type": "address"
        },
        {
          "indexed": true,
          "name": "_controller",
          "type": "address"
        },
        {
          "indexed": false,
          "name": "_amount",
          "type": "uint256"
        }
      ],
      "name": "ClaimedTokens",
      "type": "event"
    },
    {
      "anonymous": false,
      "inputs": [
        {
          "indexed": true,
          "name": "_from",
          "type": "address"
        },
        {
          "indexed": true,
          "name": "_to",
          "type": "address"
        },
        {
          "indexed": false,
          "name": "_amount",
          "type": "uint256"
        }
      ],
      "name": "Transfer",
      "type": "event"
    },
    {
      "anonymous": false,
      "inputs": [
        {
          "indexed": true,
          "name": "_cloneToken",
          "type": "address"
        },
        {
          "indexed": false,
          "name": "_snapshotBlock",
          "type": "uint256"
        }
      ],
      "name": "NewCloneToken",
      "type": "event"
    },
    {
      "anonymous": false,
      "inputs": [
        {
          "indexed": true,
          "name": "_owner",
          "type": "address"
        },
        {
          "indexed": true,
          "name": "_spender",
          "type": "address"
        },
        {
          "indexed": false,
          "name": "_amount",
          "type": "uint256"
        }
      ],
      "name": "Approval",
      "type": "event"
    }
  ],
  "bytecode": "0x606060405260408051908101604052600781527f4d4d545f302e3200000000000000000000000000000000000000000000000000602082015260049080516200004d92916020019062000201565b5034156200005a57600080fd5b60405160408062001af8833981016040528080519190602001805191508190506000806040805190810160405280601281526020017f45746865616c2050524f4d4f20546f6b656e0000000000000000000000000000815250601260408051908101604052600581527f4865616c50000000000000000000000000000000000000000000000000000000602082015260008054600160a060020a03338116600160a060020a031990921691909117909155600b80549188166101000261010060a860020a03199092169190911790556001808480516200013f92916020019062000201565b506002805460ff191660ff851617905560038280516200016492916020019062000201565b5060058054600160a060020a031916600160a060020a039790971696909617909555505050600655600b805460ff19169115159190911790555043600755620001bb82640100000000620001c38102620008f91704565b5050620002a6565b60005433600160a060020a03908116911614620001df57600080fd5b60008054600160a060020a031916600160a060020a0392909216919091179055565b828054600181600116156101000203166002900490600052602060002090601f016020900481019282601f106200024457805160ff191683800117855562000274565b8280016001018555821562000274579182015b828111156200027457825182559160200191906001019062000257565b506200028292915062000286565b5090565b620002a391905b808211156200028257600081556001016200028d565b90565b61184280620002b66000396000f30060606040526004361061012f5763ffffffff60e060020a60003504166306fdde0381146101d4578063095ea7b31461025e578063176345141461029457806318160ddd146102b957806323b872dd146102cc578063313ce567146102f45780633cebb8231461031d5780634ee2cd7e1461033c57806354fd4d501461035e5780636638c0871461037157806370a082311461043557806380a5400114610454578063827f32c01461046757806395d89b4114610489578063981b24d01461049c578063a9059cbb146104b2578063bef97c87146104d4578063c5bcc4f1146104e7578063cae9ca51146104fa578063d3ce77fe1461055f578063dd62ed3e14610581578063df8de3e7146105a6578063e77772fe146105c5578063f41e60c5146105d8578063f77c4791146105f0575b60005461014490600160a060020a0316610603565b151561014f57600080fd5b60008054600160a060020a03169063f48c305490349033906040516020015260405160e060020a63ffffffff8516028152600160a060020a0390911660048201526024016020604051808303818588803b15156101ab57600080fd5b6125ee5a03f115156101bc57600080fd5b505050506040518051905015156101d257600080fd5b005b34156101df57600080fd5b6101e7610630565b60405160208082528190810183818151815260200191508051906020019080838360005b8381101561022357808201518382015260200161020b565b50505050905090810190601f1680156102505780820380516001836020036101000a031916815260200191505b509250505060405180910390f35b341561026957600080fd5b610280600160a060020a03600435166024356106ce565b604051901515815260200160405180910390f35b341561029f57600080fd5b6102a7610837565b60405190815260200160405180910390f35b34156102c457600080fd5b6102a761083d565b34156102d757600080fd5b610280600160a060020a036004358116906024351660443561084e565b34156102ff57600080fd5b6103076108f0565b60405160ff909116815260200160405180910390f35b341561032857600080fd5b6101d2600160a060020a03600435166108f9565b341561034757600080fd5b6102a7600160a060020a0360043516602435610943565b341561036957600080fd5b6101e7610a79565b341561037c57600080fd5b61041960046024813581810190830135806020601f8201819004810201604051908101604052818152929190602084018383808284378201915050505050509190803560ff1690602001909190803590602001908201803590602001908080601f016020809104026020016040519081016040528181529291906020840183838082843750949650508435946020013515159350610ae492505050565b604051600160a060020a03909116815260200160405180910390f35b341561044057600080fd5b6102a7600160a060020a0360043516610d0e565b341561045f57600080fd5b610419610d22565b341561047257600080fd5b610280600160a060020a0360043516602435610d31565b341561049457600080fd5b6101e7610e01565b34156104a757600080fd5b6102a7600435610e6c565b34156104bd57600080fd5b610280600160a060020a0360043516602435610f55565b34156104df57600080fd5b610280610f74565b34156104f257600080fd5b6102a7610f7d565b341561050557600080fd5b61028060048035600160a060020a03169060248035919060649060443590810190830135806020601f82018190048102016040519081016040528181529291906020840183838082843750949650610f8395505050505050565b341561056a57600080fd5b610280600160a060020a036004351660243561109e565b341561058c57600080fd5b6102a7600160a060020a0360043581169060243516611168565b34156105b157600080fd5b6101d2600160a060020a0360043516611193565b34156105d057600080fd5b61041961133f565b34156105e357600080fd5b6101d26004351515611353565b34156105fb57600080fd5b610419611381565b600080600160a060020a038316151561061f576000915061062a565b823b90506000811191505b50919050565b60018054600181600116156101000203166002900480601f0160208091040260200160405190810160405280929190818152602001828054600181600116156101000203166002900480156106c65780601f1061069b576101008083540402835291602001916106c6565b820191906000526020600020905b8154815290600101906020018083116106a957829003601f168201915b505050505081565b600b5460009060ff1615156106e257600080fd5b8115806107125750600160a060020a03338116600090815260096020908152604080832093871683529290522054155b151561071d57600080fd5b60005461073290600160a060020a0316610603565b156107cd5760008054600160a060020a03169063da682aeb903390869086906040516020015260405160e060020a63ffffffff8616028152600160a060020a0393841660048201529190921660248201526044810191909152606401602060405180830381600087803b15156107a757600080fd5b6102c65a03f115156107b857600080fd5b5050506040518051905015156107cd57600080fd5b600160a060020a03338116600081815260096020908152604080832094881680845294909152908190208590557f8c5be1e5ebec7d5bd14f71427d1e84f3dd0314c0f7b2291e5b200ac8c7c3b9259085905190815260200160405180910390a35060015b92915050565b60075481565b600061084843610e6c565b90505b90565b6000805433600160a060020a039081169116146108db57600b5460ff16151561087657600080fd5b600160a060020a0380851660009081526009602090815260408083203390941683529290522054829010156108ad575060006108e9565b600160a060020a03808516600090815260096020908152604080832033909416835292905220805483900390555b6108e6848484611390565b90505b9392505050565b60025460ff1681565b60005433600160a060020a0390811691161461091457600080fd5b6000805473ffffffffffffffffffffffffffffffffffffffff1916600160a060020a0392909216919091179055565b600160a060020a038216600090815260086020526040812054158061099f5750600160a060020a03831660009081526008602052604081208054849290811061098857fe5b6000918252602090912001546001608060020a0316115b15610a5057600554600160a060020a031615610a4857600554600654600160a060020a0390911690634ee2cd7e9085906109da90869061156e565b60006040516020015260405160e060020a63ffffffff8516028152600160a060020a0390921660048301526024820152604401602060405180830381600087803b1515610a2657600080fd5b6102c65a03f11515610a3757600080fd5b505050604051805190509050610831565b506000610831565b600160a060020a0383166000908152600860205260409020610a729083611584565b9050610831565b60048054600181600116156101000203166002900480601f0160208091040260200160405190810160405280929190818152602001828054600181600116156101000203166002900480156106c65780601f1061069b576101008083540402835291602001916106c6565b600080831515610af2574393505b600b546101009004600160a060020a0316635b7b72c130868a8a8a8960006040516020015260405160e060020a63ffffffff8916028152600160a060020a038716600482019081526024820187905260ff8516606483015282151560a483015260c0604483019081529091608481019060c40187818151815260200191508051906020019080838360005b83811015610b95578082015183820152602001610b7d565b50505050905090810190601f168015610bc25780820380516001836020036101000a031916815260200191505b50838103825285818151815260200191508051906020019080838360005b83811015610bf8578082015183820152602001610be0565b50505050905090810190601f168015610c255780820380516001836020036101000a031916815260200191505b5098505050505050505050602060405180830381600087803b1515610c4957600080fd5b6102c65a03f11515610c5a57600080fd5b5050506040518051915050600160a060020a038116633cebb8233360405160e060020a63ffffffff8416028152600160a060020a039091166004820152602401600060405180830381600087803b1515610cb357600080fd5b6102c65a03f11515610cc457600080fd5b50505080600160a060020a03167f086c875b377f900b07ce03575813022f05dd10ed7640b5282cf6d3c3fc352ade8560405190815260200160405180910390a29695505050505050565b6000610d1a8243610943565b90505b919050565b600554600160a060020a031681565b600080548190819033600160a060020a03908116911614610d5157600080fd5b610d5961083d565b915083820182901015610d6b57600080fd5b610d7485610d0e565b905083810181901015610d8657600080fd5b610d93600a8584016116e3565b600160a060020a0385166000908152600860205260409020610db7908286016116e3565b84600160a060020a031660007fddf252ad1be2c89b69c2b068fc378daa952ba7f163c4a11628f55a4df523b3ef8660405190815260200160405180910390a3506001949350505050565b60038054600181600116156101000203166002900480601f0160208091040260200160405190810160405280929190818152602001828054600181600116156101000203166002900480156106c65780601f1061069b576101008083540402835291602001916106c6565b600a546000901580610ea1575081600a6000815481101515610e8a57fe5b6000918252602090912001546001608060020a0316115b15610f4357600554600160a060020a031615610f3b57600554600654600160a060020a039091169063981b24d090610eda90859061156e565b60006040516020015260405160e060020a63ffffffff84160281526004810191909152602401602060405180830381600087803b1515610f1957600080fd5b6102c65a03f11515610f2a57600080fd5b505050604051805190509050610d1d565b506000610d1d565b610f4e600a83611584565b9050610d1d565b600b5460009060ff161515610f6957600080fd5b6108e9338484611390565b600b5460ff1681565b60065481565b6000610f8f84846106ce565b1515610f9a57600080fd5b83600160a060020a0316638f4ffcb1338530866040518563ffffffff1660e060020a0281526004018085600160a060020a0316600160a060020a0316815260200184815260200183600160a060020a0316600160a060020a0316815260200180602001828103825283818151815260200191508051906020019080838360005b8381101561103257808201518382015260200161101a565b50505050905090810190601f16801561105f5780820380516001836020036101000a031916815260200191505b5095505050505050600060405180830381600087803b151561108057600080fd5b6102c65a03f1151561109157600080fd5b5060019695505050505050565b600080548190819033600160a060020a039081169116146110be57600080fd5b6110c661083d565b9150838210156110d557600080fd5b6110de85610d0e565b9050838110156110ed57600080fd5b6110fa600a8584036116e3565b600160a060020a038516600090815260086020526040902061111e908583036116e3565b600085600160a060020a03167fddf252ad1be2c89b69c2b068fc378daa952ba7f163c4a11628f55a4df523b3ef8660405190815260200160405180910390a3506001949350505050565b600160a060020a03918216600090815260096020908152604080832093909416825291909152205490565b60008054819033600160a060020a039081169116146111b157600080fd5b600160a060020a03831615156111ff57600054600160a060020a039081169030163180156108fc0290604051600060405180830381858888f1935050505015156111fa57600080fd5b61133a565b82915081600160a060020a03166370a082313060006040516020015260405160e060020a63ffffffff8416028152600160a060020a039091166004820152602401602060405180830381600087803b151561125957600080fd5b6102c65a03f1151561126a57600080fd5b505050604051805160008054919350600160a060020a03808616935063a9059cbb92169084906040516020015260405160e060020a63ffffffff8516028152600160a060020a0390921660048301526024820152604401602060405180830381600087803b15156112da57600080fd5b6102c65a03f115156112eb57600080fd5b50505060405180515050600054600160a060020a039081169084167ff931edb47c50b4b4104c187b5814a9aef5f709e17e2ecf9617e860cacade929c8360405190815260200160405180910390a35b505050565b600b546101009004600160a060020a031681565b60005433600160a060020a0390811691161461136e57600080fd5b600b805460ff1916911515919091179055565b600054600160a060020a031681565b600080808315156113a45760019250611565565b6006544390106113b357600080fd5b600160a060020a038516158015906113dd575030600160a060020a031685600160a060020a031614155b15156113e857600080fd5b6113f28643610943565b9150838210156114055760009250611565565b60005461141a90600160a060020a0316610603565b156114b55760008054600160a060020a031690634a393149908890889088906040516020015260405160e060020a63ffffffff8616028152600160a060020a0393841660048201529190921660248201526044810191909152606401602060405180830381600087803b151561148f57600080fd5b6102c65a03f115156114a057600080fd5b5050506040518051905015156114b557600080fd5b600160a060020a03861660009081526008602052604090206114d9908584036116e3565b6114e38543610943565b9050838101819010156114f557600080fd5b600160a060020a0385166000908152600860205260409020611519908286016116e3565b84600160a060020a031686600160a060020a03167fddf252ad1be2c89b69c2b068fc378daa952ba7f163c4a11628f55a4df523b3ef8660405190815260200160405180910390a3600192505b50509392505050565b600081831061157d57816108e9565b5090919050565b6000806000808580549050600014156115a057600093506116da565b8554869060001981019081106115b257fe5b6000918252602090912001546001608060020a0316851061160f578554869060001981019081106115df57fe5b60009182526020909120015470010000000000000000000000000000000090046001608060020a031693506116da565b85600081548110151561161e57fe5b6000918252602090912001546001608060020a031685101561164357600093506116da565b8554600093506000190191505b828211156116a057600260018385010104905084868281548110151561167257fe5b6000918252602090912001546001608060020a0316116116945780925061169b565b6001810391505b611650565b85838154811015156116ae57fe5b60009182526020909120015470010000000000000000000000000000000090046001608060020a031693505b50505092915050565b81546000908190158061171c5750835443908590600019810190811061170557fe5b6000918252602090912001546001608060020a0316105b1561178e578354849061173282600183016117d9565b8154811061173c57fe5b600091825260209091200180546001608060020a03858116700100000000000000000000000000000000024382166fffffffffffffffffffffffffffffffff19909316929092171617815591506117d3565b8354849060001981019081106117a057fe5b600091825260209091200180546001608060020a0380861670010000000000000000000000000000000002911617815590505b50505050565b81548183558181151161133a5760008381526020902061133a91810190830161084b91905b8082111561181257600081556001016117fe565b50905600a165627a7a723058206d88b6bd303be16fd7af11c4f798cd398d8163e2a153d3d999e839a7bf674cff0029",
  "source": "pragma solidity ^0.4.17;\n\nimport \"./MiniMeToken.sol\";\n\n/**\n * @title EthealToken\n * @dev Basic MiniMe token\n */\ncontract EthealPromoToken is MiniMeToken {\n    function EthealPromoToken(address _controller, address _tokenFactory) \n        MiniMeToken(\n            _tokenFactory,\n            0x0,                // no parent token\n            0,                  // no snapshot block number from parent\n            \"Etheal PROMO Token\",     // Token name\n            18,                 // Decimals\n            \"HealP\",             // Symbol\n            true                // Enable transfers\n        )\n    {\n        changeController(_controller);\n    }\n}",
  "sourcePath": "/Users/tikonoff/projects/etheal-contracts/contracts/EthealPromoToken.sol",
  "compiler": {
    "name": "solc",
    "version": "0.4.19+commit.c4cbbb05.Emscripten.clang"
  },
  "schemaVersion": "1.0.1",
  "updatedAt": "2018-03-13T01:01:24.792Z"
}