{
  "contractName": "EthealNormalSale",
  "abi": [
    {
      "constant": true,
      "inputs": [
        {
          "name": "_addr",
          "type": "address"
        },
        {
          "name": "_size",
          "type": "uint256"
        }
      ],
      "name": "getBonusNow",
      "outputs": [
        {
          "name": "",
          "type": "uint256"
        }
      ],
      "payable": false,
      "stateMutability": "view",
      "type": "function"
    },
    {
      "constant": false,
      "inputs": [
        {
          "name": "_addr",
          "type": "address[]"
        },
        {
          "name": "_bonus",
          "type": "uint256"
        }
      ],
      "name": "setManyBonusExtra",
      "outputs": [],
      "payable": false,
      "stateMutability": "nonpayable",
      "type": "function"
    },
    {
      "constant": false,
      "inputs": [
        {
          "name": "_whitelist",
          "type": "address"
        },
        {
          "name": "_threshold",
          "type": "uint256"
        }
      ],
      "name": "setWhitelist",
      "outputs": [],
      "payable": false,
      "stateMutability": "nonpayable",
      "type": "function"
    },
    {
      "constant": true,
      "inputs": [],
      "name": "softCapTime",
      "outputs": [
        {
          "name": "",
          "type": "uint256"
        }
      ],
      "payable": false,
      "stateMutability": "view",
      "type": "function"
    },
    {
      "constant": true,
      "inputs": [
        {
          "name": "",
          "type": "address"
        }
      ],
      "name": "stakes",
      "outputs": [
        {
          "name": "",
          "type": "uint256"
        }
      ],
      "payable": false,
      "stateMutability": "view",
      "type": "function"
    },
    {
      "constant": false,
      "inputs": [
        {
          "name": "_addr",
          "type": "address"
        },
        {
          "name": "_bonus",
          "type": "uint256"
        }
      ],
      "name": "setBonusExtra",
      "outputs": [],
      "payable": false,
      "stateMutability": "nonpayable",
      "type": "function"
    },
    {
      "constant": false,
      "inputs": [
        {
          "name": "_beneficiary",
          "type": "address"
        },
        {
          "name": "_time",
          "type": "uint256"
        },
        {
          "name": "_whitelistSign",
          "type": "bytes"
        }
      ],
      "name": "depositEth",
      "outputs": [],
      "payable": true,
      "stateMutability": "payable",
      "type": "function"
    },
    {
      "constant": false,
      "inputs": [
        {
          "name": "_startTime",
          "type": "uint256"
        },
        {
          "name": "_endTime",
          "type": "uint256"
        }
      ],
      "name": "setTimes",
      "outputs": [],
      "payable": false,
      "stateMutability": "nonpayable",
      "type": "function"
    },
    {
      "constant": true,
      "inputs": [],
      "name": "getHealBalance",
      "outputs": [
        {
          "name": "",
          "type": "uint256"
        }
      ],
      "payable": false,
      "stateMutability": "view",
      "type": "function"
    },
    {
      "constant": true,
      "inputs": [
        {
          "name": "_time",
          "type": "uint256"
        }
      ],
      "name": "getSaleHour",
      "outputs": [
        {
          "name": "",
          "type": "uint256"
        }
      ],
      "payable": false,
      "stateMutability": "view",
      "type": "function"
    },
    {
      "constant": true,
      "inputs": [],
      "name": "rate",
      "outputs": [
        {
          "name": "",
          "type": "uint256"
        }
      ],
      "payable": false,
      "stateMutability": "view",
      "type": "function"
    },
    {
      "constant": true,
      "inputs": [],
      "name": "endTime",
      "outputs": [
        {
          "name": "",
          "type": "uint256"
        }
      ],
      "payable": false,
      "stateMutability": "view",
      "type": "function"
    },
    {
      "constant": true,
      "inputs": [
        {
          "name": "_pending",
          "type": "bool"
        },
        {
          "name": "_claimed",
          "type": "bool"
        }
      ],
      "name": "getContributors",
      "outputs": [
        {
          "name": "contributors",
          "type": "address[]"
        }
      ],
      "payable": false,
      "stateMutability": "view",
      "type": "function"
    },
    {
      "constant": false,
      "inputs": [
        {
          "name": "_rate",
          "type": "uint256"
        }
      ],
      "name": "setRate",
      "outputs": [],
      "payable": false,
      "stateMutability": "nonpayable",
      "type": "function"
    },
    {
      "constant": true,
      "inputs": [],
      "name": "cap",
      "outputs": [
        {
          "name": "",
          "type": "uint256"
        }
      ],
      "payable": false,
      "stateMutability": "view",
      "type": "function"
    },
    {
      "constant": false,
      "inputs": [
        {
          "name": "_deposit",
          "type": "address"
        }
      ],
      "name": "setDeposit",
      "outputs": [],
      "payable": false,
      "stateMutability": "nonpayable",
      "type": "function"
    },
    {
      "constant": false,
      "inputs": [],
      "name": "unpause",
      "outputs": [],
      "payable": false,
      "stateMutability": "nonpayable",
      "type": "function"
    },
    {
      "constant": true,
      "inputs": [],
      "name": "weiRaised",
      "outputs": [
        {
          "name": "",
          "type": "uint256"
        }
      ],
      "payable": false,
      "stateMutability": "view",
      "type": "function"
    },
    {
      "constant": true,
      "inputs": [
        {
          "name": "",
          "type": "address"
        }
      ],
      "name": "contributions",
      "outputs": [
        {
          "name": "",
          "type": "uint256"
        }
      ],
      "payable": false,
      "stateMutability": "view",
      "type": "function"
    },
    {
      "constant": false,
      "inputs": [],
      "name": "claimToken",
      "outputs": [],
      "payable": false,
      "stateMutability": "nonpayable",
      "type": "function"
    },
    {
      "constant": true,
      "inputs": [],
      "name": "hasStarted",
      "outputs": [
        {
          "name": "",
          "type": "bool"
        }
      ],
      "payable": false,
      "stateMutability": "view",
      "type": "function"
    },
    {
      "constant": true,
      "inputs": [
        {
          "name": "",
          "type": "uint256"
        }
      ],
      "name": "contributorsKeys",
      "outputs": [
        {
          "name": "",
          "type": "address"
        }
      ],
      "payable": false,
      "stateMutability": "view",
      "type": "function"
    },
    {
      "constant": false,
      "inputs": [
        {
          "name": "_minContribution",
          "type": "uint256"
        }
      ],
      "name": "setMinContribution",
      "outputs": [],
      "payable": false,
      "stateMutability": "nonpayable",
      "type": "function"
    },
    {
      "constant": false,
      "inputs": [],
      "name": "finalize",
      "outputs": [],
      "payable": false,
      "stateMutability": "nonpayable",
      "type": "function"
    },
    {
      "constant": true,
      "inputs": [],
      "name": "tokenSold",
      "outputs": [
        {
          "name": "",
          "type": "uint256"
        }
      ],
      "payable": false,
      "stateMutability": "view",
      "type": "function"
    },
    {
      "constant": true,
      "inputs": [],
      "name": "wallet",
      "outputs": [
        {
          "name": "",
          "type": "address"
        }
      ],
      "payable": false,
      "stateMutability": "view",
      "type": "function"
    },
    {
      "constant": false,
      "inputs": [
        {
          "name": "_beneficiaries",
          "type": "address[]"
        }
      ],
      "name": "claimManyTokenFor",
      "outputs": [],
      "payable": false,
      "stateMutability": "nonpayable",
      "type": "function"
    },
    {
      "constant": true,
      "inputs": [],
      "name": "howMuchCanIContributeNow",
      "outputs": [
        {
          "name": "",
          "type": "uint256"
        }
      ],
      "payable": false,
      "stateMutability": "view",
      "type": "function"
    },
    {
      "constant": true,
      "inputs": [],
      "name": "paused",
      "outputs": [
        {
          "name": "",
          "type": "bool"
        }
      ],
      "payable": false,
      "stateMutability": "view",
      "type": "function"
    },
    {
      "constant": false,
      "inputs": [
        {
          "name": "_beneficiary",
          "type": "address"
        },
        {
          "name": "_amount",
          "type": "uint256"
        },
        {
          "name": "_time",
          "type": "uint256"
        },
        {
          "name": "_whitelistSign",
          "type": "bytes"
        }
      ],
      "name": "depositOffchain",
      "outputs": [],
      "payable": false,
      "stateMutability": "nonpayable",
      "type": "function"
    },
    {
      "constant": true,
      "inputs": [],
      "name": "startTime",
      "outputs": [
        {
          "name": "",
          "type": "uint256"
        }
      ],
      "payable": false,
      "stateMutability": "view",
      "type": "function"
    },
    {
      "constant": true,
      "inputs": [
        {
          "name": "_addr",
          "type": "address"
        },
        {
          "name": "_size",
          "type": "uint256"
        },
        {
          "name": "_time",
          "type": "uint256"
        }
      ],
      "name": "getBonus",
      "outputs": [
        {
          "name": "_bonus",
          "type": "uint256"
        }
      ],
      "payable": false,
      "stateMutability": "view",
      "type": "function"
    },
    {
      "constant": true,
      "inputs": [],
      "name": "ethealController",
      "outputs": [
        {
          "name": "",
          "type": "address"
        }
      ],
      "payable": false,
      "stateMutability": "view",
      "type": "function"
    },
    {
      "constant": false,
      "inputs": [],
      "name": "pause",
      "outputs": [],
      "payable": false,
      "stateMutability": "nonpayable",
      "type": "function"
    },
    {
      "constant": true,
      "inputs": [],
      "name": "isFinalized",
      "outputs": [
        {
          "name": "",
          "type": "bool"
        }
      ],
      "payable": false,
      "stateMutability": "view",
      "type": "function"
    },
    {
      "constant": true,
      "inputs": [],
      "name": "owner",
      "outputs": [
        {
          "name": "",
          "type": "address"
        }
      ],
      "payable": false,
      "stateMutability": "view",
      "type": "function"
    },
    {
      "constant": true,
      "inputs": [],
      "name": "softCap",
      "outputs": [
        {
          "name": "",
          "type": "uint256"
        }
      ],
      "payable": false,
      "stateMutability": "view",
      "type": "function"
    },
    {
      "constant": true,
      "inputs": [],
      "name": "whitelist",
      "outputs": [
        {
          "name": "",
          "type": "address"
        }
      ],
      "payable": false,
      "stateMutability": "view",
      "type": "function"
    },
    {
      "constant": true,
      "inputs": [],
      "name": "tokenBalance",
      "outputs": [
        {
          "name": "",
          "type": "uint256"
        }
      ],
      "payable": false,
      "stateMutability": "view",
      "type": "function"
    },
    {
      "constant": false,
      "inputs": [
        {
          "name": "_addr",
          "type": "address"
        }
      ],
      "name": "setPromoBonus",
      "outputs": [],
      "payable": false,
      "stateMutability": "nonpayable",
      "type": "function"
    },
    {
      "constant": true,
      "inputs": [],
      "name": "getSaleDayNow",
      "outputs": [
        {
          "name": "",
          "type": "uint256"
        }
      ],
      "payable": false,
      "stateMutability": "view",
      "type": "function"
    },
    {
      "constant": true,
      "inputs": [],
      "name": "minContribution",
      "outputs": [
        {
          "name": "",
          "type": "uint256"
        }
      ],
      "payable": false,
      "stateMutability": "view",
      "type": "function"
    },
    {
      "constant": true,
      "inputs": [
        {
          "name": "",
          "type": "address"
        }
      ],
      "name": "bonusExtra",
      "outputs": [
        {
          "name": "",
          "type": "uint256"
        }
      ],
      "payable": false,
      "stateMutability": "view",
      "type": "function"
    },
    {
      "constant": true,
      "inputs": [],
      "name": "softCapClose",
      "outputs": [
        {
          "name": "",
          "type": "uint256"
        }
      ],
      "payable": false,
      "stateMutability": "view",
      "type": "function"
    },
    {
      "constant": false,
      "inputs": [
        {
          "name": "_beneficiary",
          "type": "address"
        },
        {
          "name": "_whitelistSign",
          "type": "bytes"
        }
      ],
      "name": "buyTokens",
      "outputs": [],
      "payable": true,
      "stateMutability": "payable",
      "type": "function"
    },
    {
      "constant": true,
      "inputs": [],
      "name": "getSaleHourNow",
      "outputs": [
        {
          "name": "",
          "type": "uint256"
        }
      ],
      "payable": false,
      "stateMutability": "view",
      "type": "function"
    },
    {
      "constant": true,
      "inputs": [],
      "name": "whitelistThreshold",
      "outputs": [
        {
          "name": "",
          "type": "uint256"
        }
      ],
      "payable": false,
      "stateMutability": "view",
      "type": "function"
    },
    {
      "constant": true,
      "inputs": [
        {
          "name": "_beneficiary",
          "type": "address"
        }
      ],
      "name": "howMuchCanXContributeNow",
      "outputs": [
        {
          "name": "",
          "type": "uint256"
        }
      ],
      "payable": false,
      "stateMutability": "view",
      "type": "function"
    },
    {
      "constant": false,
      "inputs": [
        {
          "name": "_addr",
          "type": "address"
        }
      ],
      "name": "setPromoTokenController",
      "outputs": [],
      "payable": false,
      "stateMutability": "nonpayable",
      "type": "function"
    },
    {
      "constant": true,
      "inputs": [],
      "name": "promoTokenController",
      "outputs": [
        {
          "name": "",
          "type": "address"
        }
      ],
      "payable": false,
      "stateMutability": "view",
      "type": "function"
    },
    {
      "constant": true,
      "inputs": [
        {
          "name": "_time",
          "type": "uint256"
        }
      ],
      "name": "getSaleDay",
      "outputs": [
        {
          "name": "",
          "type": "uint256"
        }
      ],
      "payable": false,
      "stateMutability": "view",
      "type": "function"
    },
    {
      "constant": false,
      "inputs": [
        {
          "name": "_beneficiary",
          "type": "address"
        }
      ],
      "name": "claimTokenFor",
      "outputs": [],
      "payable": false,
      "stateMutability": "nonpayable",
      "type": "function"
    },
    {
      "constant": false,
      "inputs": [
        {
          "name": "_softCap",
          "type": "uint256"
        },
        {
          "name": "_softCapTime",
          "type": "uint256"
        },
        {
          "name": "_cap",
          "type": "uint256"
        }
      ],
      "name": "setCaps",
      "outputs": [],
      "payable": false,
      "stateMutability": "nonpayable",
      "type": "function"
    },
    {
      "constant": true,
      "inputs": [],
      "name": "deposit",
      "outputs": [
        {
          "name": "",
          "type": "address"
        }
      ],
      "payable": false,
      "stateMutability": "view",
      "type": "function"
    },
    {
      "constant": false,
      "inputs": [
        {
          "name": "_beneficiary",
          "type": "address"
        }
      ],
      "name": "buyTokens",
      "outputs": [],
      "payable": true,
      "stateMutability": "payable",
      "type": "function"
    },
    {
      "constant": true,
      "inputs": [],
      "name": "hasEnded",
      "outputs": [
        {
          "name": "",
          "type": "bool"
        }
      ],
      "payable": false,
      "stateMutability": "view",
      "type": "function"
    },
    {
      "constant": false,
      "inputs": [
        {
          "name": "newOwner",
          "type": "address"
        }
      ],
      "name": "transferOwnership",
      "outputs": [],
      "payable": false,
      "stateMutability": "nonpayable",
      "type": "function"
    },
    {
      "constant": true,
      "inputs": [],
      "name": "token",
      "outputs": [
        {
          "name": "",
          "type": "address"
        }
      ],
      "payable": false,
      "stateMutability": "view",
      "type": "function"
    },
    {
      "constant": true,
      "inputs": [],
      "name": "getContributorsCount",
      "outputs": [
        {
          "name": "",
          "type": "uint256"
        }
      ],
      "payable": false,
      "stateMutability": "view",
      "type": "function"
    },
    {
      "inputs": [
        {
          "name": "_ethealController",
          "type": "address"
        },
        {
          "name": "_startTime",
          "type": "uint256"
        },
        {
          "name": "_endTime",
          "type": "uint256"
        },
        {
          "name": "_minContribution",
          "type": "uint256"
        },
        {
          "name": "_rate",
          "type": "uint256"
        },
        {
          "name": "_softCap",
          "type": "uint256"
        },
        {
          "name": "_softCapTime",
          "type": "uint256"
        },
        {
          "name": "_cap",
          "type": "uint256"
        },
        {
          "name": "_wallet",
          "type": "address"
        }
      ],
      "payable": false,
      "stateMutability": "nonpayable",
      "type": "constructor"
    },
    {
      "payable": true,
      "stateMutability": "payable",
      "type": "fallback"
    },
    {
      "anonymous": false,
      "inputs": [
        {
          "indexed": true,
          "name": "_claimer",
          "type": "address"
        },
        {
          "indexed": true,
          "name": "_beneficiary",
          "type": "address"
        },
        {
          "indexed": false,
          "name": "_amount",
          "type": "uint256"
        }
      ],
      "name": "TokenClaimed",
      "type": "event"
    },
    {
      "anonymous": false,
      "inputs": [
        {
          "indexed": true,
          "name": "_purchaser",
          "type": "address"
        },
        {
          "indexed": true,
          "name": "_beneficiary",
          "type": "address"
        },
        {
          "indexed": false,
          "name": "_value",
          "type": "uint256"
        },
        {
          "indexed": false,
          "name": "_amount",
          "type": "uint256"
        },
        {
          "indexed": false,
          "name": "_participants",
          "type": "uint256"
        },
        {
          "indexed": false,
          "name": "_weiRaised",
          "type": "uint256"
        }
      ],
      "name": "TokenPurchase",
      "type": "event"
    },
    {
      "anonymous": false,
      "inputs": [
        {
          "indexed": false,
          "name": "_closeTime",
          "type": "uint256"
        }
      ],
      "name": "TokenSoftCapReached",
      "type": "event"
    },
    {
      "anonymous": false,
      "inputs": [],
      "name": "TokenHardCapReached",
      "type": "event"
    },
    {
      "anonymous": false,
      "inputs": [],
      "name": "Finalized",
      "type": "event"
    },
    {
      "anonymous": false,
      "inputs": [],
      "name": "Pause",
      "type": "event"
    },
    {
      "anonymous": false,
      "inputs": [],
      "name": "Unpause",
      "type": "event"
    },
    {
      "anonymous": false,
      "inputs": [
        {
          "indexed": true,
          "name": "previousOwner",
          "type": "address"
        },
        {
          "indexed": true,
          "name": "newOwner",
          "type": "address"
        }
      ],
      "name": "OwnershipTransferred",
      "type": "event"
    },
    {
      "anonymous": false,
      "inputs": [
        {
          "indexed": true,
          "name": "purchaser",
          "type": "address"
        },
        {
          "indexed": true,
          "name": "beneficiary",
          "type": "address"
        },
        {
          "indexed": false,
          "name": "value",
          "type": "uint256"
        },
        {
          "indexed": false,
          "name": "amount",
          "type": "uint256"
        }
      ],
      "name": "TokenPurchase",
      "type": "event"
    }
  ],
  "bytecode": "0x60606040526006805460a060020a61ffff02191690556102bc600955690170a0f5040e50400000600a5562069780600b55690307345d9b5a55f00000600d5567016345785d8a0000601055670de0b6b3a764000060125534156200006257600080fd5b604051610120806200229283398101604052808051919060200180519190602001805191906020018051919060200180519190602001805191906020018051919060200180519190602001805191508290508888878442841015620000c657600080fd5b83831015620000d457600080fd5b60008211620000e257600080fd5b600160a060020a0381161515620000f857600080fd5b60019390935560029190915560045560038054600160a060020a0319908116600160a060020a03938416179091556006805490911633909216919091179055600081116200014557600080fd5b600755600160a060020a03891615156200015e57600080fd5b60088054600160a060020a031916600160a060020a038b16179055818411156200018757600080fd5b50600a92909255600b55600d556009556010555050506120e580620001ad6000396000f3006060604052600436106102a55763ffffffff60e060020a6000350416630bf5361381146102b05780630e288064146102e45780631302d03a1461030657806314cf12d51461032857806316934fc41461033b57806320f320d01461035a5780632109cf801461037c57806322434836146103d657806323867979146103ef5780632674899b146104025780632c4e722e146104185780633197cbb61461042b578063332e1a811461043e57806334fcf437146104ae578063355274ea146104c45780633b80938e146104d75780633f4ba83a146104f65780634042b66f1461050957806342e94c901461051c5780634451d89f1461053b57806344691f7e1461054e57806344a2d0d214610575578063473b0d46146105a75780634bb278f3146105bd578063519ee19e146105d0578063521eb273146105e35780635549563c146105f657806356afd6e3146106145780635c975abb1461062757806376cfc3661461063a57806378e97925146106a257806379544754146106b557806379caf670146106da5780638456cb59146106ed5780638d4e4083146107005780638da5cb5b14610713578063906a26e01461072657806393e59dc1146107395780639e1a4d191461074c578063a09f874f1461075f578063a7a957ff1461077e578063aaffadf314610791578063ab01ba49146107a4578063ad1be7c1146107c3578063b3746849146107d6578063b56797fd1461082a578063b5dadb171461083d578063bdcbd9d114610850578063c00757721461086f578063c04ecdb81461088e578063c7efa689146108a1578063c83261bd146108b7578063caefb79e146108d6578063d0e30db0146108f2578063ec8ac4d814610905578063ecb70fb714610919578063f2fde38b1461092c578063fc0c546a1461094b578063feed55611461095e575b6102ae33610971565b005b34156102bb57600080fd5b6102d2600160a060020a03600435166024356109a5565b60405190815260200160405180910390f35b34156102ef57600080fd5b6102ae6024600480358281019291013590356109b9565b341561031157600080fd5b6102ae600160a060020a0360043516602435610a16565b341561033357600080fd5b6102d2610a6f565b341561034657600080fd5b6102d2600160a060020a0360043516610a75565b341561036557600080fd5b6102ae600160a060020a0360043516602435610a87565b6102ae60048035600160a060020a03169060248035919060649060443590810190830135806020601f82018190048102016040519081016040528181529291906020840183838082843750949650610ad395505050505050565b34156103e157600080fd5b6102ae600435602435610b16565b34156103fa57600080fd5b6102d2610b49565b341561040d57600080fd5b6102d2600435610c24565b341561042357600080fd5b6102d2610c78565b341561043657600080fd5b6102d2610c7e565b341561044957600080fd5b61045b60043515156024351515610c84565b60405160208082528190810183818151815260200191508051906020019060200280838360005b8381101561049a578082015183820152602001610482565b505050509050019250505060405180910390f35b34156104b957600080fd5b6102ae600435610e34565b34156104cf57600080fd5b6102d2610e61565b34156104e257600080fd5b6102ae600160a060020a0360043516610e67565b341561050157600080fd5b6102ae610eb1565b341561051457600080fd5b6102d2610f30565b341561052757600080fd5b6102d2600160a060020a0360043516610f36565b341561054657600080fd5b6102ae610f48565b341561055957600080fd5b610561610f6b565b604051901515815260200160405180910390f35b341561058057600080fd5b61058b600435610f74565b604051600160a060020a03909116815260200160405180910390f35b34156105b257600080fd5b6102ae600435610f9c565b34156105c857600080fd5b6102ae610fbc565b34156105db57600080fd5b6102d261105c565b34156105ee57600080fd5b61058b611062565b341561060157600080fd5b6102ae6004803560248101910135611071565b341561061f57600080fd5b6102d26110c4565b341561063257600080fd5b6105616110d4565b341561064557600080fd5b6102ae60048035600160a060020a03169060248035916044359160849060643590810190830135806020601f820181900481020160405190810160405281815292919060208401838380828437509496506110e495505050505050565b34156106ad57600080fd5b6102d2611129565b34156106c057600080fd5b6102d2600160a060020a036004351660243560443561112f565b34156106e557600080fd5b61058b6112d1565b34156106f857600080fd5b6102ae6112e0565b341561070b57600080fd5b610561611364565b341561071e57600080fd5b61058b611374565b341561073157600080fd5b6102d2611383565b341561074457600080fd5b61058b611389565b341561075757600080fd5b6102d2611398565b341561076a57600080fd5b6102ae600160a060020a036004351661139e565b341561078957600080fd5b6102d2611413565b341561079c57600080fd5b6102d261141e565b34156107af57600080fd5b6102d2600160a060020a0360043516611424565b34156107ce57600080fd5b6102d2611436565b6102ae60048035600160a060020a03169060446024803590810190830135806020601f8201819004810201604051908101604052818152929190602084018383808284375094965061143c95505050505050565b341561083557600080fd5b6102d2611463565b341561084857600080fd5b6102d261146e565b341561085b57600080fd5b6102d2600160a060020a0360043516611474565b341561087a57600080fd5b6102ae600160a060020a03600435166114cb565b341561089957600080fd5b61058b61152a565b34156108ac57600080fd5b6102d2600435611539565b34156108c257600080fd5b6102ae600160a060020a0360043516611569565b34156108e157600080fd5b6102ae60043560243560443561178b565b34156108fd57600080fd5b61058b6117c1565b6102ae600160a060020a0360043516610971565b341561092457600080fd5b6105616117d0565b341561093757600080fd5b6102ae600160a060020a03600435166117f6565b341561095657600080fd5b61058b611891565b341561096957600080fd5b6102d26118a0565b60065460a060020a900460ff161561098857600080fd5b6109a28134426020604051908101604052600081526118a6565b50565b60006109b283834261112f565b9392505050565b60065460009033600160a060020a039081169116146109d757600080fd5b5060005b82811015610a1057610a088484838181106109f257fe5b90506020020135600160a060020a031683610a87565b6001016109db565b50505050565b60065433600160a060020a03908116911614610a3157600080fd5b600160a060020a03821615610a69576011805473ffffffffffffffffffffffffffffffffffffffff1916600160a060020a0384161790555b60125550565b600b5481565b60146020526000908152604090205481565b60065433600160a060020a03908116911614610aa257600080fd5b600160a060020a0382161515610ab757600080fd5b600160a060020a03909116600090815260176020526040902055565b60065460a060020a900460ff1615610aea57600080fd5b60135433600160a060020a03908116911614610b0557600080fd5b610b11833484846118a6565b505050565b60065433600160a060020a03908116911614610b3157600080fd5b80821115610b3e57600080fd5b600191909155600255565b600854600090600160a060020a03166303d756cb82604051602001526040518163ffffffff1660e060020a028152600401602060405180830381600087803b1515610b9357600080fd5b6102c65a03f11515610ba457600080fd5b50505060405180519050600160a060020a03166370a082313060006040516020015260405160e060020a63ffffffff8416028152600160a060020a039091166004820152602401602060405180830381600087803b1515610c0457600080fd5b6102c65a03f11515610c1557600080fd5b50505060405180519150505b90565b6001546000908190831115610c6e57610c6b6001610c5f610e10610c536001548861192990919063ffffffff16565b9063ffffffff61193b16565b9063ffffffff61195216565b90505b8091505b50919050565b60095481565b60025481565b610c8c61206a565b600080610c9761206a565b60185460009350839250604051805910610cae5750595b90808252806020026020018201604052509050600092505b601854831015610db957858015610d145750600060146000601886815481101515610ced57fe5b6000918252602080832090910154600160a060020a03168352820192909252604001902054115b80610d5c5750848015610d5c575060146000601885815481101515610d3557fe5b6000918252602080832090910154600160a060020a03168352820192909252604001902054155b15610dae576018805484908110610d6f57fe5b600091825260209091200154600160a060020a0316818381518110610d9057fe5b600160a060020a039092166020928302909101909101526001909101905b600190920191610cc6565b81604051805910610dc75750595b90808252806020026020018201604052509350600092505b81831015610e2b57808381518110610df357fe5b90602001906020020151848481518110610e0957fe5b600160a060020a03909216602092830290910190910152600190920191610ddf565b50505092915050565b60065433600160a060020a03908116911614610e4f57600080fd5b60008111610e5c57600080fd5b600955565b600d5481565b60065433600160a060020a03908116911614610e8257600080fd5b6013805473ffffffffffffffffffffffffffffffffffffffff1916600160a060020a0392909216919091179055565b60065433600160a060020a03908116911614610ecc57600080fd5b60065460a060020a900460ff161515610ee457600080fd5b6006805474ff0000000000000000000000000000000000000000191690557f7805862f689e2f13df9f062ff482ad3ad112aca9e0847911ed832e158c525b3360405160405180910390a1565b60055481565b60156020526000908152604090205481565b60065460a860020a900460ff161515610f6057600080fd5b610f6933611569565b565b60015442101590565b6018805482908110610f8257fe5b600091825260209091200154600160a060020a0316905081565b60065433600160a060020a03908116911614610fb757600080fd5b601055565b60065433600160a060020a03908116911614610fd757600080fd5b60065460a860020a900460ff1615610fee57600080fd5b610ff66117d0565b151561100157600080fd5b611009611961565b7f6823b073d48d6e3a7d385eeb601452d680e74bb46afe3255a7d778f3a9b1768160405160405180910390a16006805475ff000000000000000000000000000000000000000000191660a860020a179055565b600f5481565b600354600160a060020a031681565b60065460009060a860020a900460ff16151561108c57600080fd5b5060005b81811015610b11576110bc8383838181106110a757fe5b90506020020135600160a060020a0316611569565b600101611090565b60006110cf33611474565b905090565b60065460a060020a900460ff1681565b60065433600160a060020a039081169116146110ff57600080fd5b60065460a060020a900460ff161561111657600080fd5b61112284848484611b32565b5050505050565b60015481565b606460008061113d84611539565b915061114884610c24565b90506001821161118f5760018111611163576082925061118a565b6005811161117457607d925061118a565b60088111611185576078925061118a565b607692505b611279565b600282116111a05760749250611279565b600382116111b15760739250611279565b600582116111c25760729250611279565b600782116111d35760719250611279565b600982116111e45760709250611279565b600b82116111f557606f9250611279565b600d821161120657606e9250611279565b600f821161121757606c9250611279565b6011821161122857606b9250611279565b6013821161123957606a9250611279565b6015821161124a5760699250611279565b6017821161125b5760689250611279565b6019821161126c5760679250611279565b601b821161127957606692505b68056bc75e2d631000008510611294578260040192506112aa565b678ac7230489e8000085106112aa578260020192505b600160a060020a038616600090815260176020526040902054929092019150509392505050565b600854600160a060020a031681565b60065433600160a060020a039081169116146112fb57600080fd5b60065460a060020a900460ff161561131257600080fd5b6006805474ff0000000000000000000000000000000000000000191660a060020a1790557f6985a02210a168e66602d3235cb6db0e70f92b3ba4d376a33c0f3d9434bff62560405160405180910390a1565b60065460a860020a900460ff1681565b600654600160a060020a031681565b600a5481565b601154600160a060020a031681565b600e5481565b60165433600160a060020a03908116911614806113c9575060065433600160a060020a039081169116145b15156113d457600080fd5b600160a060020a03811660009081526017602052604090205460059010156109a257600160a060020a0316600090815260176020526040902060059055565b60006110cf42611539565b60105481565b60176020526000908152604090205481565b600c5481565b60065460a060020a900460ff161561145357600080fd5b61145f823442846118a6565b5050565b60006110cf42610c24565b60125481565b600080600160a060020a038316151561148c57600080fd5b6114946117d0565b806114a8575060065460a060020a900460ff165b156114b65760009150610c72565b600554600d54610c6b9163ffffffff61192916565b60065433600160a060020a039081169116146114e657600080fd5b600160a060020a03811615156114fb57600080fd5b6016805473ffffffffffffffffffffffffffffffffffffffff1916600160a060020a0392909216919091179055565b601654600160a060020a031681565b6001546000908190831115610c6e57610c6b6001610c5f62015180610c536001548861192990919063ffffffff16565b60065460009060a860020a900460ff16151561158457600080fd5b60065460a060020a900460ff161561159b57600080fd5b50600160a060020a0381166000908152601460205260408120549081116115c157600080fd5b600160a060020a038216600090815260146020526040812055600e546115ed908263ffffffff61192916565b600e55600854600160a060020a03166393a378da838360405160e060020a63ffffffff8516028152600160a060020a0390921660048301526024820152604401600060405180830381600087803b151561164657600080fd5b6102c65a03f1151561165757600080fd5b5050600854600160a060020a031690506303d756cb6000604051602001526040518163ffffffff1660e060020a028152600401602060405180830381600087803b15156116a357600080fd5b6102c65a03f115156116b457600080fd5b50505060405180519050600160a060020a031663a9059cbb838360006040516020015260405160e060020a63ffffffff8516028152600160a060020a0390921660048301526024820152604401602060405180830381600087803b151561171a57600080fd5b6102c65a03f1151561172b57600080fd5b50505060405180519050151561174057600080fd5b81600160a060020a031633600160a060020a03167f4831bdd9dcf3048a28319ce81d3cab7a15366bcf449bc7803a539107440809cc8360405190815260200160405180910390a35050565b60065433600160a060020a039081169116146117a657600080fd5b808311156117b357600080fd5b600a92909255600b55600d55565b601354600160a060020a031681565b60006117da611c38565b806110cf57506000600c541180156110cf575050600c54421190565b60065433600160a060020a0390811691161461181157600080fd5b600160a060020a038116151561182657600080fd5b600654600160a060020a0380831691167f8be0079c531659141344cd1fd0a4f28419497f9722a3daafe3b4186f6b6457e060405160405180910390a36006805473ffffffffffffffffffffffffffffffffffffffff1916600160a060020a0392909216919091179055565b600054600160a060020a031681565b60185490565b600080600160a060020a03861615156118be57600080fd5b6118ca86868686611b32565b91506118d582611c50565b6118e5858363ffffffff61192916565b9050600081111561192157600160a060020a03861681156108fc0282604051600060405180830381858888f19350505050151561192157600080fd5b505050505050565b60008282111561193557fe5b50900390565b600080828481151561194957fe5b04949350505050565b6000828201838110156109b257fe5b600061196b610b49565b600e54600f819055909150811115611ac957600854600160a060020a03166303d756cb6000604051602001526040518163ffffffff1660e060020a028152600401602060405180830381600087803b15156119c557600080fd5b6102c65a03f115156119d657600080fd5b5050506040518051600854600160a060020a03918216925063a9059cbb9116634db08aea6000604051602001526040518163ffffffff1660e060020a028152600401602060405180830381600087803b1515611a3157600080fd5b6102c65a03f11515611a4257600080fd5b50505060405180519050611a61600e548561192990919063ffffffff16565b60006040516020015260405160e060020a63ffffffff8516028152600160a060020a0390921660048301526024820152604401602060405180830381600087803b1515611aad57600080fd5b6102c65a03f11515611abe57600080fd5b505050604051805150505b600854600160a060020a031663b0e9a1ef62127500420160405160e060020a63ffffffff84160281526004810191909152602401600060405180830381600087803b1515611b1657600080fd5b6102c65a03f11515611b2757600080fd5b5050506109a2610f69565b60008080600160a060020a0387161515611b4b57600080fd5b611b5487611474565b9150611b608287611c83565b9050611b6e87828787611c92565b600554611b81908263ffffffff61195216565b6005819055600a549010801590611b985750600c54155b15611bf657600b54611bb190429063ffffffff61195216565b600c8190556002547f8061a159b48a33a206e3cc24cce73cc3a0f5004baf555a87beb12402203bc18c91611be491611c83565b60405190815260200160405180910390a15b600d5460055410611c2e577f88b44a5c3985d84f29a974395516f83cb69570f0bab6d515ad43612b0c8c783760405160405180910390a15b9695505050505050565b6000611c42611ff7565b806110cf57506110cf611fff565b600354600160a060020a031681156108fc0282604051600060405180830381858888f1935050505015156109a257600080fd5b6000818311610c7257826109b2565b600080600160a060020a0386161515611caa57600080fd5b611cb38561200a565b1515611cbe57600080fd5b600160a060020a038616600090815260156020526040902054611ce7908663ffffffff61195216565b600160a060020a038716600090815260156020526040902081905560125490111580611d835750601154600160a060020a0316633af32abf8760006040516020015260405160e060020a63ffffffff8416028152600160a060020a039091166004820152602401602060405180830381600087803b1515611d6757600080fd5b6102c65a03f11515611d7857600080fd5b505050604051805190505b80611e745750601154600160a060020a031663a30bdea487856000604051602001526040518363ffffffff1660e060020a0281526004018083600160a060020a0316600160a060020a0316815260200180602001828103825283818151815260200191508051906020019080838360005b83811015611e0c578082015183820152602001611df4565b50505050905090810190601f168015611e395780820380516001836020036101000a031916815260200191505b509350505050602060405180830381600087803b1515611e5857600080fd5b6102c65a03f11515611e6957600080fd5b505050604051805190505b1515611e7f57600080fd5b611e8a86868661112f565b9150611eb66064610c5384611eaa6009548a61204690919063ffffffff16565b9063ffffffff61204616565b600e54909150611ecc908263ffffffff61195216565b600e55600160a060020a0386166000908152601460205260409020541515611f33576018805460018101611f00838261207c565b506000918252602090912001805473ffffffffffffffffffffffffffffffffffffffff1916600160a060020a0388161790555b600160a060020a038616600090815260146020526040902054611f5c908263ffffffff61195216565b6014600088600160a060020a0316600160a060020a031681526020019081526020016000208190555085600160a060020a031633600160a060020a03167fc29b8032387f267ddc010037627574acbf3b1a65a6022ca8ba6c25f0ba85ee7587846018805490506005546040518085815260200184815260200183815260200182815260200194505050505060405180910390a3505050505050565b600254421190565b600754600554101590565b6000806000806120186117d0565b1592508460001415915060105485101590508280156120345750815b801561203d5750805b95945050505050565b6000828202831580612062575082848281151561205f57fe5b04145b15156109b257fe5b60206040519081016040526000815290565b815481835581811511610b1157600083815260209020610b11918101908301610c2191905b808211156120b557600081556001016120a1565b50905600a165627a7a72305820f5d0d81712f38587a80e2c04ddb3214e7fc7381559d806c0da9d1e2143aeaa4b0029",
  "source": "pragma solidity ^0.4.18;\n\n// File: contracts/Controlled.sol\n\ncontract Controlled {\n    /// @notice The address of the controller is the only address that can call\n    ///  a function with this modifier\n    modifier onlyController { require(msg.sender == controller); _; }\n\n    address public controller;\n\n    function Controlled() public { controller = msg.sender;}\n\n    /// @notice Changes the controller of the contract\n    /// @param _newController The new controller of the contract\n    function changeController(address _newController) public onlyController {\n        controller = _newController;\n    }\n}\n\n// File: contracts/ERC20.sol\n\n/**\n * @title ERC20\n * @dev ERC20 interface\n */\ncontract ERC20 {\n    function balanceOf(address who) public constant returns (uint256);\n    function transfer(address to, uint256 value) public returns (bool);\n    function allowance(address owner, address spender) public constant returns (uint256);\n    function transferFrom(address from, address to, uint256 value) public returns (bool);\n    function approve(address spender, uint256 value) public returns (bool);\n    event Transfer(address indexed from, address indexed to, uint256 value);\n    event Approval(address indexed owner, address indexed spender, uint256 value);\n}\n\n// File: contracts/ERC20MiniMe.sol\n\n/**\n * @title MiniMe interface\n * @dev see https://github.com/ethereum/EIPs/issues/20\n */\ncontract ERC20MiniMe is ERC20, Controlled {\n    function approveAndCall(address _spender, uint256 _amount, bytes _extraData) public returns (bool);\n    function totalSupply() public constant returns (uint);\n    function balanceOfAt(address _owner, uint _blockNumber) public constant returns (uint);\n    function totalSupplyAt(uint _blockNumber) public constant returns(uint);\n    function createCloneToken(string _cloneTokenName, uint8 _cloneDecimalUnits, string _cloneTokenSymbol, uint _snapshotBlock, bool _transfersEnabled) public returns(address);\n    function generateTokens(address _owner, uint _amount) public returns (bool);\n    function destroyTokens(address _owner, uint _amount)  public returns (bool);\n    function enableTransfers(bool _transfersEnabled) public;\n    function isContract(address _addr) constant internal returns(bool);\n    function claimTokens(address _token) public;\n    event ClaimedTokens(address indexed _token, address indexed _controller, uint _amount);\n    event NewCloneToken(address indexed _cloneToken, uint _snapshotBlock);\n}\n\n// File: contracts/SafeMath.sol\n\n/**\n * @title SafeMath\n * @dev Math operations with safety checks that throw on error\n */\nlibrary SafeMath {\n  function mul(uint256 a, uint256 b) internal pure returns (uint256) {\n    uint256 c = a * b;\n    assert(a == 0 || c / a == b);\n    return c;\n  }\n\n  function div(uint256 a, uint256 b) internal pure returns (uint256) {\n    // assert(b > 0); // Solidity automatically throws when dividing by 0\n    uint256 c = a / b;\n    // assert(a == b * c + a % b); // There is no case in which this doesn't hold\n    return c;\n  }\n\n  function sub(uint256 a, uint256 b) internal pure returns (uint256) {\n    assert(b <= a);\n    return a - b;\n  }\n\n  function add(uint256 a, uint256 b) internal pure returns (uint256) {\n    uint256 c = a + b;\n    assert(c >= a);\n    return c;\n  }\n}\n\n// File: contracts/Crowdsale.sol\n\n/**\n * @title Crowdsale\n * @dev Crowdsale is a base contract for managing a token crowdsale.\n * Crowdsales have a start and end timestamps, where investors can make\n * token purchases and the crowdsale will assign them tokens based\n * on a token per ETH rate. Funds collected are forwarded to a wallet\n * as they arrive.\n */\ncontract Crowdsale {\n  using SafeMath for uint256;\n\n  // The token being sold\n  ERC20MiniMe public token;\n\n  // start and end timestamps where investments are allowed (both inclusive)\n  uint256 public startTime;\n  uint256 public endTime;\n\n  // address where funds are collected\n  address public wallet;\n\n  // how many token units a buyer gets per wei\n  uint256 public rate;\n\n  // amount of raised money in wei\n  uint256 public weiRaised;\n\n  /**\n   * event for token purchase logging\n   * @param purchaser who paid for the tokens\n   * @param beneficiary who got the tokens\n   * @param value weis paid for purchase\n   * @param amount amount of tokens purchased\n   */\n  event TokenPurchase(address indexed purchaser, address indexed beneficiary, uint256 value, uint256 amount);\n\n\n  function Crowdsale(uint256 _startTime, uint256 _endTime, uint256 _rate, address _wallet) {\n    require(_startTime >= now);\n    require(_endTime >= _startTime);\n    require(_rate > 0);\n    require(_wallet != 0x0);\n\n    startTime = _startTime;\n    endTime = _endTime;\n    rate = _rate;\n    wallet = _wallet;\n  }\n\n\n  // fallback function can be used to buy tokens\n  function () payable {\n    buyTokens(msg.sender);\n  }\n\n  // low level token purchase function\n  function buyTokens(address beneficiary) public payable {\n    buyTokens(beneficiary, msg.value);\n  }\n\n  // implementation of low level token purchase function\n  function buyTokens(address beneficiary, uint256 weiAmount) internal {\n    require(beneficiary != 0x0);\n    require(validPurchase(weiAmount));\n\n    transferToken(beneficiary, weiAmount);\n\n    // update state\n    weiRaised = weiRaised.add(weiAmount);\n\n    forwardFunds(weiAmount);\n  }\n\n  // low level transfer token\n  // override to create custom token transfer mechanism, eg. pull pattern\n  function transferToken(address beneficiary, uint256 weiAmount) internal {\n    // calculate token amount to be created\n    uint256 tokens = weiAmount.mul(rate);\n\n    token.generateTokens(beneficiary, tokens);\n\n    TokenPurchase(msg.sender, beneficiary, weiAmount, tokens);\n  }\n\n  // send ether to the fund collection wallet\n  // override to create custom fund forwarding mechanisms\n  function forwardFunds(uint256 weiAmount) internal {\n    wallet.transfer(weiAmount);\n  }\n\n  // @return true if the transaction can buy tokens\n  function validPurchase(uint256 weiAmount) internal constant returns (bool) {\n    bool withinPeriod = now >= startTime && now <= endTime;\n    bool nonZeroPurchase = weiAmount != 0;\n    return withinPeriod && nonZeroPurchase;\n  }\n\n  // @return true if crowdsale event has ended\n  function hasEnded() public constant returns (bool) {\n    return now > endTime;\n  }\n\n  // @return true if crowdsale has started\n  function hasStarted() public constant returns (bool) {\n    return now >= startTime;\n  }\n}\n\n// File: contracts/CappedCrowdsale.sol\n\n/**\n * @title CappedCrowdsale\n * @dev Extension of Crowdsale with a max amount of funds raised\n */\ncontract CappedCrowdsale is Crowdsale {\n  using SafeMath for uint256;\n\n  uint256 public cap;\n\n  function CappedCrowdsale(uint256 _cap) {\n    require(_cap > 0);\n    cap = _cap;\n  }\n\n  // overriding Crowdsale#validPurchase to add extra cap logic\n  // @return true if investors can buy at the moment\n  function validPurchase(uint256 weiAmount) internal constant returns (bool) {\n    return super.validPurchase(weiAmount) && !capReached();\n  }\n\n  // overriding Crowdsale#hasEnded to add cap logic\n  // @return true if crowdsale event has ended\n  function hasEnded() public constant returns (bool) {\n    return super.hasEnded() || capReached();\n  }\n\n  // @return true if cap has been reached\n  function capReached() internal constant returns (bool) {\n   return weiRaised >= cap;\n  }\n\n  // overriding Crowdsale#buyTokens to add partial refund logic\n  function buyTokens(address beneficiary) public payable {\n     uint256 weiToCap = cap.sub(weiRaised);\n     uint256 weiAmount = weiToCap < msg.value ? weiToCap : msg.value;\n\n     buyTokens(beneficiary, weiAmount);\n\n     uint256 refund = msg.value.sub(weiAmount);\n     if (refund > 0) {\n       msg.sender.transfer(refund);\n     }\n   }\n}\n\n// File: contracts/ECRecovery.sol\n\n/**\n * @title Eliptic curve signature operations\n *\n * @dev Based on https://gist.github.com/axic/5b33912c6f61ae6fd96d6c4a47afde6d\n */\n\nlibrary ECRecovery {\n\n  /**\n   * @dev Recover signer address from a message by using his signature\n   * @param hash bytes32 message, the hash is the signed message. What is recovered is the signer address.\n   * @param sig bytes signature, the signature is generated using web3.eth.sign()\n   */\n  function recover(bytes32 hash, bytes sig) public pure returns (address) {\n    bytes32 r;\n    bytes32 s;\n    uint8 v;\n\n    //Check the signature length\n    if (sig.length != 65) {\n      return (address(0));\n    }\n\n    // Divide the signature in r, s and v variables\n    assembly {\n      r := mload(add(sig, 32))\n      s := mload(add(sig, 64))\n      v := byte(0, mload(add(sig, 96)))\n    }\n\n    // Version of signature should be 27 or 28, but 0 and 1 are also possible versions\n    if (v < 27) {\n      v += 27;\n    }\n\n    // If the version is correct return the signer address\n    if (v != 27 && v != 28) {\n      return (address(0));\n    } else {\n      return ecrecover(hash, v, r, s);\n    }\n  }\n\n}\n\n// File: contracts/Ownable.sol\n\n/**\n * @title Ownable\n * @dev The Ownable contract has an owner address, and provides basic authorization control\n * functions, this simplifies the implementation of \"user permissions\".\n */\ncontract Ownable {\n  address public owner;\n\n\n  event OwnershipTransferred(address indexed previousOwner, address indexed newOwner);\n\n\n  /**\n   * @dev The Ownable constructor sets the original `owner` of the contract to the sender\n   * account.\n   */\n  function Ownable() {\n    owner = msg.sender;\n  }\n\n\n  /**\n   * @dev Throws if called by any account other than the owner.\n   */\n  modifier onlyOwner() {\n    require(msg.sender == owner);\n    _;\n  }\n\n\n  /**\n   * @dev Allows the current owner to transfer control of the contract to a newOwner.\n   * @param newOwner The address to transfer ownership to.\n   */\n  function transferOwnership(address newOwner) onlyOwner public {\n    require(newOwner != address(0));\n    OwnershipTransferred(owner, newOwner);\n    owner = newOwner;\n  }\n\n}\n\n// File: contracts/EthealWhitelist.sol\n\n/**\n * @title EthealWhitelist\n * @author thesved\n * @notice EthealWhitelist contract which handles KYC\n */\ncontract EthealWhitelist is Ownable {\n    using ECRecovery for bytes32;\n\n    // signer address for offchain whitelist signing\n    address public signer;\n\n    // storing whitelisted addresses\n    mapping(address => bool) public isWhitelisted;\n\n    event WhitelistSet(address indexed _address, bool _state);\n\n    ////////////////\n    // Constructor\n    ////////////////\n    function EthealWhitelist(address _signer) {\n        require(_signer != address(0));\n\n        signer = _signer;\n    }\n\n    /// @notice set signing address after deployment\n    function setSigner(address _signer) public onlyOwner {\n        require(_signer != address(0));\n\n        signer = _signer;\n    }\n\n    ////////////////\n    // Whitelisting: only owner\n    ////////////////\n\n    ///@notice Set whitelist state for an address.\n    function setWhitelist(address _addr, bool _state) public onlyOwner {\n        require(_addr != address(0));\n        isWhitelisted[_addr] = _state;\n        WhitelistSet(_addr, _state);\n    }\n\n    ///@notice Set whitelist state for multiple addresses\n    function setManyWhitelist(address[] _addr, bool _state) public onlyOwner {\n        for (uint256 i = 0; i < _addr.length; i++) {\n            setWhitelist(_addr[i], _state);\n        }\n    }\n\n    /// @notice offchain whitelist check\n    function isOffchainWhitelisted(address _addr, bytes _sig) public view returns (bool) {\n        bytes32 hash = keccak256(\"\\x19Ethereum Signed Message:\\n20\",_addr);\n        return hash.recover(_sig) == signer;\n    }\n}\n\n// File: contracts/FinalizableCrowdsale.sol\n\n/**\n * @title FinalizableCrowdsale\n * @dev Extension of Crowdsale where an owner can do extra work\n * after finishing.\n */\ncontract FinalizableCrowdsale is Crowdsale, Ownable {\n  using SafeMath for uint256;\n\n  bool public isFinalized = false;\n\n  event Finalized();\n\n  /**\n   * @dev Must be called after crowdsale ends, to do some extra finalization\n   * work. Calls the contract's finalization function.\n   */\n  function finalize() onlyOwner public {\n    require(!isFinalized);\n    require(hasEnded());\n\n    finalization();\n    Finalized();\n\n    isFinalized = true;\n  }\n\n  /**\n   * @dev Can be overridden to add finalization logic. The overriding function\n   * should call super.finalization() to ensure the chain of finalization is\n   * executed entirely.\n   */\n  function finalization() internal {\n  }\n}\n\n// File: contracts/Pausable.sol\n\n/**\n * @title Pausable\n * @dev Base contract which allows children to implement an emergency stop mechanism.\n */\ncontract Pausable is Ownable {\n  event Pause();\n  event Unpause();\n\n  bool public paused = false;\n\n\n  /**\n   * @dev Modifier to make a function callable only when the contract is not paused.\n   */\n  modifier whenNotPaused() {\n    require(!paused);\n    _;\n  }\n\n  /**\n   * @dev Modifier to make a function callable only when the contract is paused.\n   */\n  modifier whenPaused() {\n    require(paused);\n    _;\n  }\n\n  /**\n   * @dev called by the owner to pause, triggers stopped state\n   */\n  function pause() onlyOwner whenNotPaused public {\n    paused = true;\n    Pause();\n  }\n\n  /**\n   * @dev called by the owner to unpause, returns to normal state\n   */\n  function unpause() onlyOwner whenPaused public {\n    paused = false;\n    Unpause();\n  }\n}\n\n// File: contracts/TokenController.sol\n\n/// @dev The token controller contract must implement these functions\ncontract TokenController {\n    ERC20MiniMe public ethealToken;\n    address public SALE; // address where sale tokens are located\n\n    /// @notice needed for hodler handling\n    function addHodlerStake(address _beneficiary, uint _stake) public;\n    function setHodlerStake(address _beneficiary, uint256 _stake) public;\n    function setHodlerTime(uint256 _time) public;\n\n\n    /// @notice Called when `_owner` sends ether to the MiniMe Token contract\n    /// @param _owner The address that sent the ether to create tokens\n    /// @return True if the ether is accepted, false if it throws\n    function proxyPayment(address _owner) public payable returns(bool);\n\n    /// @notice Notifies the controller about a token transfer allowing the\n    ///  controller to react if desired\n    /// @param _from The origin of the transfer\n    /// @param _to The destination of the transfer\n    /// @param _amount The amount of the transfer\n    /// @return False if the controller does not authorize the transfer\n    function onTransfer(address _from, address _to, uint _amount) public returns(bool);\n\n    /// @notice Notifies the controller about an approval allowing the\n    ///  controller to react if desired\n    /// @param _owner The address that calls `approve()`\n    /// @param _spender The spender in the `approve()` call\n    /// @param _amount The amount in the `approve()` call\n    /// @return False if the controller does not authorize the approval\n    function onApprove(address _owner, address _spender, uint _amount) public returns(bool);\n}\n\n// File: contracts/EthealNormalSale.sol\n\n/**\n * @title EthealNormalSale\n * @author thesved\n * @notice Etheal Token Sale contract, with softcap and hardcap (cap)\n * @dev This contract has to be finalized before token claims are enabled\n */\ncontract EthealNormalSale is Pausable, FinalizableCrowdsale, CappedCrowdsale {\n    // the token is here\n    TokenController public ethealController;\n\n    // after reaching {weiRaised} >= {softCap}, there is {softCapTime} seconds until the sale closes\n    // {softCapClose} contains the closing time\n    uint256 public rate = 700;\n    uint256 public softCap = 6800 ether;\n    uint256 public softCapTime = 120 hours;\n    uint256 public softCapClose;\n    uint256 public cap = 14300 ether;\n\n    // how many token is sold and not claimed, used for refunding to token controller\n    uint256 public tokenBalance;\n\n    // total token sold\n    uint256 public tokenSold;\n\n    // minimum contribution, 0.1ETH\n    uint256 public minContribution = 0.1 ether;\n\n    // whitelist: above threshold the contract has to approve each transaction\n    EthealWhitelist public whitelist;\n    uint256 public whitelistThreshold = 1 ether;\n\n    // deposit address from which it can get funds before sale\n    address public deposit;\n    \n    // stakes contains token bought and contirbutions contains the value in wei\n    mapping (address => uint256) public stakes;\n    mapping (address => uint256) public contributions;\n\n    // promo token bonus\n    address public promoTokenController;\n    mapping (address => uint256) public bonusExtra;\n\n    // addresses of contributors to handle finalization after token sale end (refunds or token claims)\n    address[] public contributorsKeys; \n\n    // events for token purchase during sale and claiming tokens after sale\n    event TokenClaimed(address indexed _claimer, address indexed _beneficiary, uint256 _amount);\n    event TokenPurchase(address indexed _purchaser, address indexed _beneficiary, uint256 _value, uint256 _amount, uint256 _participants, uint256 _weiRaised);\n    event TokenSoftCapReached(uint256 _closeTime);\n    event TokenHardCapReached();\n\n    ////////////////\n    // Constructor and inherited function overrides\n    ////////////////\n\n    /// @notice Constructor to create PreSale contract\n    /// @param _ethealController Address of ethealController\n    /// @param _startTime The start time of token sale in seconds.\n    /// @param _endTime The end time of token sale in seconds.\n    /// @param _minContribution The minimum contribution per transaction in wei (0.1 ETH)\n    /// @param _rate Number of HEAL tokens per 1 ETH\n    /// @param _softCap Softcap in wei, reaching it ends the sale in _softCapTime seconds\n    /// @param _softCapTime Seconds until the sale remains open after reaching _softCap\n    /// @param _cap Maximum cap in wei, we can't raise more funds\n    /// @param _wallet Address of multisig wallet, which will get all the funds after successful sale\n    function EthealNormalSale(\n        address _ethealController,\n        uint256 _startTime, \n        uint256 _endTime, \n        uint256 _minContribution, \n        uint256 _rate, \n        uint256 _softCap, \n        uint256 _softCapTime, \n        uint256 _cap, \n        address _wallet\n    )\n        CappedCrowdsale(_cap)\n        FinalizableCrowdsale()\n        Crowdsale(_startTime, _endTime, _rate, _wallet)\n    {\n        // ethealController must be valid\n        require(_ethealController != address(0));\n        ethealController = TokenController(_ethealController);\n\n        // caps have to be consistent with each other\n        require(_softCap <= _cap);\n        softCap = _softCap;\n        softCapTime = _softCapTime;\n\n        // this is needed since super constructor wont overwite overriden variables\n        cap = _cap;\n        rate = _rate;\n\n        minContribution = _minContribution;\n    }\n\n    ////////////////\n    // Administer contract details\n    ////////////////\n\n    /// @notice Sets min contribution\n    function setMinContribution(uint256 _minContribution) public onlyOwner {\n        minContribution = _minContribution;\n    }\n\n    /// @notice Sets soft cap and max cap\n    function setCaps(uint256 _softCap, uint256 _softCapTime, uint256 _cap) public onlyOwner {\n        require(_softCap <= _cap);\n        softCap = _softCap;\n        softCapTime = _softCapTime;\n        cap = _cap;\n    }\n\n    /// @notice Sets crowdsale start and end time\n    function setTimes(uint256 _startTime, uint256 _endTime) public onlyOwner {\n        require(_startTime <= _endTime);\n        startTime = _startTime;\n        endTime = _endTime;\n    }\n\n    /// @notice Set rate\n    function setRate(uint256 _rate) public onlyOwner {\n        require(_rate > 0);\n        rate = _rate;\n    }\n\n    /// @notice Set address of promo token\n    function setPromoTokenController(address _addr) public onlyOwner {\n        require(_addr != address(0));\n        promoTokenController = _addr;\n    }\n\n    /// @notice Set whitelist contract address and minimum threshold\n    function setWhitelist(address _whitelist, uint256 _threshold) public onlyOwner {\n        // if whitelist contract address is provided we set it\n        if (_whitelist != address(0)) {\n            whitelist = EthealWhitelist(_whitelist);\n        }\n        whitelistThreshold = _threshold;\n    }\n\n    /// @notice Set deposit contract address from which it can receive money before sale\n    function setDeposit(address _deposit) public onlyOwner {\n        deposit = _deposit;\n    }\n\n    ////////////////\n    // Purchase functions\n    ////////////////\n\n    /// @dev Overriding Crowdsale#buyTokens to add partial refund\n    /// @param _beneficiary Beneficiary of the token purchase\n    function buyTokens(address _beneficiary) public payable whenNotPaused {\n        handlePayment(_beneficiary, msg.value, now, \"\");\n    }\n\n    /// @dev buying tokens for someone with offchain whitelist signature\n    function buyTokens(address _beneficiary, bytes _whitelistSign) public payable whenNotPaused {\n        handlePayment(_beneficiary, msg.value, now, _whitelistSign);\n    }\n\n    /// @dev Internal function for handling transactions with ether.\n    function handlePayment(address _beneficiary, uint256 _amount, uint256 _time, bytes memory _whitelistSign) internal {\n        require(_beneficiary != address(0));\n\n        uint256 weiAmount = handleContribution(_beneficiary, _amount, _time, _whitelistSign);      \n        forwardFunds(weiAmount);  \n\n        // handle refund excess tokens\n        uint256 refund = _amount.sub(weiAmount);\n        if (refund > 0) {\n            _beneficiary.transfer(refund);\n        }\n    }\n\n    /// @dev Handling the amount of contribution and cap logic. Internal function.\n    /// @return Wei successfully contributed.\n    function handleContribution(address _beneficiary, uint256 _amount, uint256 _time, bytes memory _whitelistSign) internal returns (uint256) {\n        require(_beneficiary != address(0));\n\n        uint256 weiToCap = howMuchCanXContributeNow(_beneficiary);\n        uint256 weiAmount = uint256Min(weiToCap, _amount);\n\n        // account the new contribution \n        transferToken(_beneficiary, weiAmount, _time, _whitelistSign);\n        weiRaised = weiRaised.add(weiAmount);\n\n        // close sale in softCapTime seconds after reaching softCap\n        if (weiRaised >= softCap && softCapClose == 0) {\n            softCapClose = now.add(softCapTime);\n            TokenSoftCapReached(uint256Min(softCapClose, endTime));\n        }\n\n        // event for hard cap reached\n        if (weiRaised >= cap) {\n            TokenHardCapReached();\n        }\n\n        return weiAmount;\n    }\n\n    /// @dev Handling token distribution and accounting. Overriding Crowdsale#transferToken.\n    /// @param _beneficiary Address of the recepient of the tokens\n    /// @param _weiAmount Contribution in wei\n    /// @param _time When the contribution was made\n    function transferToken(address _beneficiary, uint256 _weiAmount, uint256 _time, bytes memory _whitelistSign) internal {\n        require(_beneficiary != address(0));\n        require(validPurchase(_weiAmount));\n\n        // require whitelist above threshold\n        contributions[_beneficiary] = contributions[_beneficiary].add(_weiAmount);\n        require(contributions[_beneficiary] <= whitelistThreshold \n                || whitelist.isWhitelisted(_beneficiary)\n                || whitelist.isOffchainWhitelisted(_beneficiary, _whitelistSign)\n        );\n\n        // calculate tokens, so we can refund excess tokens to EthealController after token sale\n        uint256 _bonus = getBonus(_beneficiary, _weiAmount, _time);\n        uint256 tokens = _weiAmount.mul(rate).mul(_bonus).div(100);\n        tokenBalance = tokenBalance.add(tokens);\n\n        if (stakes[_beneficiary] == 0) {\n            contributorsKeys.push(_beneficiary);\n        }\n        stakes[_beneficiary] = stakes[_beneficiary].add(tokens);\n\n        TokenPurchase(msg.sender, _beneficiary, _weiAmount, tokens, contributorsKeys.length, weiRaised);\n    }\n\n    /// @dev Get eth deposit from Deposit contract\n    function depositEth(address _beneficiary, uint256 _time, bytes _whitelistSign) public payable whenNotPaused {\n        require(msg.sender == deposit);\n\n        handlePayment(_beneficiary, msg.value, _time, _whitelistSign);\n    }\n\n    /// @dev Deposit from other currencies\n    function depositOffchain(address _beneficiary, uint256 _amount, uint256 _time, bytes _whitelistSign) public onlyOwner whenNotPaused {\n        handleContribution(_beneficiary, _amount, _time, _whitelistSign);\n    }\n\n    /// @dev Overriding Crowdsale#validPurchase to add min contribution logic\n    /// @param _weiAmount Contribution amount in wei\n    /// @return true if contribution is okay\n    function validPurchase(uint256 _weiAmount) internal constant returns (bool) {\n        bool nonEnded = !hasEnded();\n        bool nonZero = _weiAmount != 0;\n        bool enoughContribution = _weiAmount >= minContribution;\n        return nonEnded && nonZero && enoughContribution;\n    }\n\n    /// @dev Overriding Crowdsale#hasEnded to add soft cap logic\n    /// @return true if crowdsale event has ended or a softCapClose time is set and passed\n    function hasEnded() public constant returns (bool) {\n        return super.hasEnded() || softCapClose > 0 && now > softCapClose;\n    }\n\n    /// @dev Extending RefundableCrowdsale#finalization sending back excess tokens to ethealController\n    function finalization() internal {\n        uint256 _balance = getHealBalance();\n\n        // saving token balance for future reference\n        tokenSold = tokenBalance; \n\n        // send back the excess token to ethealController\n        if (_balance > tokenBalance) {\n            ethealController.ethealToken().transfer(ethealController.SALE(), _balance.sub(tokenBalance));\n        }\n\n        // hodler stake counting starts 14 days after closing normal sale\n        ethealController.setHodlerTime(now + 14 days);\n\n        super.finalization();\n    }\n\n\n    ////////////////\n    // AFTER token sale\n    ////////////////\n\n    /// @notice Modifier for after sale finalization\n    modifier afterSale() {\n        require(isFinalized);\n        _;\n    }\n\n    /// @notice Claim token for msg.sender after token sale based on stake.\n    function claimToken() public afterSale {\n        claimTokenFor(msg.sender);\n    }\n\n    /// @notice Claim token after token sale based on stake.\n    /// @dev Anyone can call this function and distribute tokens after successful token sale\n    /// @param _beneficiary Address of the beneficiary who gets the token\n    function claimTokenFor(address _beneficiary) public afterSale whenNotPaused {\n        uint256 tokens = stakes[_beneficiary];\n        require(tokens > 0);\n\n        // set the stake 0 for beneficiary\n        stakes[_beneficiary] = 0;\n\n        // decrease tokenBalance, to make it possible to withdraw excess HEAL funds\n        tokenBalance = tokenBalance.sub(tokens);\n\n        // distribute hodlr stake\n        ethealController.addHodlerStake(_beneficiary, tokens);\n\n        // distribute token\n        require(ethealController.ethealToken().transfer(_beneficiary, tokens));\n        TokenClaimed(msg.sender, _beneficiary, tokens);\n    }\n\n    /// @notice claimToken() for multiple addresses\n    /// @dev Anyone can call this function and distribute tokens after successful token sale\n    /// @param _beneficiaries Array of addresses for which we want to claim tokens\n    function claimManyTokenFor(address[] _beneficiaries) external afterSale {\n        for (uint256 i = 0; i < _beneficiaries.length; i++) {\n            claimTokenFor(_beneficiaries[i]);\n        }\n    }\n\n\n    ////////////////\n    // Bonus functions\n    ////////////////\n\n    /// @notice Sets extra 5% bonus for those addresses who send back a promo token\n    ///@param _addr this address gets the bonus\n    function setPromoBonus(address _addr) public {\n        require(msg.sender == promoTokenController || msg.sender == owner);\n        if (bonusExtra[ _addr ] < 5)\n            bonusExtra[ _addr ] = 5;\n    }\n\n    /// @notice Manual set extra bonus for addresses\n    function setBonusExtra(address _addr, uint256 _bonus) public onlyOwner {\n        require(_addr != address(0));\n        bonusExtra[_addr] = _bonus;\n    }\n\n    /// @notice Mass set extra bonus for addresses\n    function setManyBonusExtra(address[] _addr, uint256 _bonus) external onlyOwner {\n        for (uint256 i = 0; i < _addr.length; i++) {\n            setBonusExtra(_addr[i],_bonus);\n        }\n    }\n\n    /// @notice Returns bonus for now\n    function getBonusNow(address _addr, uint256 _size) public view returns (uint256) {\n        return getBonus(_addr, _size, now);\n    }\n\n    /// @notice Returns the bonus in percentage, eg 130 means 30% bonus\n    function getBonus(address _addr, uint256 _size, uint256 _time) public view returns (uint256 _bonus) {\n        // detailed bonus structure: https://etheal.com/#heal-token\n        _bonus = 100;\n        \n        // time based bonuses\n        uint256 _day = getSaleDay(_time);\n        uint256 _hour = getSaleHour(_time);\n        if (_day <= 1) {\n            if (_hour <= 1) _bonus = 130;\n            else if (_hour <= 5) _bonus = 125;\n            else if (_hour <= 8) _bonus = 120;\n            else _bonus = 118;\n        } \n        else if (_day <= 2) { _bonus = 116; }\n        else if (_day <= 3) { _bonus = 115; }\n        else if (_day <= 5) { _bonus = 114; }\n        else if (_day <= 7) { _bonus = 113; }\n        else if (_day <= 9) { _bonus = 112; }\n        else if (_day <= 11) { _bonus = 111; }\n        else if (_day <= 13) { _bonus = 110; }\n        else if (_day <= 15) { _bonus = 108; }\n        else if (_day <= 17) { _bonus = 107; }\n        else if (_day <= 19) { _bonus = 106; }\n        else if (_day <= 21) { _bonus = 105; }\n        else if (_day <= 23) { _bonus = 104; }\n        else if (_day <= 25) { _bonus = 103; }\n        else if (_day <= 27) { _bonus = 102; }\n\n        // size based bonuses\n        if (_size >= 100 ether) { _bonus = _bonus + 4; }\n        else if (_size >= 10 ether) { _bonus = _bonus + 2; }\n\n        // manual bonus\n        _bonus += bonusExtra[ _addr ];\n\n        return _bonus;\n    }\n\n\n    ////////////////\n    // Constant, helper functions\n    ////////////////\n\n    /// @notice How many wei can the msg.sender contribute now.\n    function howMuchCanIContributeNow() view public returns (uint256) {\n        return howMuchCanXContributeNow(msg.sender);\n    }\n\n    /// @notice How many wei can an ethereum address contribute now.\n    /// @param _beneficiary Ethereum address\n    /// @return Number of wei the _beneficiary can contribute now.\n    function howMuchCanXContributeNow(address _beneficiary) view public returns (uint256) {\n        require(_beneficiary != address(0));\n\n        if (hasEnded() || paused) \n            return 0;\n\n        // wei to hard cap\n        uint256 weiToCap = cap.sub(weiRaised);\n\n        return weiToCap;\n    }\n\n    /// @notice For a give date how many 24 hour blocks have ellapsed since token sale start\n    ///  Before sale return 0, first day 1, second day 2, ...\n    /// @param _time Date in seconds for which we want to know which sale day it is\n    /// @return Number of 24 hour blocks ellapsing since token sale start starting from 1\n    function getSaleDay(uint256 _time) view public returns (uint256) {\n        uint256 _day = 0;\n        if (_time > startTime) {\n            _day = _time.sub(startTime).div(60*60*24).add(1);\n        }\n        return _day;\n    }\n\n    /// @notice How many 24 hour blocks have ellapsed since token sale start\n    /// @return Number of 24 hour blocks ellapsing since token sale start starting from 1\n    function getSaleDayNow() view public returns (uint256) {\n        return getSaleDay(now);\n    }\n\n    /// @notice Returns sale hour: 0 before sale, 1 for the first hour, ...\n    /// @param _time Date in seconds for which we want to know which sale hour it is\n    /// @return Number of 1 hour blocks ellapsing since token sale start starting from 1\n    function getSaleHour(uint256 _time) view public returns (uint256) {\n        uint256 _hour = 0;\n        if (_time > startTime) {\n            _hour = _time.sub(startTime).div(60*60).add(1);\n        }\n        return _hour;\n    }\n\n    /// @notice How many 1 hour blocks have ellapsed since token sale start\n    /// @return Number of 1 hour blocks ellapsing since token sale start starting from 1\n    function getSaleHourNow() view public returns (uint256) {\n        return getSaleHour(now);\n    }\n\n    /// @notice Minimum between two uint256 numbers\n    function uint256Min(uint256 a, uint256 b) pure internal returns (uint256) {\n        return a > b ? b : a;\n    }\n\n\n    ////////////////\n    // Test and contribution web app, NO audit is needed\n    ////////////////\n\n    /// @notice How many contributors we have.\n    /// @return Number of different contributor ethereum addresses\n    function getContributorsCount() view public returns (uint256) {\n        return contributorsKeys.length;\n    }\n\n    /// @notice Get contributor addresses to manage refunds or token claims.\n    /// @dev If the sale is not yet successful, then it searches in the RefundVault.\n    ///  If the sale is successful, it searches in contributors.\n    /// @param _pending If true, then returns addresses which didn't get their tokens distributed to them\n    /// @param _claimed If true, then returns already distributed addresses\n    /// @return Array of addresses of contributors\n    function getContributors(bool _pending, bool _claimed) view public returns (address[] contributors) {\n        uint256 i = 0;\n        uint256 results = 0;\n        address[] memory _contributors = new address[](contributorsKeys.length);\n\n        // search in contributors\n        for (i = 0; i < contributorsKeys.length; i++) {\n            if (_pending && stakes[contributorsKeys[i]] > 0 || _claimed && stakes[contributorsKeys[i]] == 0) {\n                _contributors[results] = contributorsKeys[i];\n                results++;\n            }\n        }\n\n        contributors = new address[](results);\n        for (i = 0; i < results; i++) {\n            contributors[i] = _contributors[i];\n        }\n\n        return contributors;\n    }\n\n    /// @notice How many HEAL tokens do this contract have\n    function getHealBalance() view public returns (uint256) {\n        return ethealController.ethealToken().balanceOf(address(this));\n    }\n}\n",
  "sourcePath": "/Users/tikonoff/projects/etheal-contracts/contracts/flattened/FlattenedEthealNormalSale.sol",
  "compiler": {
    "name": "solc",
    "version": "0.4.19+commit.c4cbbb05.Emscripten.clang"
  },
  "schemaVersion": "1.0.1",
  "updatedAt": "2018-03-13T01:01:24.831Z"
}