{
  "contractName": "EthealPreSale",
  "abi": [
    {
      "constant": true,
      "inputs": [],
      "name": "softCapTime",
      "outputs": [
        {
          "name": "",
          "type": "uint256"
        }
      ],
      "payable": false,
      "stateMutability": "view",
      "type": "function"
    },
    {
      "constant": true,
      "inputs": [
        {
          "name": "",
          "type": "address"
        }
      ],
      "name": "stakes",
      "outputs": [
        {
          "name": "",
          "type": "uint256"
        }
      ],
      "payable": false,
      "stateMutability": "view",
      "type": "function"
    },
    {
      "constant": true,
      "inputs": [],
      "name": "maxGasPricePenalty",
      "outputs": [
        {
          "name": "",
          "type": "uint256"
        }
      ],
      "payable": false,
      "stateMutability": "view",
      "type": "function"
    },
    {
      "constant": true,
      "inputs": [],
      "name": "rate",
      "outputs": [
        {
          "name": "",
          "type": "uint256"
        }
      ],
      "payable": false,
      "stateMutability": "view",
      "type": "function"
    },
    {
      "constant": true,
      "inputs": [],
      "name": "endTime",
      "outputs": [
        {
          "name": "",
          "type": "uint256"
        }
      ],
      "payable": false,
      "stateMutability": "view",
      "type": "function"
    },
    {
      "constant": true,
      "inputs": [],
      "name": "cap",
      "outputs": [
        {
          "name": "",
          "type": "uint256"
        }
      ],
      "payable": false,
      "stateMutability": "view",
      "type": "function"
    },
    {
      "constant": true,
      "inputs": [],
      "name": "maxGasPrice",
      "outputs": [
        {
          "name": "",
          "type": "uint256"
        }
      ],
      "payable": false,
      "stateMutability": "view",
      "type": "function"
    },
    {
      "constant": false,
      "inputs": [],
      "name": "unpause",
      "outputs": [],
      "payable": false,
      "stateMutability": "nonpayable",
      "type": "function"
    },
    {
      "constant": true,
      "inputs": [],
      "name": "goal",
      "outputs": [
        {
          "name": "",
          "type": "uint256"
        }
      ],
      "payable": false,
      "stateMutability": "view",
      "type": "function"
    },
    {
      "constant": true,
      "inputs": [],
      "name": "weiRaised",
      "outputs": [
        {
          "name": "",
          "type": "uint256"
        }
      ],
      "payable": false,
      "stateMutability": "view",
      "type": "function"
    },
    {
      "constant": true,
      "inputs": [],
      "name": "hasStarted",
      "outputs": [
        {
          "name": "",
          "type": "bool"
        }
      ],
      "payable": false,
      "stateMutability": "view",
      "type": "function"
    },
    {
      "constant": true,
      "inputs": [
        {
          "name": "",
          "type": "uint256"
        }
      ],
      "name": "contributorsKeys",
      "outputs": [
        {
          "name": "",
          "type": "address"
        }
      ],
      "payable": false,
      "stateMutability": "view",
      "type": "function"
    },
    {
      "constant": false,
      "inputs": [],
      "name": "finalize",
      "outputs": [],
      "payable": false,
      "stateMutability": "nonpayable",
      "type": "function"
    },
    {
      "constant": true,
      "inputs": [],
      "name": "tokenSold",
      "outputs": [
        {
          "name": "",
          "type": "uint256"
        }
      ],
      "payable": false,
      "stateMutability": "view",
      "type": "function"
    },
    {
      "constant": true,
      "inputs": [],
      "name": "wallet",
      "outputs": [
        {
          "name": "",
          "type": "address"
        }
      ],
      "payable": false,
      "stateMutability": "view",
      "type": "function"
    },
    {
      "constant": true,
      "inputs": [],
      "name": "paused",
      "outputs": [
        {
          "name": "",
          "type": "bool"
        }
      ],
      "payable": false,
      "stateMutability": "view",
      "type": "function"
    },
    {
      "constant": true,
      "inputs": [],
      "name": "startTime",
      "outputs": [
        {
          "name": "",
          "type": "uint256"
        }
      ],
      "payable": false,
      "stateMutability": "view",
      "type": "function"
    },
    {
      "constant": true,
      "inputs": [],
      "name": "ethealController",
      "outputs": [
        {
          "name": "",
          "type": "address"
        }
      ],
      "payable": false,
      "stateMutability": "view",
      "type": "function"
    },
    {
      "constant": true,
      "inputs": [],
      "name": "goalReached",
      "outputs": [
        {
          "name": "",
          "type": "bool"
        }
      ],
      "payable": false,
      "stateMutability": "view",
      "type": "function"
    },
    {
      "constant": false,
      "inputs": [],
      "name": "pause",
      "outputs": [],
      "payable": false,
      "stateMutability": "nonpayable",
      "type": "function"
    },
    {
      "constant": true,
      "inputs": [],
      "name": "whitelistDayCount",
      "outputs": [
        {
          "name": "",
          "type": "uint8"
        }
      ],
      "payable": false,
      "stateMutability": "view",
      "type": "function"
    },
    {
      "constant": true,
      "inputs": [],
      "name": "isFinalized",
      "outputs": [
        {
          "name": "",
          "type": "bool"
        }
      ],
      "payable": false,
      "stateMutability": "view",
      "type": "function"
    },
    {
      "constant": true,
      "inputs": [],
      "name": "owner",
      "outputs": [
        {
          "name": "",
          "type": "address"
        }
      ],
      "payable": false,
      "stateMutability": "view",
      "type": "function"
    },
    {
      "constant": true,
      "inputs": [],
      "name": "softCap",
      "outputs": [
        {
          "name": "",
          "type": "uint256"
        }
      ],
      "payable": false,
      "stateMutability": "view",
      "type": "function"
    },
    {
      "constant": true,
      "inputs": [
        {
          "name": "",
          "type": "address"
        }
      ],
      "name": "whitelist",
      "outputs": [
        {
          "name": "",
          "type": "bool"
        }
      ],
      "payable": false,
      "stateMutability": "view",
      "type": "function"
    },
    {
      "constant": true,
      "inputs": [],
      "name": "tokenBalance",
      "outputs": [
        {
          "name": "",
          "type": "uint256"
        }
      ],
      "payable": false,
      "stateMutability": "view",
      "type": "function"
    },
    {
      "constant": true,
      "inputs": [],
      "name": "minContribution",
      "outputs": [
        {
          "name": "",
          "type": "uint256"
        }
      ],
      "payable": false,
      "stateMutability": "view",
      "type": "function"
    },
    {
      "constant": true,
      "inputs": [],
      "name": "softCapClose",
      "outputs": [
        {
          "name": "",
          "type": "uint256"
        }
      ],
      "payable": false,
      "stateMutability": "view",
      "type": "function"
    },
    {
      "constant": true,
      "inputs": [
        {
          "name": "",
          "type": "uint8"
        }
      ],
      "name": "whitelistDayMaxStake",
      "outputs": [
        {
          "name": "",
          "type": "uint256"
        }
      ],
      "payable": false,
      "stateMutability": "view",
      "type": "function"
    },
    {
      "constant": false,
      "inputs": [
        {
          "name": "newOwner",
          "type": "address"
        }
      ],
      "name": "transferOwnership",
      "outputs": [],
      "payable": false,
      "stateMutability": "nonpayable",
      "type": "function"
    },
    {
      "constant": true,
      "inputs": [],
      "name": "vault",
      "outputs": [
        {
          "name": "",
          "type": "address"
        }
      ],
      "payable": false,
      "stateMutability": "view",
      "type": "function"
    },
    {
      "constant": true,
      "inputs": [],
      "name": "token",
      "outputs": [
        {
          "name": "",
          "type": "address"
        }
      ],
      "payable": false,
      "stateMutability": "view",
      "type": "function"
    },
    {
      "inputs": [
        {
          "name": "_ethealController",
          "type": "address"
        },
        {
          "name": "_startTime",
          "type": "uint256"
        },
        {
          "name": "_endTime",
          "type": "uint256"
        },
        {
          "name": "_minContribution",
          "type": "uint256"
        },
        {
          "name": "_rate",
          "type": "uint256"
        },
        {
          "name": "_goal",
          "type": "uint256"
        },
        {
          "name": "_softCap",
          "type": "uint256"
        },
        {
          "name": "_softCapTime",
          "type": "uint256"
        },
        {
          "name": "_cap",
          "type": "uint256"
        },
        {
          "name": "_gasPrice",
          "type": "uint256"
        },
        {
          "name": "_gasPenalty",
          "type": "uint256"
        },
        {
          "name": "_wallet",
          "type": "address"
        }
      ],
      "payable": false,
      "stateMutability": "nonpayable",
      "type": "constructor"
    },
    {
      "payable": true,
      "stateMutability": "payable",
      "type": "fallback"
    },
    {
      "anonymous": false,
      "inputs": [
        {
          "indexed": true,
          "name": "_claimer",
          "type": "address"
        },
        {
          "indexed": true,
          "name": "_beneficiary",
          "type": "address"
        },
        {
          "indexed": false,
          "name": "_stake",
          "type": "uint256"
        },
        {
          "indexed": false,
          "name": "_amount",
          "type": "uint256"
        }
      ],
      "name": "TokenClaimed",
      "type": "event"
    },
    {
      "anonymous": false,
      "inputs": [
        {
          "indexed": true,
          "name": "_purchaser",
          "type": "address"
        },
        {
          "indexed": true,
          "name": "_beneficiary",
          "type": "address"
        },
        {
          "indexed": false,
          "name": "_value",
          "type": "uint256"
        },
        {
          "indexed": false,
          "name": "_stake",
          "type": "uint256"
        },
        {
          "indexed": false,
          "name": "_amount",
          "type": "uint256"
        },
        {
          "indexed": false,
          "name": "_participants",
          "type": "uint256"
        },
        {
          "indexed": false,
          "name": "_weiRaised",
          "type": "uint256"
        }
      ],
      "name": "TokenPurchase",
      "type": "event"
    },
    {
      "anonymous": false,
      "inputs": [],
      "name": "TokenGoalReached",
      "type": "event"
    },
    {
      "anonymous": false,
      "inputs": [
        {
          "indexed": false,
          "name": "_closeTime",
          "type": "uint256"
        }
      ],
      "name": "TokenSoftCapReached",
      "type": "event"
    },
    {
      "anonymous": false,
      "inputs": [
        {
          "indexed": true,
          "name": "_whitelister",
          "type": "address"
        },
        {
          "indexed": true,
          "name": "_beneficiary",
          "type": "address"
        }
      ],
      "name": "WhitelistAddressAdded",
      "type": "event"
    },
    {
      "anonymous": false,
      "inputs": [
        {
          "indexed": true,
          "name": "_whitelister",
          "type": "address"
        },
        {
          "indexed": true,
          "name": "_beneficiary",
          "type": "address"
        }
      ],
      "name": "WhitelistAddressRemoved",
      "type": "event"
    },
    {
      "anonymous": false,
      "inputs": [
        {
          "indexed": true,
          "name": "_whitelister",
          "type": "address"
        },
        {
          "indexed": false,
          "name": "_day",
          "type": "uint8"
        },
        {
          "indexed": false,
          "name": "_maxStake",
          "type": "uint256"
        }
      ],
      "name": "WhitelistSetDay",
      "type": "event"
    },
    {
      "anonymous": false,
      "inputs": [],
      "name": "Finalized",
      "type": "event"
    },
    {
      "anonymous": false,
      "inputs": [],
      "name": "Pause",
      "type": "event"
    },
    {
      "anonymous": false,
      "inputs": [],
      "name": "Unpause",
      "type": "event"
    },
    {
      "anonymous": false,
      "inputs": [
        {
          "indexed": true,
          "name": "previousOwner",
          "type": "address"
        },
        {
          "indexed": true,
          "name": "newOwner",
          "type": "address"
        }
      ],
      "name": "OwnershipTransferred",
      "type": "event"
    },
    {
      "anonymous": false,
      "inputs": [
        {
          "indexed": true,
          "name": "purchaser",
          "type": "address"
        },
        {
          "indexed": true,
          "name": "beneficiary",
          "type": "address"
        },
        {
          "indexed": false,
          "name": "value",
          "type": "uint256"
        },
        {
          "indexed": false,
          "name": "amount",
          "type": "uint256"
        }
      ],
      "name": "TokenPurchase",
      "type": "event"
    },
    {
      "constant": false,
      "inputs": [
        {
          "name": "_beneficiary",
          "type": "address"
        }
      ],
      "name": "buyTokens",
      "outputs": [],
      "payable": true,
      "stateMutability": "payable",
      "type": "function"
    },
    {
      "constant": true,
      "inputs": [],
      "name": "hasEnded",
      "outputs": [
        {
          "name": "",
          "type": "bool"
        }
      ],
      "payable": false,
      "stateMutability": "view",
      "type": "function"
    },
    {
      "constant": false,
      "inputs": [],
      "name": "claimRefund",
      "outputs": [],
      "payable": false,
      "stateMutability": "nonpayable",
      "type": "function"
    },
    {
      "constant": false,
      "inputs": [
        {
          "name": "_add",
          "type": "address[]"
        },
        {
          "name": "_remove",
          "type": "address[]"
        },
        {
          "name": "_whitelistLimits",
          "type": "uint256[]"
        }
      ],
      "name": "setWhitelist",
      "outputs": [],
      "payable": false,
      "stateMutability": "nonpayable",
      "type": "function"
    },
    {
      "constant": false,
      "inputs": [
        {
          "name": "_maxGas",
          "type": "uint256"
        },
        {
          "name": "_penalty",
          "type": "uint256"
        }
      ],
      "name": "setMaxGas",
      "outputs": [],
      "payable": false,
      "stateMutability": "nonpayable",
      "type": "function"
    },
    {
      "constant": false,
      "inputs": [
        {
          "name": "_minContribution",
          "type": "uint256"
        }
      ],
      "name": "setMinContribution",
      "outputs": [],
      "payable": false,
      "stateMutability": "nonpayable",
      "type": "function"
    },
    {
      "constant": false,
      "inputs": [
        {
          "name": "_goal",
          "type": "uint256"
        },
        {
          "name": "_softCap",
          "type": "uint256"
        },
        {
          "name": "_softCapTime",
          "type": "uint256"
        },
        {
          "name": "_cap",
          "type": "uint256"
        }
      ],
      "name": "setCaps",
      "outputs": [],
      "payable": false,
      "stateMutability": "nonpayable",
      "type": "function"
    },
    {
      "constant": false,
      "inputs": [
        {
          "name": "_startTime",
          "type": "uint256"
        },
        {
          "name": "_endTime",
          "type": "uint256"
        }
      ],
      "name": "setTimes",
      "outputs": [],
      "payable": false,
      "stateMutability": "nonpayable",
      "type": "function"
    },
    {
      "constant": false,
      "inputs": [
        {
          "name": "_rate",
          "type": "uint256"
        }
      ],
      "name": "setRate",
      "outputs": [],
      "payable": false,
      "stateMutability": "nonpayable",
      "type": "function"
    },
    {
      "constant": false,
      "inputs": [
        {
          "name": "_beneficiary",
          "type": "address"
        }
      ],
      "name": "claimRefundFor",
      "outputs": [],
      "payable": false,
      "stateMutability": "nonpayable",
      "type": "function"
    },
    {
      "constant": false,
      "inputs": [
        {
          "name": "_beneficiaries",
          "type": "address[]"
        }
      ],
      "name": "claimRefundsFor",
      "outputs": [],
      "payable": false,
      "stateMutability": "nonpayable",
      "type": "function"
    },
    {
      "constant": false,
      "inputs": [],
      "name": "claimToken",
      "outputs": [],
      "payable": false,
      "stateMutability": "nonpayable",
      "type": "function"
    },
    {
      "constant": false,
      "inputs": [
        {
          "name": "_beneficiary",
          "type": "address"
        }
      ],
      "name": "claimTokenFor",
      "outputs": [],
      "payable": false,
      "stateMutability": "nonpayable",
      "type": "function"
    },
    {
      "constant": false,
      "inputs": [
        {
          "name": "_beneficiaries",
          "type": "address[]"
        }
      ],
      "name": "claimTokensFor",
      "outputs": [],
      "payable": false,
      "stateMutability": "nonpayable",
      "type": "function"
    },
    {
      "constant": false,
      "inputs": [
        {
          "name": "_token",
          "type": "address"
        },
        {
          "name": "_claimer",
          "type": "address"
        }
      ],
      "name": "extractVaultTokens",
      "outputs": [],
      "payable": false,
      "stateMutability": "nonpayable",
      "type": "function"
    },
    {
      "constant": true,
      "inputs": [],
      "name": "howMuchCanIContributeNow",
      "outputs": [
        {
          "name": "",
          "type": "uint256"
        }
      ],
      "payable": false,
      "stateMutability": "view",
      "type": "function"
    },
    {
      "constant": true,
      "inputs": [
        {
          "name": "_beneficiary",
          "type": "address"
        }
      ],
      "name": "howMuchCanXContributeNow",
      "outputs": [
        {
          "name": "",
          "type": "uint256"
        }
      ],
      "payable": false,
      "stateMutability": "view",
      "type": "function"
    },
    {
      "constant": true,
      "inputs": [
        {
          "name": "_time",
          "type": "uint256"
        }
      ],
      "name": "getSaleDay",
      "outputs": [
        {
          "name": "",
          "type": "uint8"
        }
      ],
      "payable": false,
      "stateMutability": "view",
      "type": "function"
    },
    {
      "constant": true,
      "inputs": [],
      "name": "getSaleDayNow",
      "outputs": [
        {
          "name": "",
          "type": "uint8"
        }
      ],
      "payable": false,
      "stateMutability": "view",
      "type": "function"
    },
    {
      "constant": true,
      "inputs": [],
      "name": "wasSuccess",
      "outputs": [
        {
          "name": "",
          "type": "bool"
        }
      ],
      "payable": false,
      "stateMutability": "view",
      "type": "function"
    },
    {
      "constant": true,
      "inputs": [],
      "name": "getContributorsCount",
      "outputs": [
        {
          "name": "",
          "type": "uint256"
        }
      ],
      "payable": false,
      "stateMutability": "view",
      "type": "function"
    },
    {
      "constant": true,
      "inputs": [
        {
          "name": "_pending",
          "type": "bool"
        },
        {
          "name": "_claimed",
          "type": "bool"
        }
      ],
      "name": "getContributors",
      "outputs": [
        {
          "name": "contributors",
          "type": "address[]"
        }
      ],
      "payable": false,
      "stateMutability": "view",
      "type": "function"
    },
    {
      "constant": true,
      "inputs": [],
      "name": "getHealBalance",
      "outputs": [
        {
          "name": "",
          "type": "uint256"
        }
      ],
      "payable": false,
      "stateMutability": "view",
      "type": "function"
    }
  ],
  "bytecode": "0x60606040526006805460a060020a60ff02191690556008805460ff191690556104e2600c5568120d4da7b0bd140000600d5568c328093e61ee400000600e5562069780600f5569018650127cc3dc80000060115564174876e800601455605060155567016345785d8a000060165534156200007957600080fd5b6040516101808062002ec58339810160405280805191906020018051919060200180519190602001805191906020018051919060200180519190602001805191906020018051919060200180519190602001805191906020018051919060200180519150879050848c8c8b8542841015620000f357600080fd5b838310156200010157600080fd5b600082116200010f57600080fd5b600160a060020a03811615156200012557600080fd5b60019390935560029190915560045560038054600160a060020a0319908116600160a060020a03938416179091556006805490911633909216919091179055600081116200017257600080fd5b600755600081116200018357600080fd5b600354600160a060020a03166200019962000257565b600160a060020a039091168152602001604051809103906000f0801515620001c057600080fd5b600a8054600160a060020a031916600160a060020a039283161790556009919091558c161515620001f057600080fd5b600b8054600160a060020a031916600160a060020a038e161790558587118015906200021c5750838611155b15156200022857600080fd5b50600e94909455600f92909255601155600d92909255600c929092556014556015556016555062000268915050565b6040516107d080620026f583390190565b61247d80620002786000396000f3006060604052600436106102795763ffffffff60e060020a60003504166314cf12d5811461028457806316934fc4146102a95780631f3dcc8d146102c857806322434836146102db57806323867979146102f45780632c4e722e146103075780632e1e786d1461031a5780633197cbb6146103e9578063332e1a81146103fc57806334fcf4371461046c578063355274ea146104825780633de39c11146104955780633f4ba83a146104a857806340193883146104bb5780634042b66f146104ce5780634451d89f146104e157806344691f7e146104f457806344a2d0d21461051b578063473b0d461461054d5780634bb278f314610563578063519ee19e14610576578063521eb2731461058957806356afd6e31461059c5780635c975abb146105af57806378e97925146105c257806379caf670146105d55780637d3d6522146105e85780638028ce6b146105fb57806382872491146106195780638456cb591461063857806384a1f5a51461064b5780638ac97efb146106695780638d4e4083146106925780638da5cb5b146106a5578063906a26e0146106b85780639615ecb2146106cb5780639b19251a146106de5780639e1a4d19146106fd578063a5beb4e514610710578063a7a957ff1461072f578063aaffadf314610742578063ad1be7c114610755578063b5545a3c14610768578063b7c4b7751461077b578063bdcbd9d114610794578063c7efa689146107b3578063c83261bd146107c9578063da5e9c62146107e8578063ec8ac4d814610801578063ecb70fb714610815578063f2fde38b14610828578063fb222d4814610847578063fbfa77cf1461086c578063fc0c546a1461087f578063feed556114610892575b610282336108a5565b005b341561028f57600080fd5b610297610a16565b60405190815260200160405180910390f35b34156102b457600080fd5b610297600160a060020a0360043516610a1c565b34156102d357600080fd5b610297610a2e565b34156102e657600080fd5b610282600435602435610a34565b34156102ff57600080fd5b610297610a6c565b341561031257600080fd5b610297610b47565b341561032557600080fd5b61028260046024813581810190830135806020818102016040519081016040528093929190818152602001838360200280828437820191505050505050919080359060200190820180359060200190808060200260200160405190810160405280939291908181526020018383602002808284378201915050505050509190803590602001908201803590602001908080602002602001604051908101604052809392919081815260200183836020028082843750949650610b4d95505050505050565b34156103f457600080fd5b610297610ec3565b341561040757600080fd5b61041960043515156024351515610ec9565b60405160208082528190810183818151815260200191508051906020019060200280838360005b83811015610458578082015183820152602001610440565b505050509050019250505060405180910390f35b341561047757600080fd5b610282600435611243565b341561048d57600080fd5b610297611275565b34156104a057600080fd5b61029761127b565b34156104b357600080fd5b610282611281565b34156104c657600080fd5b610297611300565b34156104d957600080fd5b610297611306565b34156104ec57600080fd5b61028261130c565b34156104ff57600080fd5b610507611338565b604051901515815260200160405180910390f35b341561052657600080fd5b610531600435611341565b604051600160a060020a03909116815260200160405180910390f35b341561055857600080fd5b610282600435611369565b341561056e57600080fd5b61028261139b565b341561058157600080fd5b61029761141c565b341561059457600080fd5b610531611422565b34156105a757600080fd5b610297611431565b34156105ba57600080fd5b610507611441565b34156105cd57600080fd5b610297611451565b34156105e057600080fd5b610531611457565b34156105f357600080fd5b610507611466565b341561060657600080fd5b6102826004803560248101910135611471565b341561062457600080fd5b6102826004356024356044356064356114d2565b341561064357600080fd5b610282611513565b341561065657600080fd5b6102826004803560248101910135611597565b341561067457600080fd5b61067c6115f2565b60405160ff909116815260200160405180910390f35b341561069d57600080fd5b6105076115fb565b34156106b057600080fd5b610531611604565b34156106c357600080fd5b610297611613565b34156106d657600080fd5b610507611619565b34156106e957600080fd5b610507600160a060020a0360043516611632565b341561070857600080fd5b610297611647565b341561071b57600080fd5b610282600160a060020a036004351661164d565b341561073a57600080fd5b61067c6116fc565b341561074d57600080fd5b610297611707565b341561076057600080fd5b61029761170d565b341561077357600080fd5b610282611713565b341561078657600080fd5b61028260043560243561171c565b341561079f57600080fd5b610297600160a060020a0360043516611754565b34156107be57600080fd5b61067c600435611890565b34156107d457600080fd5b610282600160a060020a03600435166118c5565b34156107f357600080fd5b61029760ff60043516611b0f565b610282600160a060020a03600435166108a5565b341561082057600080fd5b610507611b21565b341561083357600080fd5b610282600160a060020a0360043516611b47565b341561085257600080fd5b610282600160a060020a0360043581169060243516611be2565b341561087757600080fd5b610531611c8c565b341561088a57600080fd5b610531611c9b565b341561089d57600080fd5b610297611caa565b6006546000908190819060a060020a900460ff16156108c357600080fd5b600160a060020a03841615156108d857600080fd5b6108e184611754565b92506108ed8334611cb0565b9150600d546005541080156109165750600d54600554610913908463ffffffff611cc816565b10155b15610948577fe0e4731a8ffe9ddd276cd8aa5302d916423f039ee8ff945adda9e5e13bbe8f1360405160405180910390a15b6109528483611cd7565b600e54600554101580156109665750601054155b156109c457600f5461097f90429063ffffffff611cc816565b60108190556002547f8061a159b48a33a206e3cc24cce73cc3a0f5004baf555a87beb12402203bc18c916109b291611cb0565b60405190815260200160405180910390a15b6109d4348363ffffffff611d2d16565b90506000811115610a1057600160a060020a03331681156108fc0282604051600060405180830381858888f193505050501515610a1057600080fd5b50505050565b600f5481565b601a6020526000908152604090205481565b60155481565b60065433600160a060020a03908116911614610a4f57600080fd5b610a57611338565b15610a6157600080fd5b600191909155600255565b600b54600090600160a060020a03166303d756cb82604051602001526040518163ffffffff1660e060020a028152600401602060405180830381600087803b1515610ab657600080fd5b6102c65a03f11515610ac757600080fd5b50505060405180519050600160a060020a03166370a082313060006040516020015260405160e060020a63ffffffff8416028152600160a060020a039091166004820152602401602060405180830381600087803b1515610b2757600080fd5b6102c65a03f11515610b3857600080fd5b50505060405180519150505b90565b600c5481565b600654600090819033600160a060020a03908116911614610b6d57600080fd5b610b75611338565b15610b7f57600080fd5b5060009050808083511115610c855782516017805460ff191660ff92909216919091179055600091505b8251821015610c8557610bc382600163ffffffff611cc816565b9050828281518110610bd157fe5b9060200190602002015160ff821660009081526019602052604090205414610c7a57828281518110610bff57fe5b9060200190602002015160ff8216600090815260196020526040902055600160a060020a0333167fd5687efd49db15a67bba2e8f383f2231ff233c261ccd6e759a2527d80380d93c82858581518110610c5457fe5b9060200190602002015160405160ff909216825260208201526040908101905180910390a25b600190910190610ba9565b600091505b8451821015610da1576000858381518110610ca157fe5b90602001906020020151600160a060020a03161415610cbf57600080fd5b60186000868481518110610ccf57fe5b90602001906020020151600160a060020a0316815260208101919091526040016000205460ff161515610d9657600160186000878581518110610d0e57fe5b90602001906020020151600160a060020a031681526020810191909152604001600020805460ff1916911515919091179055848281518110610d4c57fe5b90602001906020020151600160a060020a031633600160a060020a03167f989ceab15151ad117c420bf6c2f17f42cab53f8a72c3d259d61de6af2ab74c7360405160405180910390a35b600190910190610c8a565b600091505b8351821015610ebc576000848381518110610dbd57fe5b90602001906020020151600160a060020a03161415610ddb57600080fd5b60186000858481518110610deb57fe5b90602001906020020151600160a060020a0316815260208101919091526040016000205460ff1615610eb157600060186000868581518110610e2957fe5b90602001906020020151600160a060020a031681526020810191909152604001600020805460ff1916911515919091179055838281518110610e6757fe5b90602001906020020151600160a060020a031633600160a060020a03167feaddf568a5d6071d7c0ec91f9652fed569ad6bb5a976a93ab8f671e3d7eab95760405160405180910390a35b600190910190610da6565b5050505050565b60025481565b610ed1612402565b600080610edc612402565b601b5460009350839250604051805910610ef35750595b90808252806020026020018201604052509050610f0e611466565b1561101057600092505b601b5483101561100b57858015610f6657506000601a6000601b86815481101515610f3f57fe5b6000918252602080832090910154600160a060020a03168352820192909252604001902054115b80610fae5750848015610fae5750601a6000601b85815481101515610f8757fe5b6000918252602080832090910154600160a060020a03168352820192909252604001902054155b1561100057601b805484908110610fc157fe5b600091825260209091200154600160a060020a0316818381518110610fe257fe5b600160a060020a039092166020928302909101909101526001909101905b600190920191610f18565b6111c8565b600092505b601b548310156111c8578580156110c25750600a54601b8054600092600160a060020a03169163cb13cddb918790811061104b57fe5b6000918252602082200154600160a060020a0316906040516020015260405160e060020a63ffffffff8416028152600160a060020a039091166004820152602401602060405180830381600087803b15156110a557600080fd5b6102c65a03f115156110b657600080fd5b50505060405180519050115b8061116b575084801561116b5750600a54601b8054600160a060020a039092169163cb13cddb9190869081106110f457fe5b6000918252602082200154600160a060020a0316906040516020015260405160e060020a63ffffffff8416028152600160a060020a039091166004820152602401602060405180830381600087803b151561114e57600080fd5b6102c65a03f1151561115f57600080fd5b50505060405180511590505b156111bd57601b80548490811061117e57fe5b600091825260209091200154600160a060020a031681838151811061119f57fe5b600160a060020a039092166020928302909101909101526001909101905b600190920191611015565b816040518059106111d65750595b90808252806020026020018201604052509350600092505b8183101561123a5780838151811061120257fe5b9060200190602002015184848151811061121857fe5b600160a060020a039092166020928302909101909101526001909201916111ee565b50505092915050565b60065433600160a060020a0390811691161461125e57600080fd5b611266611338565b1561127057600080fd5b600c55565b60115481565b60145481565b60065433600160a060020a0390811691161461129c57600080fd5b60065460a060020a900460ff1615156112b457600080fd5b6006805474ff0000000000000000000000000000000000000000191690557f7805862f689e2f13df9f062ff482ad3ad112aca9e0847911ed832e158c525b3360405160405180910390a1565b600d5481565b60055481565b611314611466565b8015611322575060085460ff165b151561132d57600080fd5b611336336118c5565b565b60015442101590565b601b80548290811061134f57fe5b600091825260209091200154600160a060020a0316905081565b60065433600160a060020a0390811691161461138457600080fd5b61138c611338565b1561139657600080fd5b601655565b60065433600160a060020a039081169116146113b657600080fd5b60085460ff16156113c657600080fd5b6113ce611b21565b15156113d957600080fd5b6113e1611d3f565b7f6823b073d48d6e3a7d385eeb601452d680e74bb46afe3255a7d778f3a9b1768160405160405180910390a16008805460ff19166001179055565b60135481565b600354600160a060020a031681565b600061143c33611754565b905090565b60065460a060020a900460ff1681565b60015481565b600b54600160a060020a031681565b600954600554101590565b600061147b611466565b15801561148a575060085460ff165b151561149557600080fd5b5060005b818110156114cd576114c58383838181106114b057fe5b90506020020135600160a060020a031661164d565b600101611499565b505050565b60065433600160a060020a039081169116146114ed57600080fd5b6114f5611338565b156114ff57600080fd5b600d93909355600e91909155600f55601155565b60065433600160a060020a0390811691161461152e57600080fd5b60065460a060020a900460ff161561154557600080fd5b6006805474ff0000000000000000000000000000000000000000191660a060020a1790557f6985a02210a168e66602d3235cb6db0e70f92b3ba4d376a33c0f3d9434bff62560405160405180910390a1565b60006115a1611466565b80156115af575060085460ff165b15156115ba57600080fd5b5060005b818110156114cd576115ea8383838181106115d557fe5b90506020020135600160a060020a03166118c5565b6001016115be565b60175460ff1681565b60085460ff1681565b600654600160a060020a031681565b600e5481565b6000611623611b21565b801561143c575061143c611466565b60186020526000908152604090205460ff1681565b60125481565b611655611466565b158015611664575060085460ff165b151561166f57600080fd5b60065460a060020a900460ff161561168657600080fd5b600160a060020a038116151561169b57600080fd5b600a54600160a060020a031663fa89401a8260405160e060020a63ffffffff8416028152600160a060020a039091166004820152602401600060405180830381600087803b15156116eb57600080fd5b6102c65a03f11515610a1057600080fd5b600061143c42611890565b60165481565b60105481565b6113363361164d565b60065433600160a060020a0390811691161461173757600080fd5b61173f611338565b1561174957600080fd5b601491909155601555565b6000808080600160a060020a038516151561176e57600080fd5b611776611338565b15806117855750611785611b21565b156117935760009350611888565b6005546011546117a89163ffffffff611d2d16565b92506117b26116fc565b60175490925060ff9081169083161161188457600160a060020a03851660009081526018602052604090205460ff1615156117f05760009350611888565b600160a060020a0385166000908152601a602090815260408083205460ff8616845260199092529091205461182a9163ffffffff611d2d16565b905060003411801561183e57506000601454115b801561184b57506014543a115b15611877576015546118749061186883606463ffffffff61201c16565b9063ffffffff61204016565b90505b6118818382611cb0565b92505b8293505b505050919050565b60006118bf60016118b36201518061186860015487611d2d90919063ffffffff16565b9063ffffffff611cc816565b92915050565b6000806118d0611466565b80156118de575060085460ff165b15156118e957600080fd5b60065460a060020a900460ff161561190057600080fd5b600160a060020a0383166000908152601a60205260408120549250821161192657600080fd5b600160a060020a0383166000908152601a6020526040812055600c5461195390839063ffffffff61201c16565b601254909150611969908263ffffffff611d2d16565b601255600b54600160a060020a03166393a378da848360405160e060020a63ffffffff8516028152600160a060020a0390921660048301526024820152604401600060405180830381600087803b15156119c257600080fd5b6102c65a03f115156119d357600080fd5b5050600b54600160a060020a031690506303d756cb6000604051602001526040518163ffffffff1660e060020a028152600401602060405180830381600087803b1515611a1f57600080fd5b6102c65a03f11515611a3057600080fd5b50505060405180519050600160a060020a031663a9059cbb848360006040516020015260405160e060020a63ffffffff8516028152600160a060020a0390921660048301526024820152604401602060405180830381600087803b1515611a9657600080fd5b6102c65a03f11515611aa757600080fd5b505050604051805190501515611abc57600080fd5b82600160a060020a031633600160a060020a03167f29842d15961c304dad3345dcde04db3059d13a4455ed0646e5daf7c993a04bc6848460405191825260208201526040908101905180910390a3505050565b60196020526000908152604090205481565b6000611b2b612057565b8061143c5750600060105411801561143c575050601054421190565b60065433600160a060020a03908116911614611b6257600080fd5b600160a060020a0381161515611b7757600080fd5b600654600160a060020a0380831691167f8be0079c531659141344cd1fd0a4f28419497f9722a3daafe3b4186f6b6457e060405160405180910390a36006805473ffffffffffffffffffffffffffffffffffffffff1916600160a060020a0392909216919091179055565b60065433600160a060020a03908116911614611bfd57600080fd5b60085460ff161515611c0e57600080fd5b600160a060020a0381161515611c2357600080fd5b600a54600160a060020a031663ed6b2d7d838360405160e060020a63ffffffff8516028152600160a060020a03928316600482015291166024820152604401600060405180830381600087803b1515611c7b57600080fd5b6102c65a03f11515610ebc57600080fd5b600a54600160a060020a031681565b600054600160a060020a031681565b601b5490565b6000818311611cbf5782611cc1565b815b9392505050565b600082820183811015611cc157fe5b600160a060020a0382161515611cec57600080fd5b611cf58161206f565b1515611d0057600080fd5b611d0a828261208b565b600554611d1d908263ffffffff611cc816565b600555611d2981612236565b5050565b600082821115611d3957fe5b50900390565b6000611d49610a6c565b9050611d53611466565b15611eb8576012546013819055811115611eb357600b54600160a060020a03166303d756cb6000604051602001526040518163ffffffff1660e060020a028152600401602060405180830381600087803b1515611daf57600080fd5b6102c65a03f11515611dc057600080fd5b5050506040518051600b54600160a060020a03918216925063a9059cbb9116634db08aea6000604051602001526040518163ffffffff1660e060020a028152600401602060405180830381600087803b1515611e1b57600080fd5b6102c65a03f11515611e2c57600080fd5b50505060405180519050611e4b60125485611d2d90919063ffffffff16565b60006040516020015260405160e060020a63ffffffff8516028152600160a060020a0390921660048301526024820152604401602060405180830381600087803b1515611e9757600080fd5b6102c65a03f11515611ea857600080fd5b505050604051805150505b612011565b611ec0611466565b158015611ecd5750600081115b156120115760006012819055600b54600160a060020a0316906303d756cb90604051602001526040518163ffffffff1660e060020a028152600401602060405180830381600087803b1515611f2157600080fd5b6102c65a03f11515611f3257600080fd5b5050506040518051600b54600160a060020a03918216925063a9059cbb9116634db08aea6000604051602001526040518163ffffffff1660e060020a028152600401602060405180830381600087803b1515611f8d57600080fd5b6102c65a03f11515611f9e57600080fd5b505050604051805190508360006040516020015260405160e060020a63ffffffff8516028152600160a060020a0390921660048301526024820152604401602060405180830381600087803b1515611ff557600080fd5b6102c65a03f1151561200657600080fd5b505050604051805150505b6120196122dc565b50565b6000828202831580612038575082848281151561203557fe5b04145b1515611cc157fe5b600080828481151561204e57fe5b04949350505050565b600061206161239d565b8061143c575061143c6123a5565b600061207a826123b0565b80156118bf57505060165490101590565b600080600160a060020a03841615156120a357600080fd5b82915060006014541180156120b957506014543a115b156120db576120d860646118686015548561201c90919063ffffffff16565b91505b600c546120ef90839063ffffffff61201c16565b601254909150612105908263ffffffff611cc816565b601255600160a060020a0384166000908152601a6020526040902054151561216c57601b8054600181016121398382612414565b506000918252602090912001805473ffffffffffffffffffffffffffffffffffffffff1916600160a060020a0386161790555b600160a060020a0384166000908152601a6020526040902054612195908363ffffffff611cc816565b601a600086600160a060020a0316600160a060020a031681526020019081526020016000208190555083600160a060020a031633600160a060020a03167f9512243e3d18d9c1f77e221ae9290827447d5a5a7da1d3df4d7e6b9995b0ad87858585601b80549050600554604051808681526020018581526020018481526020018381526020018281526020019550505050505060405180910390a350505050565b61223e611466565b1561227b57600354600160a060020a031681156108fc0282604051600060405180830381858888f19350505050151561227657600080fd5b612019565b600a54600160a060020a031663f340fa01823360405160e060020a63ffffffff8516028152600160a060020a0390911660048201526024016000604051808303818588803b15156122cb57600080fd5b6125ee5a03f11515610ebc57600080fd5b6122e4611466565b1561234157600a54600160a060020a03166343d726d66040518163ffffffff1660e060020a028152600401600060405180830381600087803b151561232857600080fd5b6102c65a03f1151561233957600080fd5b505050612395565b600a54600160a060020a0316638c52dc416040518163ffffffff1660e060020a028152600401600060405180830381600087803b151561238057600080fd5b6102c65a03f1151561239157600080fd5b5050505b611336611336565b600254421190565b600754600554101590565b60006123bb826123d1565b80156118bf57506123ca6123a5565b1592915050565b600080600060015442101580156123ea57506002544211155b9150508215158180156123fa5750805b949350505050565b60206040519081016040526000815290565b8154818355818115116114cd576000838152602090206114cd918101908301610b4491905b8082111561244d5760008155600101612439565b50905600a165627a7a7230582066eefd51ad6427b26dd5cc9398e4679a5a91ae59fc6cc173424570d498706c1600296060604052341561000f57600080fd5b6040516020806107d08339810160405280805160008054600160a060020a03191633600160a060020a039081169190911790915590925082161515905061005557600080fd5b60028054600160a060020a031916600160a060020a03929092169190911760a060020a60ff02191690556107428061008e6000396000f30060606040526004361061008a5763ffffffff60e060020a60003504166343d726d6811461008f578063521eb273146100a45780638c52dc41146100d35780638da5cb5b146100e6578063c19d93fb146100f9578063cb13cddb14610130578063ed6b2d7d14610161578063f2fde38b14610186578063f340fa01146101a5578063fa89401a146101b9575b600080fd5b341561009a57600080fd5b6100a26101d8565b005b34156100af57600080fd5b6100b76102b3565b604051600160a060020a03909116815260200160405180910390f35b34156100de57600080fd5b6100a26102c2565b34156100f157600080fd5b6100b7610353565b341561010457600080fd5b61010c610362565b6040518082600281111561011c57fe5b60ff16815260200191505060405180910390f35b341561013b57600080fd5b61014f600160a060020a0360043516610372565b60405190815260200160405180910390f35b341561016c57600080fd5b6100a2600160a060020a0360043581169060243516610384565b341561019157600080fd5b6100a2600160a060020a0360043516610531565b6100a2600160a060020a03600435166105cc565b34156101c457600080fd5b6100a2600160a060020a0360043516610650565b60005433600160a060020a039081169116146101f357600080fd5b60006002805460a060020a900460ff169081111561020d57fe5b1461021757600080fd5b6002805474ff00000000000000000000000000000000000000001916740200000000000000000000000000000000000000001790557f1cdde67b72a90f19919ac732a437ac2f7a10fc128d28c2a6e525d89ce5cd9d3a60405160405180910390a1600254600160a060020a039081169030163180156108fc0290604051600060405180830381858888f1935050505015156102b157600080fd5b565b600254600160a060020a031681565b60005433600160a060020a039081169116146102dd57600080fd5b60006002805460a060020a900460ff16908111156102f757fe5b1461030157600080fd5b6002805474ff0000000000000000000000000000000000000000191660a060020a1790557f599d8e5a83cffb867d051598c4d70e805d59802d8081c1c7d6dffc5b6aca2b8960405160405180910390a1565b600054600160a060020a031681565b60025460a060020a900460ff1681565b60016020526000908152604090205481565b60008054819033600160a060020a039081169116146103a257600080fd5b600160a060020a03841615156103f45782600160a060020a03166108fc30600160a060020a0316319081150290604051600060405180830381858888f1935050505015156103ef57600080fd5b61052b565b83915081600160a060020a03166370a082313060006040516020015260405160e060020a63ffffffff8416028152600160a060020a039091166004820152602401602060405180830381600087803b151561044e57600080fd5b6102c65a03f1151561045f57600080fd5b5050506040518051915050600160a060020a03821663a9059cbb848360006040516020015260405160e060020a63ffffffff8516028152600160a060020a0390921660048301526024820152604401602060405180830381600087803b15156104c757600080fd5b6102c65a03f115156104d857600080fd5b505050604051805190505082600160a060020a031684600160a060020a03167f21e9b296e283cad208b551b3c383bb74e34086eb5691fee8392dcce6794521c28360405190815260200160405180910390a35b50505050565b60005433600160a060020a0390811691161461054c57600080fd5b600160a060020a038116151561056157600080fd5b600054600160a060020a0380831691167f8be0079c531659141344cd1fd0a4f28419497f9722a3daafe3b4186f6b6457e060405160405180910390a36000805473ffffffffffffffffffffffffffffffffffffffff1916600160a060020a0392909216919091179055565b60005433600160a060020a039081169116146105e757600080fd5b60006002805460a060020a900460ff169081111561060157fe5b1461060b57600080fd5b600160a060020a038116600090815260016020526040902054610634903463ffffffff61070016565b600160a060020a03909116600090815260016020526040902055565b600060016002805460a060020a900460ff169081111561066c57fe5b1461067657600080fd5b50600160a060020a038116600081815260016020526040808220805492905590919082156108fc0290839051600060405180830381858888f1935050505015156106bf57600080fd5b81600160a060020a03167fd7dee2702d63ad89917b6a4da9981c90c4d24f8c2bdfd64c604ecae57d8d06518260405190815260200160405180910390a25050565b60008282018381101561070f57fe5b93925050505600a165627a7a7230582018f5c7b65b25cf4e8a19898194bfcbc5990a744fae400eece47cf83f0b33224e0029",
  "source": "pragma solidity ^0.4.17;\n\nimport \"./ERC20MiniMe.sol\";\nimport \"./CappedCrowdsale.sol\";\nimport \"./RefundableCrowdsale.sol\";\nimport \"./TokenController.sol\";\nimport \"./Pausable.sol\";\n\n\n/**\n * @title EthealPreSale\n * @author thesved\n * @notice Etheal Token Sale round one presale contract, with mincap (goal), softcap and hardcap (cap)\n * @dev This contract has to be finalized before refund or token claims are enabled\n */\ncontract EthealPreSale is Pausable, CappedCrowdsale, RefundableCrowdsale {\n    // the token is here\n    TokenController public ethealController;\n\n    // after reaching {weiRaised} >= {softCap}, there is {softCapTime} seconds until the sale closes\n    // {softCapClose} contains the closing time\n    uint256 public rate = 1250;\n    uint256 public goal = 333 ether;\n    uint256 public softCap = 3600 ether;\n    uint256 public softCapTime = 120 hours;\n    uint256 public softCapClose;\n    uint256 public cap = 7200 ether;\n\n    // how many token is sold and not claimed, used for refunding to token controller\n    uint256 public tokenBalance;\n\n    // total token sold\n    uint256 public tokenSold;\n\n    // contributing above {maxGasPrice} results in \n    // calculating stakes on {maxGasPricePenalty} / 100\n    // eg. 80 {maxGasPricePenalty} means 80%, sending 5 ETH with more than 100gwei gas price will be calculated as 4 ETH\n    uint256 public maxGasPrice = 100 * 10**9;\n    uint256 public maxGasPricePenalty = 80;\n\n    // minimum contribution, 0.1ETH\n    uint256 public minContribution = 0.1 ether;\n\n    // first {whitelistDayCount} days of token sale is exclusive for whitelisted addresses\n    // {whitelistDayMaxStake} contains the max stake limits per address for each whitelist sales day\n    // {whitelist} contains who can contribute during whitelist period\n    uint8 public whitelistDayCount;\n    mapping (address => bool) public whitelist;\n    mapping (uint8 => uint256) public whitelistDayMaxStake;\n    \n    // stakes contains contribution stake in wei\n    // contributed ETH is calculated on 80% when sending funds with gasprice above maxGasPrice\n    mapping (address => uint256) public stakes;\n\n    // addresses of contributors to handle finalization after token sale end (refunds or token claims)\n    address[] public contributorsKeys; \n\n    // events for token purchase during sale and claiming tokens after sale\n    event TokenClaimed(address indexed _claimer, address indexed _beneficiary, uint256 _stake, uint256 _amount);\n    event TokenPurchase(address indexed _purchaser, address indexed _beneficiary, uint256 _value, uint256 _stake, uint256 _amount, uint256 _participants, uint256 _weiRaised);\n    event TokenGoalReached();\n    event TokenSoftCapReached(uint256 _closeTime);\n\n    // whitelist events for adding days with maximum stakes and addresses\n    event WhitelistAddressAdded(address indexed _whitelister, address indexed _beneficiary);\n    event WhitelistAddressRemoved(address indexed _whitelister, address indexed _beneficiary);\n    event WhitelistSetDay(address indexed _whitelister, uint8 _day, uint256 _maxStake);\n\n\n    ////////////////\n    // Constructor and inherited function overrides\n    ////////////////\n\n    /// @notice Constructor to create PreSale contract\n    /// @param _ethealController Address of ethealController\n    /// @param _startTime The start time of token sale in seconds.\n    /// @param _endTime The end time of token sale in seconds.\n    /// @param _minContribution The minimum contribution per transaction in wei (0.1 ETH)\n    /// @param _rate Number of HEAL tokens per 1 ETH\n    /// @param _goal Minimum funding in wei, below that EVERYONE gets back ALL their\n    ///  contributions regardless of maxGasPrice penalty. \n    ///  Eg. someone contributes with 5 ETH, but gets only 4 ETH stakes because\n    ///  sending funds with gasprice over 100Gwei, he will still get back >>5 ETH<<\n    ///  in case of unsuccessful token sale\n    /// @param _softCap Softcap in wei, reaching it ends the sale in _softCapTime seconds\n    /// @param _softCapTime Seconds until the sale remains open after reaching _softCap\n    /// @param _cap Maximum cap in wei, we can't raise more funds\n    /// @param _gasPrice Maximum gas price\n    /// @param _gasPenalty Penalty in percentage points for calculating stakes, eg. 80 means calculating \n    ///  stakes on 80% if gasprice was higher than _gasPrice\n    /// @param _wallet Address of multisig wallet, which will get all the funds after successful sale\n    function EthealPreSale(\n        address _ethealController,\n        uint256 _startTime, \n        uint256 _endTime, \n        uint256 _minContribution, \n        uint256 _rate, \n        uint256 _goal, \n        uint256 _softCap, \n        uint256 _softCapTime, \n        uint256 _cap, \n        uint256 _gasPrice, \n        uint256 _gasPenalty, \n        address _wallet\n    )\n        CappedCrowdsale(_cap)\n        FinalizableCrowdsale()\n        RefundableCrowdsale(_goal)\n        Crowdsale(_startTime, _endTime, _rate, _wallet)\n    {\n        // ethealController must be valid\n        require(_ethealController != address(0));\n        ethealController = TokenController(_ethealController);\n\n        // caps have to be consistent with each other\n        require(_goal <= _softCap && _softCap <= _cap);\n\n        \n        softCap = _softCap;\n        softCapTime = _softCapTime;\n\n        // this is needed since super constructor wont overwite overriden variables\n        cap = _cap;\n        goal = _goal;\n        rate = _rate;\n\n        maxGasPrice = _gasPrice;\n        maxGasPricePenalty = _gasPenalty;\n\n        minContribution = _minContribution;\n    }\n\n    /// @dev Overriding Crowdsale#buyTokens to add partial refund and softcap logic \n    /// @param _beneficiary Beneficiary of the token purchase\n    function buyTokens(address _beneficiary) public payable whenNotPaused {\n        require(_beneficiary != address(0));\n\n        uint256 weiToCap = howMuchCanXContributeNow(_beneficiary);\n        uint256 weiAmount = uint256Min(weiToCap, msg.value);\n\n        // goal is reached\n        if (weiRaised < goal && weiRaised.add(weiAmount) >= goal)\n            TokenGoalReached();\n\n        // call the Crowdsale#buyTokens internal function\n        buyTokens(_beneficiary, weiAmount);\n\n        // close sale in softCapTime seconds after reaching softCap\n        if (weiRaised >= softCap && softCapClose == 0) {\n            softCapClose = now.add(softCapTime);\n            TokenSoftCapReached(uint256Min(softCapClose, endTime));\n        }\n\n        // handle refund\n        uint256 refund = msg.value.sub(weiAmount);\n        if (refund > 0) {\n            msg.sender.transfer(refund);\n        }\n    }\n\n    /// @dev Overriding Crowdsale#transferToken, which keeps track of contributions DURING token sale\n    /// @param _beneficiary Address of the recepient of the tokens\n    /// @param _weiAmount Contribution in wei\n    function transferToken(address _beneficiary, uint256 _weiAmount) internal {\n        require(_beneficiary != address(0));\n\n        uint256 weiAmount = _weiAmount;\n        // check maxGasPricePenalty\n        if (maxGasPrice > 0 && tx.gasprice > maxGasPrice) {\n            weiAmount = weiAmount.mul(maxGasPricePenalty).div(100);\n        }\n\n        // calculate tokens, so we can refund excess tokens to EthealController after token sale\n        uint256 tokens = weiAmount.mul(rate);\n        tokenBalance = tokenBalance.add(tokens);\n\n        if (stakes[_beneficiary] == 0)\n            contributorsKeys.push(_beneficiary);\n\n        stakes[_beneficiary] = stakes[_beneficiary].add(weiAmount);\n\n        TokenPurchase(msg.sender, _beneficiary, _weiAmount, weiAmount, tokens, contributorsKeys.length, weiRaised);\n    }\n\n    /// @dev Overriding Crowdsale#validPurchase to add min contribution logic\n    /// @param _weiAmount Contribution amount in wei\n    /// @return true if contribution is okay\n    function validPurchase(uint256 _weiAmount) internal constant returns (bool) {\n        return super.validPurchase(_weiAmount) && _weiAmount >= minContribution;\n    }\n\n    /// @dev Overriding Crowdsale#hasEnded to add soft cap logic\n    /// @return true if crowdsale event has ended or a softCapClose time is set and passed\n    function hasEnded() public constant returns (bool) {\n        return super.hasEnded() || softCapClose > 0 && now > softCapClose;\n    }\n\n    /// @dev Overriding RefundableCrowdsale#claimRefund to enable anyone to call for any address\n    ///  which enables us to refund anyone and also anyone can refund themselves\n    function claimRefund() public {\n        claimRefundFor(msg.sender);\n    }\n\n    /// @dev Extending RefundableCrowdsale#finalization sending back excess tokens to ethealController\n    function finalization() internal {\n        uint256 _balance = getHealBalance();\n\n        // if token sale was successful send back excess funds\n        if (goalReached()) {\n            // saving token balance for future reference\n            tokenSold = tokenBalance; \n\n            // send back the excess token to ethealController\n            if (_balance > tokenBalance) {\n                ethealController.ethealToken().transfer(ethealController.SALE(), _balance.sub(tokenBalance));\n            }\n        } else if (!goalReached() && _balance > 0) {\n            // if token sale is failed, then send back all tokens to ethealController's sale address\n            tokenBalance = 0;\n            ethealController.ethealToken().transfer(ethealController.SALE(), _balance);\n        }\n\n        super.finalization();\n    }\n\n\n    ////////////////\n    // BEFORE token sale\n    ////////////////\n\n    /// @notice Modifier for before sale cases\n    modifier beforeSale() {\n        require(!hasStarted());\n        _;\n    }\n\n    /// @notice Sets whitelist\n    /// @dev The length of _whitelistLimits says that the first X days of token sale is \n    ///  closed, meaning only for whitelisted addresses.\n    /// @param _add Array of addresses to add to whitelisted ethereum accounts\n    /// @param _remove Array of addresses to remove to whitelisted ethereum accounts\n    /// @param _whitelistLimits Array of limits in wei, where _whitelistLimits[0] = 10 ETH means\n    ///  whitelisted addresses can contribute maximum 10 ETH stakes on the first day\n    ///  After _whitelistLimits.length days, there will be no limits per address (besides hard cap)\n    function setWhitelist(address[] _add, address[] _remove, uint256[] _whitelistLimits) public onlyOwner beforeSale {\n        uint256 i = 0;\n        uint8 j = 0; // access max daily stakes\n\n        // we override whiteListLimits only if it was supplied as an argument\n        if (_whitelistLimits.length > 0) {\n            // saving whitelist max stake limits for each day -> uint256 maxStakeLimit\n            whitelistDayCount = uint8(_whitelistLimits.length);\n\n            for (i = 0; i < _whitelistLimits.length; i++) {\n                j = uint8(i.add(1));\n                if (whitelistDayMaxStake[j] != _whitelistLimits[i]) {\n                    whitelistDayMaxStake[j] = _whitelistLimits[i];\n                    WhitelistSetDay(msg.sender, j, _whitelistLimits[i]);\n                }\n            }\n        }\n\n        // adding whitelist addresses\n        for (i = 0; i < _add.length; i++) {\n            require(_add[i] != address(0));\n            \n            if (!whitelist[_add[i]]) {\n                whitelist[_add[i]] = true;\n                WhitelistAddressAdded(msg.sender, _add[i]);\n            }\n        }\n\n        // removing whitelist addresses\n        for (i = 0; i < _remove.length; i++) {\n            require(_remove[i] != address(0));\n            \n            if (whitelist[_remove[i]]) {\n                whitelist[_remove[i]] = false;\n                WhitelistAddressRemoved(msg.sender, _remove[i]);\n            }\n        }\n    }\n\n    /// @notice Sets max gas price and penalty before sale\n    function setMaxGas(uint256 _maxGas, uint256 _penalty) public onlyOwner beforeSale {\n        maxGasPrice = _maxGas;\n        maxGasPricePenalty = _penalty;\n    }\n\n    /// @notice Sets min contribution before sale\n    function setMinContribution(uint256 _minContribution) public onlyOwner beforeSale {\n        minContribution = _minContribution;\n    }\n\n    /// @notice Sets minimum goal, soft cap and max cap\n    function setCaps(uint256 _goal, uint256 _softCap, uint256 _softCapTime, uint256 _cap) public onlyOwner beforeSale {\n        goal = _goal;\n        softCap = _softCap;\n        softCapTime = _softCapTime;\n        cap = _cap;\n    }\n\n    /// @notice Sets crowdsale start and end time\n    function setTimes(uint256 _startTime, uint256 _endTime) public onlyOwner beforeSale {\n        startTime = _startTime;\n        endTime = _endTime;\n    }\n\n    /// @notice Set rate\n    function setRate(uint256 _rate) public onlyOwner beforeSale {\n        rate = _rate;\n    }\n\n\n    ////////////////\n    // AFTER token sale\n    ////////////////\n\n    /// @notice Modifier for cases where sale is failed\n    /// @dev It checks whether we haven't reach the minimum goal AND whether the contract is finalized\n    modifier afterSaleFail() {\n        require(!goalReached() && isFinalized);\n        _;\n    }\n\n    /// @notice Modifier for cases where sale is closed and was successful.\n    /// @dev It checks whether\n    ///  the sale has ended \n    ///  and we have reached our goal\n    ///  AND whether the contract is finalized\n    modifier afterSaleSuccess() {\n        require(goalReached() && isFinalized);\n        _;\n    }\n\n    /// @notice Modifier for after sale finalization\n    modifier afterSale() {\n        require(isFinalized);\n        _;\n    }\n\n    \n    /// @notice Refund an ethereum address\n    /// @param _beneficiary Address we want to refund\n    function claimRefundFor(address _beneficiary) public afterSaleFail whenNotPaused {\n        require(_beneficiary != address(0));\n        vault.refund(_beneficiary);\n    }\n\n    /// @notice Refund several addresses with one call\n    /// @param _beneficiaries Array of addresses we want to refund\n    function claimRefundsFor(address[] _beneficiaries) external afterSaleFail {\n        for (uint256 i = 0; i < _beneficiaries.length; i++)\n            claimRefundFor(_beneficiaries[i]);\n    }\n\n    /// @notice Claim token for msg.sender after token sale based on stake.\n    function claimToken() public afterSaleSuccess {\n        claimTokenFor(msg.sender);\n    }\n\n    /// @notice Claim token after token sale based on stake.\n    /// @dev Anyone can call this function and distribute tokens after successful token sale\n    /// @param _beneficiary Address of the beneficiary who gets the token\n    function claimTokenFor(address _beneficiary) public afterSaleSuccess whenNotPaused {\n        uint256 stake = stakes[_beneficiary];\n        require(stake > 0);\n\n        // set the stake 0 for beneficiary\n        stakes[_beneficiary] = 0;\n\n        // calculate token count\n        uint256 tokens = stake.mul(rate);\n\n        // decrease tokenBalance, to make it possible to withdraw excess HEAL funds\n        tokenBalance = tokenBalance.sub(tokens);\n\n        // distribute hodlr stake\n        ethealController.addHodlerStake(_beneficiary, tokens);\n\n        // distribute token\n        require(ethealController.ethealToken().transfer(_beneficiary, tokens));\n        TokenClaimed(msg.sender, _beneficiary, stake, tokens);\n    }\n\n    /// @notice claimToken() for multiple addresses\n    /// @dev Anyone can call this function and distribute tokens after successful token sale\n    /// @param _beneficiaries Array of addresses for which we want to claim tokens\n    function claimTokensFor(address[] _beneficiaries) external afterSaleSuccess {\n        for (uint256 i = 0; i < _beneficiaries.length; i++)\n            claimTokenFor(_beneficiaries[i]);\n    }\n\n    /// @notice Get back accidentally sent token from the vault\n    function extractVaultTokens(address _token, address _claimer) public onlyOwner afterSale {\n        require(_claimer != address(0));\n\n        vault.extractTokens(_token, _claimer);\n    }\n\n\n    ////////////////\n    // Constant, helper functions\n    ////////////////\n\n    /// @notice How many wei can the msg.sender contribute now.\n    function howMuchCanIContributeNow() view public returns (uint256) {\n        return howMuchCanXContributeNow(msg.sender);\n    }\n\n    /// @notice How many wei can an ethereum address contribute now.\n    /// @dev This function can return 0 when the crowdsale is stopped\n    ///  or the address has maxed the current day's whitelist cap,\n    ///  it is possible, that next day he can contribute\n    /// @param _beneficiary Ethereum address\n    /// @return Number of wei the _beneficiary can contribute now.\n    function howMuchCanXContributeNow(address _beneficiary) view public returns (uint256) {\n        require(_beneficiary != address(0));\n\n        if (!hasStarted() || hasEnded()) \n            return 0;\n\n        // wei to hard cap\n        uint256 weiToCap = cap.sub(weiRaised);\n\n        // if this is a whitelist limited period\n        uint8 _saleDay = getSaleDayNow();\n        if (_saleDay <= whitelistDayCount) {\n            // address can't contribute if\n            //  it is not whitelisted\n            if (!whitelist[_beneficiary])\n                return 0;\n\n            // personal cap is the daily whitelist limit minus the stakes the address already has\n            uint256 weiToPersonalCap = whitelistDayMaxStake[_saleDay].sub(stakes[_beneficiary]);\n\n            // calculate for maxGasPrice penalty\n            if (msg.value > 0 && maxGasPrice > 0 && tx.gasprice > maxGasPrice)\n                weiToPersonalCap = weiToPersonalCap.mul(100).div(maxGasPricePenalty);\n\n            weiToCap = uint256Min(weiToCap, weiToPersonalCap);\n        }\n\n        return weiToCap;\n    }\n\n    /// @notice For a give date how many 24 hour blocks have ellapsed since token sale start\n    /// @dev _time has to be bigger than the startTime of token sale, otherwise SafeMath's div will throw.\n    ///  Within 24 hours of token sale it will return 1, \n    ///  between 24 and 48 hours it will return 2, etc.\n    /// @param _time Date in seconds for which we want to know which sale day it is\n    /// @return Number of 24 hour blocks ellapsing since token sale start starting from 1\n    function getSaleDay(uint256 _time) view public returns (uint8) {\n        return uint8(_time.sub(startTime).div(60*60*24).add(1));\n    }\n\n    /// @notice How many 24 hour blocks have ellapsed since token sale start\n    /// @return Number of 24 hour blocks ellapsing since token sale start starting from 1\n    function getSaleDayNow() view public returns (uint8) {\n        return getSaleDay(now);\n    }\n\n    /// @notice Minimum between two uint8 numbers\n    function uint8Min(uint8 a, uint8 b) pure internal returns (uint8) {\n        return a > b ? b : a;\n    }\n\n    /// @notice Minimum between two uint256 numbers\n    function uint256Min(uint256 a, uint256 b) pure internal returns (uint256) {\n        return a > b ? b : a;\n    }\n\n\n    ////////////////\n    // Test and contribution web app, NO audit is needed\n    ////////////////\n\n    /// @notice Was this token sale successful?\n    /// @return true if the sale is over and we have reached the minimum goal\n    function wasSuccess() view public returns (bool) {\n        return hasEnded() && goalReached();\n    }\n\n    /// @notice How many contributors we have.\n    /// @return Number of different contributor ethereum addresses\n    function getContributorsCount() view public returns (uint256) {\n        return contributorsKeys.length;\n    }\n\n    /// @notice Get contributor addresses to manage refunds or token claims.\n    /// @dev If the sale is not yet successful, then it searches in the RefundVault.\n    ///  If the sale is successful, it searches in contributors.\n    /// @param _pending If true, then returns addresses which didn't get refunded or their tokens distributed to them\n    /// @param _claimed If true, then returns already refunded or token distributed addresses\n    /// @return Array of addresses of contributors\n    function getContributors(bool _pending, bool _claimed) view public returns (address[] contributors) {\n        uint256 i = 0;\n        uint256 results = 0;\n        address[] memory _contributors = new address[](contributorsKeys.length);\n\n        // if we have reached our goal, then search in contributors, since this is what we want to monitor\n        if (goalReached()) {\n            for (i = 0; i < contributorsKeys.length; i++) {\n                if (_pending && stakes[contributorsKeys[i]] > 0 || _claimed && stakes[contributorsKeys[i]] == 0) {\n                    _contributors[results] = contributorsKeys[i];\n                    results++;\n                }\n            }\n        } else {\n            // otherwise search in the refund vault\n            for (i = 0; i < contributorsKeys.length; i++) {\n                if (_pending && vault.deposited(contributorsKeys[i]) > 0 || _claimed && vault.deposited(contributorsKeys[i]) == 0) {\n                    _contributors[results] = contributorsKeys[i];\n                    results++;\n                }\n            }\n        }\n\n        contributors = new address[](results);\n        for (i = 0; i < results; i++) {\n            contributors[i] = _contributors[i];\n        }\n\n        return contributors;\n    }\n\n    /// @notice How many HEAL tokens do this contract have\n    function getHealBalance() view public returns (uint256) {\n        return ethealController.ethealToken().balanceOf(address(this));\n    }\n}",
  "sourcePath": "/Users/tikonoff/projects/etheal-contracts/contracts/EthealPreSale.sol",
  "compiler": {
    "name": "solc",
    "version": "0.4.19+commit.c4cbbb05.Emscripten.clang"
  },
  "schemaVersion": "1.0.1",
  "updatedAt": "2018-03-13T01:01:24.763Z"
}